:020000040800F2
:1000000000000320354A0008D9450008DB450008F8
:10001000DD450008DF450008E1450008000000005C
:10002000000000000000000000000000412D00085A
:10003000E345000800000000E12D0008452E0008FF
:10004000854A0008854A0008854A0008854A000854
:10005000854A0008854A0008854A0008854A000844
:10006000854A0008854A0008E5450008854A0008D9
:10007000854A0008854A0008854A0008854A000824
:10008000854A0008854A0008854A0008854A000814
:10009000854A0008854A0008854A0008EF4500089F
:1000A000854A0008854A0008854A0008854A0008F4
:1000B000854A0008854A0008854A0008854A0008E4
:1000C000854A0008854A0008854A0008854A0008D4
:1000D000854A0008854A0008854A0008854A0008C4
:1000E00005460008854A0008854A0008854A000838
:1000F00011460008854A0008854A0008854A00081C
:10010000854A0008854A0008854A0008854A000893
:10011000854A0008854A0008854A0008854A000883
:10012000854A0008854A0008854A0008854A000873
:10013000854A0008854A0008854A0008854A000863
:10014000854A0008854A0008854A0008854A000853
:10015000854A0008854A0008854A0008854A000843
:10016000854A0008854A0008854A0008854A000833
:10017000854A0008854A0008854A000800000000FA
:10018000854A0008854A0008854A0008854A000813
:10019000854A0008854A0008854A0008854A000803
:0C01A000854A0008854A0008854A0008CE
:1001B00010B5054C237833B9044B13B10448AFF3A1
:1001C00000800123237010BD0C00002000000000FF
:1001D000E04A000808B5034B1BB103490348AFF3DD
:1001E000008008BD0000000010000020E04A000868
:1001F000034613F8012B002AFBD1181A0138704767
:1002000053B94AB9002908BF00281CBF4FF0FF317D
:100210004FF0FF3000F07AB9ADF1080C6DE904CE73
:1002200000F006F8DDF804E0DDE9022304B07047D1
:100230002DE9F0478C460D460446089E002B51D10F
:100240008A4217466DD9B2FA82FEBEF1000F0BD07A
:10025000CEF1200C01FA0EF520FA0CFC02FA0EF792
:100260004CEA050C00FA0EF44FEA174A250CBCFBC9
:10027000FAF81FFA87F90AFB18CC45EA0C4508FB87
:1002800009F3AB420AD9ED1908F1FF3280F023815E
:10029000AB4240F22081A8F102083D44ED1AA4B21D
:1002A000B5FBFAF00AFB105544EA054400FB09F9D6
:1002B000A14509D9E41900F1FF3380F00A81A14575
:1002C00040F2078102383C44A4EB090440EA0840AC
:1002D0000021002E61D024FA0EF4002334607360F4
:1002E000BDE8F0878B4207D9002E54D0002186E864
:1002F00021000846BDE8F087B3FA83F1002940F0F9
:100300008E80AB4202D3824200F2FA80841A65EBFF
:1003100003050120AC46002E3FD086E81010BDE852
:10032000F08712B90127B7FBF2F7B7FA87FEBEF1E3
:10033000000F34D1EB1B3A0C1FFA87FC0121B3FBF1
:10034000F2F8250C02FB183345EA03450CFB08F3D1
:10035000AB4207D9ED1908F1FF3002D2AB4200F2EF
:10036000D1808046ED1AA3B2B5FBF2F002FB105526
:1003700043EA05440CFB00FCA44507D9E41900F14D
:10038000FF3302D2A44500F2B8801846A4EB0C0457
:1003900040EA08409DE731463046BDE8F087CEF19F
:1003A000200405FA0EF307FA0EF720FA04F83A0CC7
:1003B00025FA04F448EA0308B4FBF2F14FEA1845C1
:1003C00002FB11441FFA87FC45EA044501FB0CF3CC
:1003D000AB4200FA0EF409D9ED1901F1FF3080F0BB
:1003E0008A80AB4240F2878002393D44EB1A1FFA03
:1003F00088F5B3FBF2F002FB103345EA034500FB3E
:100400000CF3AB4207D9ED1900F1FF386FD2AB42C4
:100410006DD902383D44EB1A40EA01418FE7C1F142
:10042000200722FA07F88B4005FA01F448EA030393
:1004300020FA07FE4FEA134CFD404EEA040EB5FBCE
:10044000FCF94FEA1E440CFB19551FFA83F844EAE5
:10045000054509FB08F4AC4202FA01F200FA01FA80
:1004600008D9ED1809F1FF3043D2AC4241D9A9F1C6
:1004700002091D442D1B1FFA8EFEB5FBFCF00CFB80
:1004800010554EEA054400FB08F8A04507D9E418CA
:1004900000F1FF3529D2A04527D902381C4440EA93
:1004A0000940A4EB0804A0FB02894C45C6464D4612
:1004B00015D312D056B1BAEB0E0364EB050404FA5F
:1004C00007F7CB401F43CC40376074600021BDE884
:1004D000F0871846F8E69046E0E6C245EAD2B8EB67
:1004E000020E69EB03050138E4E72846D7E74046EA
:1004F00091E78146BEE7014678E702383C4445E78C
:10050000084608E7A8F102083D442BE7704700BF02
:1005100008B50B4B1A6842F400721A601A6842F46C
:1005200080621A601A6842F480721A60032000F038
:10053000C7F9002004F012F803F0EEFF002008BD18
:10054000003C0240034A1168034B1B780B441360C4
:10055000704700BFC43F002000000020014B186816
:10056000704700BFC43F002038B50446FFF7F6FFD0
:100570000546B4F1FF3F02D0044B1B781C44FFF743
:10058000EDFF401B8442FAD838BD00BF00000020B8
:100590004A4B5A6822F440325A605A6841680A430A
:1005A0005A600268536823F480735360026853688A
:1005B000016943EA012353600268536823F04073E2
:1005C00053600268536881680B4353600268936804
:1005D00023F40063936002689368C1680B439360DF
:1005E000826A374B9A424BD00268936823F070635B
:1005F000936002689368816A0B4393600268936812
:1006000023F04053936002689368C16A0B43936080
:100610000268936823F00203936002689368017E86
:1006200043EA4103936090F82030002B33D10268F5
:10063000536823F4006353600268D36A23F47003A1
:10064000D3620168CB6AC269013A43EA0253CB62C2
:100650000268936823F4007393600268936890F8CB
:10066000301043EA412393600268936823F4806367
:10067000936002689368416943EA812393607047FD
:100680000268936823F0706393600268936823F0B4
:1006900040539360BCE70268536843F400635360BF
:1006A0000268536823F46043536001684B68426AF0
:1006B000013A43EA42334B60BEE700BF00230140EA
:1006C0000100000F38B310B50446036C43B1236C2E
:1006D00013F0100F0BD00120002384F83C3010BD24
:1006E00003F082FA0023636484F83C30EFE7236C64
:1006F00023F4885323F0020343F0020323642046CB
:10070000FFF746FF00206064236C23F0030343F0EF
:1007100001032364E0E701207047000030B482B099
:100720000023019390F83C30012B00F0BD800123A1
:1007300080F83C300B68092B3ED90568EA689BB20B
:1007400003EB43031E3B072404FA03F322EA0303EB
:10075000EB600568EA688C680B8803EB43031E3B7B
:1007600004FA03F31343EB604B68062B3AD8056891
:100770006A6B03EB8303053B1F2404FA03F322EAAD
:1007800003036B6305686A6B4B6803EB8303053BEC
:100790000C8804FA03F313436B630268434B9A42D9
:1007A00050D00268414B9A4259D0002380F83C3027
:1007B000184602B030BC704705682A699BB203EB4B
:1007C0004303072404FA03F322EA03032B610568B9
:1007D0002A698C680B8803EB430304FA03F3134381
:1007E0002B61C1E70C2B16D805682A6B03EB83033A
:1007F000233B1F2404FA03F322EA03032B63056857
:100800002A6B4B6803EB8303233B0C8804FA03F346
:1008100013432B63C1E70568EA6A03EB8303413B9B
:100820001F2404FA03F322EA0303EB620568EA6A71
:100830004B6803EB8303413B0C8804FA03F3134337
:10084000EB62AAE70B68122BABD1194B5A6822F462
:1008500000025A605A6842F480025A60A1E70B68AD
:10086000144A934201D0112B9FD1114B5A6822F4A4
:1008700080025A605A6842F400025A600A680D4BBE
:100880009A4292D10C4B1B680C4AA2FB03239B0C8F
:1008900003EB83035A00019202E0019B013B0193A9
:1008A000019B002BF9D180E7022082E70020014064
:1008B00000230140120000100800002083DE1B43CB
:1008C000074AD36823F4E0631B041B0C000200F406
:1008D000E060184340F0BF6040F40030D0607047E3
:1008E00000ED00E030B4164BDB68C3F30223C3F124
:1008F0000704042C28BF04241D1D062D17D9033B13
:10090000012505FA04F4013C2140994005FA03F35E
:10091000013B1340194300280BDB0901C9B200F168
:10092000604000F5614080F8001330BC7047002340
:10093000E6E700F00F000901C9B2024B1954F4E7D1
:1009400000ED00E014ED00E0002808DB420900F0B3
:100950001F00012303FA00F0014B43F82200704707
:1009600000E100E05079137943EA002307480B5077
:10097000D07893781B0443EA0063507843EA00235D
:1009800012781343024A8B50704700BF40800240E8
:100990004480024070B59EB0044629B14FF4006314
:1009A000C3604FF480438360E369002B6AD14FF446
:1009B0008063079321680B68394A1A40A368E0688E
:1009C00003430798034343F4007313430B60236806
:1009D0001D680120FFF7C8FD23681D6023684022C1
:1009E0005A6023685D680120FFF7BEFD23685D60E3
:1009F000236800259D602368DD602268936923F0E9
:100A0000BE031B041B0C43F08003936123689E69A3
:100A10000120FFF7A9FD23689E612368DD6123683B
:100A2000DD690120FFF7A0FD2368DD61226841F246
:100A3000180551591B4B0B4043F0087343F0040356
:100A4000535123685E590120FFF78EFD23685E51E4
:100A5000236803F58053144A1A60236803F5805312
:100A60001D680120FFF780FD236803F580531D609A
:100A7000A369012B09D0626900212046FFF772FFAC
:100A80001EB070BD0023079394E7216841F21C0259
:100A90008B5843F4803343F040038B50EBE700BFA7
:100AA0000F8120FF233FDEF88020C102F8B590F8C7
:100AB0004430DBB2822B01D10220F8BD1646054638
:100AC000822380F844300268146904F01C04038A0D
:100AD000DB029BB21C43890101F4F8610C4344F032
:100AE00001041461FFF73AFD074614F0010F10D01E
:100AF000FFF734FDC01BB0F5803F02D22B681C69A4
:100B0000F3E7012385F84430002385F845300320BE
:100B1000F8BD2B685B699BB23360012385F84430D4
:100B20000020F8BD90F84430DBB2422B01D1022006
:100B3000704770B50546422380F844300068046968
:100B400004F01C042B8ADB029BB21C43890101F4D4
:100B5000F8610C4344F0030492B242612B681C61BB
:100B6000FFF7FCFC064614F0010F10D0FFF7F6FC6F
:100B7000801BB0F5803F02D22B681C69F3E701238C
:100B800085F84430002385F84530032070BD0123EB
:100B900085F84430002070BD70B582B00023019309
:100BA000002800F00E81044690F84430002B34D029
:100BB00000230093844B5A6C42F480425A645B6C6D
:100BC00003F480430093009B804B5A6822F4000298
:100BD0005A605A68216A0A435A60236803F58053B1
:100BE0001A6842F001021A60FFF7B8FC0546236854
:100BF00003F58052126812F0010F13D0FFF7AEFC1C
:100C0000401BB0F5FA7FF2D9032584F84450002345
:100C100084F84530284602B070BD80F8453003F0B6
:100C200043F8C5E71D6925F01C0501F097FA684BEC
:100C30000344684A934255D845F0080523681D616E
:100C40004FF4004200212046FFF76CFF05460028C4
:100C500060D1FF20FFF788FC6368002B00F09180D3
:100C6000FFF77CFC064601AA01212046FFF71EFF84
:100C7000FFF774FC801B41F28833984252D8019BE5
:100C800013F0040FEFD04FF4805200212046FFF7FD
:100C900049FF002852D1FFF761FC064601AA012155
:100CA0002046FFF703FFFFF759FC801B41F2883312
:100CB00098424BD8019B13F0200FEFD001AA1F21BF
:100CC0002046FFF7F3FE00284CD1019B13F0100FD4
:100CD00050D04FF40062E26013F0040F4DD00023B7
:100CE000A3605EE03C4B03443C4A934202D845F08B
:100CF0000C05A3E73A4B03443A4A93429ED93A4B38
:100D000003443A4A934202D845F0040596E745F079
:100D1000100593E701212046FFF73CFE012584F8EA
:100D2000445077E701212046FFF734FE012384F881
:100D30004430002384F8453003256BE70121204629
:100D4000FFF728FE012584F8445063E7012120467F
:100D5000FFF720FE012384F84430002384F8453057
:100D6000032557E701212046FFF714FE012584F8EB
:100D700044504FE70022E260AEE74FF48043A360A7
:100D80000FE0E368C3F3CF02A368C3F34F031A4332
:100D900000212046FFF7C6FE58B940F6FF70FFF766
:100DA000E3FB00212046FFF7F5FD012384F84430E2
:100DB00030E701212046FFF7EDFD012584F844507E
:100DC00028E7012526E700BF00380240003801402F
:100DD00000D3CEFEBFE1E40040F1E9FD3F787D01A4
:100DE00000796CFCFF596202001F0AFA7FF0FA02D8
:100DF000F0B583B000244BE04FEAD40E0EF1080E9C
:100E000050F82E2004F00706B6000F27B74022EA5C
:100E100007020F6907FA06F6324340F82E2046E033
:100E2000092600E0002606FA0EF632430233644E2D
:100E300046F82320634B1A68EB4302EA03064F6827
:100E400017F4803F01D045EA02065E4A16605268F8
:100E500003EA02064F6817F4003F01D045EA020694
:100E6000584A5660926803EA02064F6817F4801FDA
:100E700001D045EA0206534A9660D26813404E6894
:100E800016F4001F01D045EA02034E4AD360013434
:100E90000F2C00F292800123A3400A6803EA0205A6
:100EA000AB42F4D14A68022AA6D0122AA4D006681E
:100EB0004FEA440E032202FA0EF2D24316404F6864
:100EC00007F0030707FA0EF73E4306604E68771EE9
:100ED000012F03D9112E01D0122E0FD18668164092
:100EE000CF6807FA0EF73E438660466826EA03039A
:100EF0004E68C6F30016A64033434360C3681A40E9
:100F00008B6803FA0EF31A43C2604B6813F0805FDC
:100F1000BDD0002301932C4B5A6C42F480425A649A
:100F20005B6C03F480430193019BA3089E1C244A3D
:100F300052F8262004F003064FEA860E0F2606FA22
:100F40000EF622EA0602214FB8423FF46BAF204E64
:100F5000B04222D006F58066B04220D006F5806609
:100F6000B0421ED006F58066B0421CD006F5806601
:100F7000B0421AD006F58066B04218D006F58066F9
:100F8000B04216D006F58066B04214D006F58066F1
:100F9000B0423FF445AF0A2645E7012643E7022663
:100FA00041E703263FE704263DE705263BE7062603
:100FB00039E7072637E7082635E703B0F0BD00BF5D
:100FC00000380140003C014000380240000002406F
:100FD0000004024012B909048161704781617047C1
:100FE00008B5054B5B69034200D108BD024B58614F
:100FF00003F0C6F9F9E700BF003C014003685A69F5
:1010000012F4806F11D06FF480625A610023036381
:10101000202280F83D2080F83E30026C42F004022D
:10102000026480F83C300120704700207047F8B51A
:1010300006460C4617461D4622E0FFF78FFA069B30
:10104000C01A854200D3DDB900233363202286F81D
:101050003D2086F83E30326C42F02002326486F841
:101060003C300120F8BD33685B6924EA03039BB27E
:10107000B3FA83F35B09BB420FD1B5F1FF3FDCD17B
:10108000C4F30743012BEED033689B6924EA0303C2
:101090009BB2B3FA83F35B09EDE70020F8BDF8B526
:1010A00004460D4616461F463CE01A6842F400729C
:1010B0001A6023686FF480625A6100232363202240
:1010C00084F83D2084F83E30226C42F00402226411
:1010D00084F83C300120F8BDFFF740FAC01B86427F
:1010E00000D3FEB900232363202284F83D2084F836
:1010F0003E30226C42F02002226484F83C30012011
:10110000F8BD23685B6925EA03039BB2003318BF6F
:101110000123A3B123685A6912F4806FC5D1B6F1D7
:10112000FF3FD9D1C5F30743012BEAD023689B6960
:1011300025EA03039BB2003318BF0123E9E700202F
:10114000F8BD0000F0B583B004460F4615461E46B4
:10115000C36A082B0DD0012B0BD013F5803F08D0AC
:10116000036B122B0AD10268136843F48073136077
:1011700004E02268136843F48073136000962B46E2
:1011800000224FF001112046FFF751FF18BB2369E1
:10119000B3F5804F11D02268FB1103F0060343F032
:1011A000F003136133462A460E492046FFF777FFC6
:1011B000A8B92368FFB21F6103E0236807F0FE07A8
:1011C0001F6133462A4608492046FFF768FF034659
:1011D00010B1012300E00123184603B0F0BD012344
:1011E000FAE700BF08000100020001002DE9F0410C
:1011F00084B004460D4616461F46C26A01680B6855
:1012000043F480630B60082A0DD0012A0BD012F53D
:10121000803F08D0036B112B0AD10268136843F496
:101220008073136004E02268136843F480731360D2
:101230000097334600224FF001112046FFF7F7FEDA
:10124000002848D12369B3F5804F10D023684FEAB6
:10125000E51808F0060848F0F0021A613B463246ED
:1012600020492046FFF71BFF80B1012334E02368AB
:1012700045F00105EDB21D613B4632461A49204654
:10128000FFF70DFF034638B3012325E02368EDB2D5
:101290001D613B46324614492046FFF700FF08B166
:1012A000012319E000220392236859690391996987
:1012B00003910399196841F48071196000973346CE
:1012C0004FF001112046FFF7B2FE48B9226848F0FE
:1012D000F1031361D0E70123184604B0BDE8F081A3
:1012E0000123F9E7080001000200010070B504467F
:1012F0000D46164623685B6913F0800F1CD120460B
:10130000FFF77CFED0B9B5F1FF3FF3D0FFF726F928
:10131000801B854201D3002DECD1002323632022C2
:1013200084F83D2084F83E30226C42F02002226492
:1013300084F83C30012070BD002070BD012070BDDC
:1013400070B504460D46164623685B6913F0040F1A
:101350001CD12046FFF752FED0B9B5F1FF3FF3D0C4
:10136000FFF7FCF8801B854201D3002DECD1002350
:101370002363202284F83D2084F83E30226C42F022
:101380002002226484F83C30012070BD002070BD32
:10139000012070BD70B505460C4616462B685A698B
:1013A00012F0400F29D15A6912F0100F15D1FFF732
:1013B000D5F8801BA04201D8002CEFD100232B636D
:1013C000202285F83D2085F83E302A6C42F020022C
:1013D0002A6485F83C30012070BD6FF010025A611C
:1013E00000232B63202285F83D2085F83E302A6CAF
:1013F0002A6485F83C30012070BD002070BD0000DB
:10140000002800F0BE80F8B5044690F83D30002B6F
:101410006BD0242384F83D302268136823F0010345
:10142000136000F0A1FE6268584B9A4262D8584B94
:1014300098428CBF00230123002B40F0A480554B21
:10144000A3FB00239A0C21684B6823F03F0313434E
:101450004B602568296A21F03F0166684B4B9E422C
:101460004ED8531C0B432B622268D16921F44F41A3
:1014700021F0FF016368454DAB424BD801385B005A
:10148000B0FBF3F30133C3F30B03042B38BF042386
:101490000B43D36121680B6823F0C003E269206A23
:1014A000024313430B6021688B6823F4034323F04A
:1014B000FF032269E068024313438B602168CB6815
:1014C00023F0FF036269A06902431343CB602268E3
:1014D000136843F00103136000202064202384F884
:1014E0003D30206384F83E00F8BD80F83C3002F0C7
:1014F0000DFF8EE7284B98428CBF002301239BE70A
:101500004FF4967303FB02F3244AA2FB03239B09C7
:101510000133A7E7A668BEB9451E03EB4307B5FB39
:10152000F7F50135C5F30B05B5FA85F56D0935BB42
:10153000C6B9013803EB4303B0FBF3F30133C3F344
:101540000B0343F40043A3E7451E03EB830707EBBC
:101550008707B5FBF7F50135C5F30B05B5FA85F53A
:101560006D09E4E7013803EB830303EB8303B0FB6E
:10157000F3F30133C3F30B0343F4404388E7012340
:1015800086E7012070470120F8BD00BFA08601005A
:101590007F841E0083DE1B43FF083D00D34D621095
:1015A0002DE9F04184B004460D4690461F46FEF7F3
:1015B000D5FF94F83D30DBB2202B04D0022528461D
:1015C00004B0BDE8F08106460090192301224F497E
:1015D0002046FFF72CFD08B10225F0E794F83C30D7
:1015E000012B00F08E80012384F83C3023681A68B8
:1015F00012F0010F03D11A6842F001021A6022684A
:10160000136823F400631360212384F83D30102312
:1016100084F83E3000232364C4F824806785638DFA
:1016200023853B4BE36233460A9A29462046FFF75F
:1016300089FD0546002866D10023039323685A6973
:1016400003929B690393039B12E0236C042B01D04C
:101650000125B4E72268136843F400731360012581
:10166000ADE732460A992046FFF76AFE00282ED1E0
:10167000238D002B37D032460A992046FFF736FEDD
:101680000028E2D12368626A12781A61616A4B1CF1
:101690006362638D9BB2013B9BB26385238D013BEB
:1016A0009BB223852268506910F0040FD9D0002B1B
:1016B000D7D04B781361636A01336362638D9BB249
:1016C000013B9BB26385238D013B2385C9E7236CD6
:1016D000042B01D0012572E72268136843F40073DC
:1016E000136001256BE72268136843F400731360ED
:1016F000202384F83D30002384F83E3084F83C30C9
:101700005DE702255BE7012559E700BF02001000F5
:101710000000FFFF2DE9F04186B004460D469046DB
:101720001F46FEF71BFF94F83D30DBB2202B04D0A0
:101730000225284606B0BDE8F08106460090192330
:10174000012288492046FFF772FC08B10225F0E724
:1017500094F83C30012B00F03D81012384F83C30AB
:1017600023681A6812F0010F03D11A6842F00102CF
:101770001A602268136823F400631360222384F83C
:101780003D30102384F83E3000232364C4F82480C5
:101790006785638D2385744BE36233460C9A294633
:1017A0002046FFF723FD0546002840F01581238DD4
:1017B0005BB9029323685A6902929A690292029A6B
:1017C0001A6842F400721A607AE0012B0FD0022BE3
:1017D0001FD02268136843F48063136000230593CD
:1017E00023685A6905929B690593059B68E0226806
:1017F000136823F4806313600023039323685A69FA
:1018000003929A690392039A1A6842F400721A606A
:1018100056E02268136823F480631360226813681B
:1018200043F4006313600023049323685A6904920D
:101830009B690493049B43E032460C992046FFF7D2
:10184000A9FD002840F0CA80636A226812691A70F4
:10185000636A01336362238D013B2385638D9BB2F1
:10186000013B9BB263852BE000960C9B00223F4915
:101870002046FFF7DCFB002840F0B28022681368A6
:1018800043F400731360636A226812691A70626A13
:10189000531C6362238D013B2385638D9BB2013B07
:1018A0009BB2638523681B695370636A013363626B
:1018B000238D013B2385638D9BB2013B9BB26385E6
:1018C000238D002B7DD0032B52D8012BB4D0022BBB
:1018D000CAD000960C9B002224492046FFF7A7FBA4
:1018E00000287FD12268136823F480631360636A41
:1018F000226812691A70636A01336362238D013BA7
:101900002385638D9BB2013B9BB2638500960C9B44
:10191000002216492046FFF78AFB002864D122687E
:10192000136843F400731360636A226812691A70C3
:10193000626A531C6362238D013B2385638D9BB2D6
:10194000013B9BB2638523681B695370636A013353
:101950006362238D013B2385638D9BB2013B9BB268
:101960006385ADE7020010000000FFFF04000100E6
:1019700032460C992046FFF70DFD002836D1636AE8
:10198000226812691A70626A531C6362238D013BDC
:101990002385638D9BB2013B9BB2638523685969A4
:1019A00011F0040F8CD01B695370636A01336362BA
:1019B000238D013B2385638D9BB2013B9BB26385E5
:1019C0007EE7202384F83D30002384F83E3084F8FD
:1019D0003C30AEE60225ACE60125AAE60125A8E6E4
:1019E0000125A6E60125A4E60125A2E60125A0E63B
:1019F00090F83D30DBB2202B01D002207047242329
:101A000080F83D300268136823F001031360026818
:101A1000536A23F0100353620268536A19435162F8
:101A20000268136843F001031360202380F83D30FF
:101A30000020704790F83D30DBB2202B01D002200F
:101A40007047242380F83D300268136823F00103B7
:101A500013600268536A9BB223F00F03194389B2E3
:101A600051620268136843F001031360202380F879
:101A70003D3000207047F0B58BB0002800F08A8020
:101A80000446056890F8BD3323B3032384F8BD33BF
:101A9000EB6B13F4807F01D100232361206800F0F9
:101AA0002CFF254655F8107B6E460FCD0FC60FCD87
:101AB0000FC695E8030086E80300231D0ECB3846C9
:101AC00000F0D6FE58B1022384F8BD330125284624
:101AD0000BB0F0BD80F8BC3302F068FFD5E7002101
:101AE000206800F010FF002315E0D900C81A82001A
:101AF0002244012082F83D0082F83C30A2F84230B6
:101B0000002082F83F0050649064CA1A910021447A
:101B100008650133DBB26568AB42E6D3002315E00C
:101B2000D800C11A8A002244002182F8FD1182F8EF
:101B3000FC3182F8FF11C2F80412C2F80812C21A6E
:101B400090002044C0F810120133DBB29D42E7D868
:101B5000254655F8107B6E460FCD0FC60FCD0FC62C
:101B600095E8030086E80300231D0ECB384600F0FD
:101B700011FF054620B1022384F8BD330125A6E7F5
:101B8000002384F83830012384F8BD33206800F046
:101B9000D1FF9CE701259AE7002800F0BB8170B5D2
:101BA00082B00446036813F0010F3BD0A74B9B683B
:101BB00003F00C03042B2CD0A44B9B6803F00C0304
:101BC000082B21D06368B3F5803F4FD0B3F5A02F29
:101BD00052D09E4B1A6822F480321A601A6822F49E
:101BE00080221A606368002B50D0FEF7B7FC0546D0
:101BF000964B1B6813F4003F14D1FEF7AFFC401B5B
:101C00006428F5D903208AE1904B5B6813F4800FB8
:101C1000D8D08E4B1B6813F4003F03D06368002BB1
:101C200000F07A81236813F0020F55D0874B9B6830
:101C300013F00C0F3ED0854B9B6803F00C03082B70
:101C400033D0E368002B68D00122814B1A60FEF785
:101C500085FC05467D4B1B6813F0020F54D1FEF73F
:101C60007DFC401B0228F5D9032058E1774A136810
:101C700043F480331360B5E7744B1A6842F4802252
:101C80001A601A6842F480321A60ABE7FEF766FC0D
:101C900005466E4B1B6813F4003FC3D0FEF75EFC95
:101CA000401B6428F5D9032039E1684B5B6813F4C5
:101CB000800FC6D1654B1B6813F0020F04D0E36898
:101CC000012B01D001202AE1604A136823F0F803B8
:101CD000216943EAC1031360236813F0080F40D061
:101CE000636963B301225B4B1A60FEF737FC05465C
:101CF000564B5B6F13F0020F33D1FEF72FFC401BE6
:101D00000228F5D903200AE1504A136823F0F803AA
:101D1000216943EAC1031360DEE700224C4B1A60DD
:101D2000FEF71CFC0546494B1B6813F0020FD3D08D
:101D3000FEF714FC401B0228F5D90320EFE0002237
:101D4000444B1A60FEF70AFC0546404B5B6F13F0EC
:101D5000020F06D0FEF702FC401B0228F5D9032033
:101D6000DDE0236813F0040F79D0384B1B6C13F0BF
:101D7000805F33D100230193344B1A6C42F08052C0
:101D80001A641B6C03F080530193019B0125324BB5
:101D90001B6813F4807F23D0A368012B34D0052B5C
:101DA00038D02A4B1A6F22F001021A671A6F22F0FC
:101DB00004021A67A368002B36D0FEF7CFFB064655
:101DC000224B1B6F13F0020F48D1FEF7C7FB801B9D
:101DD00041F288339842F3D90320A0E00025D6E7EA
:101DE0001D4A136843F480731360FEF7B7FB064681
:101DF000194B1B6813F4807FCED1FEF7AFFB801B1D
:101E00000228F5D903208AE0104A136F43F001033A
:101E10001367CFE70D4B1A6F42F004021A671A6F6F
:101E200042F001021A67C5E7FEF798FB0646074B2A
:101E30001B6F13F0020F11D0FEF790FB801B41F2D5
:101E400088339842F3D9032069E000BF003802408C
:101E500000004742800E474200700040E5B9A36988
:101E6000002B5BD0304A926802F00C02082A58D04E
:101E7000022B17D000222D4B1A60FEF76FFB044691
:101E8000294B1B6813F0007F42D0FEF767FB001B55
:101E90000228F5D9032042E0234A136C23F0805333
:101EA0001364DCE70022214B1A60FEF757FB05465E
:101EB0001D4B1B6813F0007F06D0FEF74FFB401B45
:101EC0000228F5D903202AE0E369226A1343626AF3
:101ED00043EA8213A26A5208013A43EA0243E26AE1
:101EE00043EA0263104A53600122104B1A60FEF766
:101EF00035FB04460C4B1B6813F0007F06D1FEF740
:101F00002DFB001B0228F5D9032008E0002006E085
:101F1000002004E001207047012000E0002002B012
:101F200070BD0120FBE700BF00380240600047425F
:101F3000F8B5314B9B6803F00C03042B59D0082BE8
:101F400001D02E48F8BD2C4B5A6802F03F025B6866
:101F500013F4800F2AD0284B5B68C3F388131E4606
:101F600000275C010025E41A65EB0705A90141EA99
:101F70009461A001001B61EB0501CB0043EA5073A3
:101F8000C400A01943EB07014B0243EAD0534402BB
:101F9000204619460023FEF733F9174B5B68C3F35D
:101FA000014301335B00B0FBF3F0F8BD124B5B68FB
:101FB000C3F388131E4600275C010025E41A65EB75
:101FC0000705A90141EA9461A001001B61EB05012D
:101FD000CB0043EA5073C400A01943EB07018B0206
:101FE00043EA90538402204619460023FEF708F97D
:101FF000D3E70348F8BD00BF003802400024F400D6
:1020000000127A00002800F09D8070B504464F4B06
:102010001B6803F00F038B4209D2CBB24B4A1370FB
:10202000136803F00F03994201D0012070BD2368AB
:1020300013F0020F17D013F0040F04D0444A936832
:1020400043F4E0539360236813F0080F04D0404A30
:10205000936843F4604393603D4A936823F0F00330
:10206000A068034393600D46236813F0010F32D03C
:102070006368012B21D09A1E012A25D9344A12689F
:1020800012F0020F60D032498A6822F00302134333
:102090008B60FEF763FA06462D4B9B6803F00C033A
:1020A0006268B3EB820F16D0FEF758FA801B41F23C
:1020B00088339842F0D9032070BD254A126812F483
:1020C000003FE0D1012070BD214A126812F0007F6C
:1020D000D9D1012070BD1D4B1B6803F00F039D4239
:1020E00009D2EAB2194B1A701B6803F00F039D4224
:1020F00001D0012070BD236813F0040F06D0144AEC
:10210000936823F4E053E1680B439360236813F072
:10211000080F07D00E4A936823F46043216943EA0D
:10212000C1039360FFF704FF094B9B68C3F30313DC
:10213000084AD35CD840084B1860002002F00EFA21
:10214000002070BD01207047012070BD003C02409E
:1021500000380240344C000808000020014B186889
:10216000704700BF0800002008B5FFF7F7FF044BD9
:102170009B68C3F38223034AD35CD84008BD00BFE9
:1021800000380240444C000808B5FFF7E7FF044B55
:102190009B68C3F34233034AD35CD84008BD00BFF9
:1021A00000380240444C00080F2303600B4B9A6830
:1021B00002F0030242609A6802F0F00282609A68BC
:1021C00002F4E052C2609B68DB0803F4E053036151
:1021D000034B1B6803F00F030B607047003802408D
:1021E000003C024070470268D36843F00103D360AB
:1021F0000268936803F00703062B03D0136843F0CB
:1022000001031360002070477047704770477047A4
:1022100010B5044603681A6912F0020F11D0DA688B
:1022200012F0020F0DD06FF002021A610123037742
:1022300003689B6913F0030F70D0FFF7E6FF0023DC
:10224000237723681A6912F0040F12D0DA6812F0AB
:10225000040F0ED06FF004021A6102232377236863
:102260009B6913F4407F5FD02046FFF7CEFF002329
:10227000237723681A6912F0080F12D0DA6812F077
:10228000080F0ED06FF008021A6104232377236829
:10229000DB6913F0030F4ED02046FFF7B6FF002393
:1022A000237723681A6912F0100F12D0DA6812F03F
:1022B000100F0ED06FF010021A61082323772368E5
:1022C000DB6913F4407F3DD02046FFF79EFF0023DB
:1022D000237723681A6912F0010F03D0DA6812F02D
:1022E000010F36D123681A6912F0800F03D0DA6823
:1022F00012F0800F34D123681A6912F0400F03D016
:10230000DA6812F0400F32D123681A6912F0200FF8
:1023100003D0DA6812F0200F30D110BDFFF774FF40
:102320002046FFF773FF8AE72046FFF76DFF204640
:10233000FFF76CFF9BE72046FFF766FF2046FFF79D
:1023400065FFACE72046FFF75FFF2046FFF75EFF23
:10235000BDE76FF001021A61204602F0C7F8C1E73D
:102360006FF080021A61204600F090F8C3E76FF02A
:1023700040021A612046FFF74AFFC5E76FF02002CE
:102380001A61204600F081F8C7E700000368314A6F
:10239000904212D0B0F1804F0FD0A2F57C42904213
:1023A0000BD002F58062904207D002F58062904225
:1023B00003D002F57842904203D123F070034A68BB
:1023C0001343244A90422AD0B0F1804F27D0A2F57F
:1023D0007C42904223D002F5806290421FD002F5E9
:1023E000806290421BD002F57842904217D002F5ED
:1023F0007052904213D002F5806290420FD002F5E5
:10240000806290420BD0A2F59832904207D002F53C
:102410008062904203D002F58062904203D123F49F
:102420004073CA68134323F080034A69134303606F
:102430008B68C3620B688362064B984206D003F533
:102440008063984202D00123436170470B690363A4
:10245000F9E700BF00000140A8B110B5044690F8AC
:102460003D305BB1022384F83D30211D2068FFF729
:102470008DFF012384F83D30002010BD80F83C30F2
:10248000FFF7B0FEEEE7012070477047704700008D
:102490002DE9F04704460268136923F44053C168EC
:1024A0000B43136183680269134342691343C26992
:1024B00013430168CA6822F4164222F00C02134347
:1024C000CB600268536923F4407381690B43536105
:1024D000C369B3F5004F62D0D0F80080BB4B98457C
:1024E00000F01B8103F58063984500F01681FFF72B
:1024F0003BFE00EB800000EB80006568AD00B0FBA8
:10250000F5F5B34FA7FB05356D092E01FFF72CFE3E
:1025100000EB800000EB80006568AD00B0FBF5FAD1
:10252000FFF722FE00EB800000EB80006568AD0045
:10253000B0FBF5F5A7FB05356D094FF0640909FB04
:1025400015A52D013235A7FB05356D0905F0F00500
:102550003544FFF709FE00EB800000EB8000666861
:10256000B600B0FBF6F6FFF7FFFD00EB800000EBD6
:10257000800063689B00B0FBF3F0A7FB00304009CC
:1025800009FB10694FEA091909F13209A7FB09375C
:10259000C7F343172F44C8F80870BDE8F087D0F898
:1025A000008003F1804303F5104398455CD003F5A8
:1025B0008063984558D0FFF7D7FD00EB800000EB13
:1025C000800065686D00B0FBF5F5814FA7FB053510
:1025D0006D092E01FFF7C8FD00EB800000EB8000C5
:1025E00065686D00B0FBF5FAFFF7BEFD00EB8000FB
:1025F00000EB800065686D00B0FBF5F5A7FB0535C5
:102600006D094FF0640909FB15A5ED003235A7FBF4
:1026100005356D096D0005F4F8753544FFF7A4FD27
:1026200000EB800000EB800066687600B0FBF6F6F9
:10263000FFF79AFD00EB800000EB800063685B0011
:10264000B0FBF3F3A7FB03235B0909FB13694FEA14
:10265000C90909F13209A7FB0937C7F342172F440B
:10266000C8F80870BDE8F087FFF78EFD00EB80002A
:1026700000EB800065686D00B0FBF5F5544FA7FBDB
:1026800005356D092E01FFF77FFD00EB800000EBA3
:10269000800065686D00B0FBF5FAFFF775FD00EB93
:1026A000800000EB800065686D00B0FBF5F5A7FBCE
:1026B00005356D094FF0640909FB15A5ED003235AC
:1026C000A7FB05356D096D0005F4F8753544FFF776
:1026D0005BFD00EB800000EB800066687600B0FBDD
:1026E000F6F6FFF751FD00EB800000EB8000636819
:1026F0005B00B0FBF3F3A7FB03235B0909FB136942
:102700004FEAC90909F13209A7FB0937C7F3421794
:102710002F44C8F80870BDE8F087FFF735FD00EBDF
:10272000800000EB80006568AD00B0FBF5F5284F38
:10273000A7FB05356D092E01FFF726FD00EB800094
:1027400000EB80006568AD00B0FBF5FAFFF71CFDFB
:1027500000EB800000EB80006568AD00B0FBF5F594
:10276000A7FB05356D094FF0640909FB15A52D017F
:102770003235A7FB05356D0905F0F0053544FFF747
:1027800003FD00EB800000EB80006668B600B0FB44
:10279000F6F6FFF7F9FC00EB800000EB80006368C1
:1027A0009B00B0FBF3F3A7FB03235B0909FB136951
:1027B0004FEA091909F13209A7FB0937C7F3431793
:1027C0002F44C8F80870BDE8F08700BF0010014032
:1027D0001F85EB5158B310B5044690F839300BB350
:1027E000242384F839302268D36823F40053D3605B
:1027F0002046FFF74DFE2268136923F490431361CE
:102800002268536923F02A0353612268D36843F492
:102810000053D3600020E063202384F8393084F82B
:102820003A3010BD80F8383002F06AF8D8E701205D
:1028300070470000002301330C4A934211D802690B
:10284000002AF8DA036943F001030361002301332E
:10285000064A934207D8026912F0010FF7D100200F
:102860007047032070470320704700BF400D0300EE
:1028700084B010B5044603A880E80E00089B012B25
:102880000DD0E36843F04003E3602046FFF7D2FF3A
:102890000C9B23BBA36B43F48033A36313E0A36BB4
:1028A00023F48033A363E36823F4840323F0400319
:1028B000E360E36823F44013E3600F9B012B09D02E
:1028C0002046FFF7B7FF069B012B0DD0BDE8104057
:1028D00004B07047E36843F48013E360F0E7A36B50
:1028E00023F48033A363EEE7A36843F00603A360F9
:1028F000A36843F02003A360E8E7836823F00103A3
:1029000083600020704708B5C36823F0C043C360EC
:10291000012909D069B9C36843F08043C3603220FC
:10292000FDF722FE002008BDC36843F00053C360DA
:10293000F5E7012008BD0000890141F02001016197
:1029400000230133054A934205D8026912F0200F93
:10295000F7D1002070470320704700BF400D0300EF
:102960001023036100230133054A934205D802690D
:1029700012F0100FF7D1002070470320704700BFFE
:10298000400D0300D0F800381943C0F800180020AB
:102990007047000084B02DE9F041044607A880E8A4
:1029A0000E002546002306E003F1400204EB8202FC
:1029B0000021516001330E2BF6D9119B73BBA36B21
:1029C00043F40013A363A36B23F40023A363A36B5B
:1029D00023F48023A3630023C4F8003E04F50066BB
:1029E000D4F80038C4F800380C9B012B1FD0032109
:1029F0002046FFF7C7FF10212046FFF79DFF8046C6
:102A000008B14FF001082046FFF7AAFF08B14FF0C8
:102A10000108002333617361F3611FE0236823F42D
:102A200000132360A36B43F40023A363D3E7099B44
:102A300023B900212046FFF7A5FFDCE7012120464E
:102A4000FFF7A0FFD7E7C3B94FF00060C2F8000955
:102A500000220A614FF67F328A60013307998B4268
:102A600010D205EB431202F51061D2F800090028DC
:102A7000E9DB0020C2F80009EAE74FF09040C2F815
:102A80000009E5E700230AE0BBB14FF09047C2F828
:102A9000007B002202614FF67F32826001338B425D
:102AA00010D205EB431202F53060D2F8007B002F04
:102AB000EADB0027C2F8007BEBE74FF00067C2F8C3
:102AC000007BE6E7336923F4807333610A9B012BB3
:102AD0001BD00022A2616FF0804262611BB9A36922
:102AE00043F01003A361A269104B1343A3610D9B34
:102AF0001BB1A36943F00803A361119B012B0DD007
:102B00004046BDE8F04104B07047094A3263326B79
:102B100042F4803242F003023263DAE7A36943F001
:102B2000804343F00403A361EAE700BF00383C8020
:102B30000001800008B5D0F8043843F00203C0F863
:102B400004380320FDF710FD002008BD842801D0C3
:102B5000033070470020704708B500F0FFFD0020EB
:102B600008BD2DE9F04387B004460F464569BDB165
:102B70008669AEB1D0F80480D0F80090B0F90800B2
:102B8000FFF7E4FF22690296019500903B46494613
:102B9000404600F077FD0590059807B0BDE8F0834A
:102BA00065682668D4F81080B4F90800FFF7CEFFF6
:102BB00005AB019300903B461FFA88F23146284648
:102BC00000F099FD0128E7D00020E6E708B50346AC
:102BD00000B90123184600F013FF002008BD10B50E
:102BE00082B082684AB1C3683BB141680068002482
:102BF000009400F049FB02B010BD0022416800685B
:102C000000F092FBF7E700F1080343604FF0FF325A
:102C10008260C36003610023036070470023036187
:102C2000704743684B609A688A609A6851609960FF
:102C30000861036801330360704730B40D68B5F173
:102C4000FF3F02D000F1080202E0026904E01A46E8
:102C500053681C68A542FAD253684B6099608A6039
:102C60005160086103680133036030BC7047036939
:102C70004268816891608268416851605A689042F8
:102C800006D0002202611A68013A1A60186870477B
:102C900082685A60F5E7000082B0002301930D4B73
:102CA0001B68B3F1FF3F08D04FF0500383F3118846
:102CB000BFF36F8FBFF34F8FFEE74FF0500383F3E7
:102CC0001188BFF36F8FBFF34F8F019B002BFCD098
:102CD00002B070470400002008480068006880F3D4
:102CE00008884FF0000080F3148862B661B6BFF325
:102CF0004F8FBFF36F8F00DF00BF000008ED00E0D3
:102D0000DFF80C00016841F47001016070470000B9
:102D100088ED00E04FF0807340F8043C21F00101A1
:102D200040F8081C054B40F80C3C40F8202C6FF094
:102D3000020340F8243C4438704700BF992C000837
:102D4000074B19680868B0E8F04F80F30988BFF3B3
:102D50006F8F4FF0000080F311887047AFF3008051
:102D6000483C00204FF0500383F31188BFF36F8F6E
:102D7000BFF34F8F0A4A136801331360012B0DD143
:102D8000084B1B6813F0FF0F08D04FF0500383F37C
:102D90001188BFF36F8FBFF34F8FFEE7704700BFFF
:102DA0000400002004ED00E0094B1B6843B94FF01C
:102DB000500383F31188BFF36F8FBFF34F8FFEE78C
:102DC000013B034A13600BB983F31188704700BFBE
:102DD00004000020000000000000000000000000CF
:102DE000EFF30980BFF36F8F154B1A681EF0100FB9
:102DF00008BF20ED108A20E9F04F10602DE909008E
:102E00004FF0500080F31188BFF34F8FBFF36F8FE7
:102E100000F01EFE4FF0000080F3118809BC196815
:102E20000868B0E8F04F1EF0100F08BFB0EC108A31
:102E300080F30988BFF36F8F704700BFAFF3008046
:102E4000483C002008B54FF0500383F31188BFF3CE
:102E50006F8FBFF34F8F00F0C5FC18B14FF0805259
:102E6000024B1A60002383F3118808BD04ED00E0D3
:102E7000084A0023136008490B60084B1B68084987
:102E8000A1FB03139B09013B06490B600723136059
:102E9000704700BF10E000E018E000E008000020EC
:102EA000D34D621014E000E03A4B1A683A4B9A4254
:102EB00008D14FF0500383F31188BFF36F8FBFF336
:102EC0004F8FFEE7334B1A68344B9A4208D14FF0CC
:102ED000500383F31188BFF36F8FBFF34F8FFEE76B
:102EE00010B582B02E4B1A78D2B20192FF221A701E
:102EF0001B78DBB28DF803309DF8033003F05003EC
:102F0000284A13700722284B1A6009E0264A1368E2
:102F1000013B13609DF803305B00DBB28DF803309A
:102F20009DF8033013F0800FF0D11F4B1B68032B6B
:102F300008D04FF0500383F31188BFF36F8FBFF3B6
:102F40004F8FFEE71B0203F4E063174A1360019BF7
:102F5000DBB2134A1370154B1A6842F470021A6000
:102F60001A6842F070421A60FFF782FF0024104B8B
:102F70001C60FFF7C5FE0F4A136843F0404313601F
:102F8000FFF7AAFE00F064FDFFF786FE204602B0C0
:102F900010BD00BF00ED00E071C20F4170C20F41D3
:102FA00000E400E0280000202C00002020ED00E0DC
:102FB0000400002034EF00E0124A12F0070F1ED088
:102FC000D11D21F00701C1F5705313440A460E4884
:102FD0000260002141601344083B23F007030B48C3
:102FE000036059601960991A51601360084B1960A9
:102FF000084B19604FF00042074B1A6070474FF4BE
:103000007053E4E734000020403C002030000020F2
:103010003C3C0020383C0020343C002010B4134BD2
:103020001A6882421BD359685C18A04203D14068D9
:1030300001445960184641684418A24213D10C4C0F
:103040002468A2420DD05268114441601A68126887
:103050000260984200D018605DF8044B7047134638
:10306000DEE70460F5E70260F3E700BF403C0020C4
:103070003000002070B5044600F0ACFB3A4B1B68F2
:10308000BBB13A4B1B681C4263D1ACB1083414F09D
:10309000070F11D024F00704083404F007035BB1D4
:1030A0004FF0500383F31188BFF36F8FBFF34F8F3F
:1030B000FEE7FFF781FFE4E7002C4CD02C4B1B68A8
:1030C0009C424AD82B4B1D6801E02B4615466A6886
:1030D000944202D92A68002AF7D1234A12689542FD
:1030E0003DD01E6808362A681A606B681B1B102BBF
:1030F00010D9281910F0070F08D04FF0500383F3B0
:103100001188BFF36F8FBFF34F8FFEE743606C6092
:10311000FFF784FF6A6816490B689B1A0B60164913
:1031200009688B4201D214490B60104B1B68134392
:103130006B6000232B6000F0E5FB16F0070F10D04A
:103140004FF0500383F31188BFF36F8FBFF34F8F9E
:10315000FEE70026EFE70026EDE70026EBE7002676
:10316000E9E7304670BD00BF30000020343C00204D
:10317000383C0020403C00203C3C002080B338B567
:103180000446A0F1080550F8042C164909680A42C3
:1031900008D14FF0500383F31188BFF36F8FBFF353
:1031A0004F8FFEE750F8080C40B14FF0500383F307
:1031B0001188BFF36F8FBFF34F8FFEE722EA010242
:1031C00044F8042C00F006FB54F8041C064A13686B
:1031D0000B4413602846FFF721FF00F093FB38BD36
:1031E000704700BF343C0020383C002038B530B375
:1031F00004460D46FFF7B6FD2168E26B236C03FB26
:10320000021060600020A063A160013A02FB03137A
:10321000E360FF2384F8443084F84530C5B923695E
:10322000F3B104F1100000F061FCC8B14FF080521E
:103230000D4B1A60BFF34F8FBFF36F8F10E04FF04D
:10324000500383F31188BFF36F8FBFF34F8FFEE7F7
:1032500004F11000FFF7D7FC04F12400FFF7D3FCC2
:10326000FFF7A2FD012038BD04ED00E010B5029B80
:103270000C4639B11A60D8631C6401211846FFF767
:10328000B5FF10BD1B60F6E740B94FF0500383F364
:103290001188BFF36F8FBFF34F8FFEE710B584B077
:1032A000044663B1A2B1A9B10120A8B94FF05003FF
:1032B00083F31188BFF36F8FBFF34F8FFEE74FF09B
:1032C000500383F31188BFF36F8FBFF34F8FFEE777
:1032D0000120EAE70020E8E70AB901B1002040B97F
:1032E0004FF0500383F31188BFF36F8FBFF34F8FFD
:1032F000FEE7482003900398482808D04FF0500379
:1033000083F31188BFF36F8FBFF34F8FFEE7204623
:103310001C46012384F8463000949DF81830FFF7CE
:10332000A5FF204604B010BD40B94FF0500383F311
:103330001188BFF36F8FBFF34F8FFEE7F0B583B0F7
:10334000064611B101FB00F000E0002017460C46D4
:103350004830FFF78FFE054650B1002380F8463015
:1033600000903B4600F1480221463046FFF77EFFC1
:10337000284603B0F0BD00000A4B1B681B684BB920
:1033800001234BB9074B1B68DB68DB685A68064BA7
:103390001A6070470023F4E74FF0FF32024B1A60C7
:1033A000704700BF4C3C0020203D00202DE9F04735
:1033B00080469946089D099F0A9C266B02F180422F
:1033C000013A06EB820626F0070600230F2B07D8EA
:1033D000C85CE21882F83400CA5C0AB10133F5E730
:1033E000002384F84330062D00D90625E562656484
:1033F0004FF0000AC4F848A0201DFFF70FFC04F1AD
:103400001800FFF70BFC2461C5F10705A561646294
:10341000C4F84CA084F850A04A4641463046FFF715
:1034200079FC206007B13C60BDE8F08738B5002426
:1034300007E004EB840293000E481844FFF7E3FB17
:103440000134062CF5D90C4D2846FFF7DCFB0B4C5C
:103450002046FFF7D8FB0A48FFF7D5FB0948FFF7DE
:10346000D2FB0948FFF7CFFB084B1D60084B1C60DF
:1034700038BD00BF543C0020F83C00200C3D00202B
:10348000283D0020543D0020403D00204C3C0020C1
:10349000503C002010B50446FFF764FC204A136836
:1034A000013313601F4B1B68002B31D01E4B1B6870
:1034B0003BB91C4B1B68DA6AE36A9A4201D8194B84
:1034C0001C601A4A136801331360E36A01229A40B0
:1034D0001749086802430A6003EB83039A00211D21
:1034E00014481044FFF79DFBFFF75EFC0E4B1B6872
:1034F0006BB10C4B1B68DA6AE36A9A4207D24FF051
:1035000080520D4B1A60BFF34F8FBFF36F8F10BD0A
:10351000044B1C601368012BD3D1FFF787FFD0E762
:10352000E03C0020483C00203C3D0020F03C0020D6
:10353000F43C0020543C002004ED00E010B50446AB
:1035400090F8513063B1012B11D0022B12D04FF003
:10355000500383F31188BFF36F8FBFF34F8FFEE7E4
:10356000006BFFF70BFE2046FFF708FE10BDFFF7CC
:1035700005FE10BD10BD00000F4B1B68D3B110B588
:10358000FFF7F0FB0D4BDB68DC68201DFFF76FFBDE
:103590000B4A1368013B1360074A1368013B136031
:1035A000FFF702FC2046FFF7C9FF034B1B68002B07
:1035B000E6D110BD704700BFE43C0020543D002020
:1035C000E03C002008B5FFF7D7FF064B1B68012B36
:1035D000F9D94FF08052044B1A60BFF34F8FBFF3FD
:1035E0006F8FF0E7543C002004ED00E070B5044616
:1035F0000E461D4B1D681D4B18680430FFF737FB46
:1036000050B91A4B1B68DA6A012303FA02F218490F
:103610000B6823EA02030B60B4F1FF3F13D02C4484
:10362000124B1B685C60A54216D8124B18680F4BF2
:1036300019680431FFF701FB0F4B1B689C4201D254
:103640000D4B1C6070BD002EE9D0084B1968043189
:103650000A48FFF7E6FA70BD094B1868034B196872
:103660000431FFF7EAFA70BD683D0020483C0020B5
:10367000F43C00204C3C0020203D0020403D002038
:10368000503C002070B586B00B9D0C9C75B1B4B158
:1036900054260496049E542E1AD04FF0500383F300
:1036A0001188BFF36F8FBFF34F8FFEE74FF05003CA
:1036B00083F31188BFF36F8FBFF34F8FFEE74FF097
:1036C000500383F31188BFF36F8FBFF34F8FFEE773
:1036D0002563022584F8515000250395029405AD19
:1036E00001950A9D0095FFF761FE2046FFF7D2FE87
:1036F000059806B070BD2DE9F04385B006460F462B
:10370000154698469000FFF7B5FC10B3814654204B
:10371000FFF7B0FC0446C0B1C0F83090DCB1002324
:1037200084F85130039302940D9B01930C9B0093FA
:1037300043462A4639463046FFF738FE2046FFF713
:10374000A9FE012005B0BDE8F0834846FFF716FD4D
:10375000E4E70024E2E74FF0FF30F3E710B588B06C
:1037600000240594069407AA06A905A800F092FC77
:10377000059B0293069B019300942346079A1049E8
:103780001048FFF77FFF18B101231BB908B010BD27
:103790000023FAE74FF0500383F31188BFF36F8FD4
:1037A000BFF34F8F4FF0FF32074B1A600122074BD8
:1037B0001A600022064B1A60FFF776FBE6E700BFAF
:1037C000784B0008C5350008203D00203C3D002016
:1037D000683D0020024A136801331360704700BF40
:1037E000EC3C0020F8B53C4B1B68002B68D13B4BF0
:1037F0001D6801351D60C5B9394B1B681B6843B195
:103800004FF0500383F31188BFF36F8FBFF34F8FD7
:10381000FEE7334A1168334B186810601960324A6A
:10382000136801331360FFF7A7FD304B1B689D42FF
:103830003AD200242E4B1B68DB6A03EB83039A0009
:103840002C4B9B58012B40D901243EE00124244BF2
:103850001B681B6853B3002353BB214B1B68DB68F9
:10386000DE6873689D4228D3371D3846FFF7FFF99D
:10387000B36A1BB106F11800FFF7F9F9F36A0122E8
:103880009A401D49086802430A6003EB83039A00CB
:10389000394618481044FFF7C4F9F26A144B1B6804
:1038A000DB6A9A42D2D2D2E70024D0E70123D3E7E1
:1038B0004FF0FF320D4B1A60BCE70C4A1360B9E7BA
:1038C0000E4A13680133136000240D4B1B6803B1CB
:1038D00001242046F8BD00BFEC3C0020683D0020DC
:1038E0004C3C0020503C0020243D0020203D002086
:1038F000483C0020543C0020F43C0020E83C0020E0
:103900006C3D002038B5354B1B6843B94FF0500370
:1039100083F31188BFF36F8FBFF34F8FFEE7FFF77D
:1039200021FA2E4B1A68013A1A601B68002B50D1FD
:103930002B4B1B6823B90024FFF736FA204638BD0D
:103940000024284B1B681BB3264BDB68DC6804F1A2
:103950001800FFF78CF9251D2846FFF788F9E36A60
:1039600001229A402049086802430A6003EB83035E
:103970009A0029461D481044FFF753F9E26A1C4B90
:103980001B68DB6A9A42DCD301221A4B1A60D8E723
:103990000CB1FFF7F1FC184B1C6874B9154B1B6890
:1039A000CBB14FF08052154B1A60BFF34F8FBFF36E
:1039B0006F8F0124C0E7013C07D0FFF713FF0028F9
:1039C000F9D001220B4B1A60F5E700220A4B1A606E
:1039D000E4E70024B0E70024AEE700BFEC3C0020A1
:1039E000E03C0020283D0020F43C0020543C002016
:1039F000483C00206C3D0020E83C002004ED00E045
:103A000010B5A8B10446104B1B6843B14FF05003EA
:103A100083F31188BFF36F8FBFF34F8FFEE7FFF77C
:103A2000D9FE00212046FFF7E1FDFFF76BFF00E024
:103A3000002038B94FF08052044B1A60BFF34F8F0B
:103A4000BFF36F8F10BD00BFEC3C002004ED00E021
:103A5000214B1B68C3B90022204B1A60204B1B6806
:103A6000B3FA83F3DBB2C3F11F0303EB83018A00D4
:103A70001C498A5862B94FF0500383F31188BFF391
:103A80006F8FBFF34F8FFEE70122144B1A60704710
:103A900010B414489A00D418A10001444C6864681A
:103AA0004C601A4491000831084484420BD003EB67
:103AB00083039A000B4B13445B68DA680A4B1A6065
:103AC0005DF8044B7047606803EB83029100054A80
:103AD0000A445060EBE700BFEC3C00206C3D002046
:103AE000F43C0020543C0020483C002038B5C3681A
:103AF000DC6824B304F118052846FFF7B8F8184B22
:103B00001B682BBB251D2846FFF7B1F8E36A01228D
:103B10009A401449086802430A6003EB83039A0041
:103B2000294611481044FFF77CF8E26A0F4B1B68E6
:103B3000DB6A9A4211D901200D4B186038BD4FF055
:103B4000500383F31188BFF36F8FBFF34F8FFEE7EE
:103B500029460848FFF765F8E7E7002038BD00BFB1
:103B6000EC3C0020F43C0020543C0020483C002069
:103B70006C3D0020283D002000B585B00023009357
:103B80000193029303931548154A02604FF4803263
:103B90004260836003610122027680F82030C362B4
:103BA00010498162C360C26180F830304261FCF725
:103BB00089FD68B903230093012301930023029335
:103BC00069460648FCF7AAFD28B905B05DF804FB74
:103BD00000F098FCEEE700F095FCF6E7D03F0020FF
:103BE000002001400100000F00B589B000230393BD
:103BF0000493059306930793026803F1804303F54A
:103C000090339A4202D009B05DF804FB0021019183
:103C100003F58C335A6C42F480725A645A6C02F485
:103C200080720192019A02911A6B42F001021A63AA
:103C30001B6B03F001030293029B082303930323EE
:103C4000049303A90148FDF7D3F8DCE70000024024
:103C500000B583B01248134B036001234360002377
:103C600003828DF8003080228DF80120E1228DF84A
:103C700002208DF803308DF804308DF80530C0F83F
:103C800014D08361C3614FF400030362FCF784FF27
:103C900010B903B05DF804FB00F034FCF9E700BF95
:103CA0002840002000800240F0B58DB0002307932B
:103CB000089309930A930B9302683D4B9A4201D0F3
:103CC0000DB0F0BD00240094A3F590431A6B42F0B0
:103CD00000721A631A6B02F000720092009A01944B
:103CE0001A6B42F080621A631A6B02F080620192D2
:103CF000019A02941A6B42F000621A631A6B02F086
:103D000000620292029A03941A6B42F004021A6350
:103D10001A6B02F004020392039A04941A6B42F0A5
:103D200001021A631A6B02F001020492049A0594CC
:103D30001A6B42F002021A631A6B02F00202059239
:103D4000059A06941A6B42F040021A631B6B03F04B
:103D500040030693069B3223079302270897032606
:103D60000A960B250B9507A91248FDF741F8862303
:103D70000793089709940A960B9507A90E48FDF733
:103D800037F84FF400530793089709940A960B9558
:103D900007A90A48FDF72CF84FF42053079308971A
:103DA00009940A960B9507A90548FDF721F887E7BE
:103DB000008002400008024000000240000402406F
:103DC0000018024008B50120FEF700FFFBE708B528
:103DD0000120FEF7FBFEFBE770B5A2B0D022274B17
:103DE0001A6000238DF848308DF8493013238DF880
:103DF0004A3008238DF84B3003E04FF47A70FEF719
:103E0000E5FE1F4B1B68002BF7D11E4800F042FD5A
:103E10001A4E31881C4C64250095012312AA2046B5
:103E2000FDF7BEFB31880095032302AA2046FDF76B
:103E300071FC9DF808100A0902EB8202530001F0A0
:103E40000F010B44114A13609DF80900010901EBB1
:103E500081014A0000F00F0002440D490A609DF8FC
:103E60000A40200900EB8000410004F00F042144C7
:103E700008480160084800F0CEFCBEE7184000206A
:103E800020400020804B000884400020CC3F0020D0
:103E900024400020C83F00208C4B0008F0B593B0B0
:103EA00001252E466EE06D4800F0F4FC00226C4BBC
:103EB0001A60012E01D03E4657E04FF0FF3654E025
:103EC000684800F0E7FC0022654B1A600135032DBD
:103ED0004BDD254649E0644800F0DCFC0024604BE3
:103EE0001C608DF80840614B1868614B83FB002112
:103EF000C217C2EBA102114602EB82025700C21B9D
:103F00000901C9B251FA82F28DF80920594A1068A4
:103F100083FB0021C217C2EBA102114602EB820211
:103F20005700C21B0901C9B251FA82F28DF80A206A
:103F3000514A116883FB0132CB17C3EBA2031A4627
:103F400003EB830358000B1A1201D2B252FA83F327
:103F50008DF80B30494B198864230093042302AA7F
:103F60004748FDF71DFB474B1C60404B1B68414A0F
:103F7000126841490968444800F04DFC4FF47A70DA
:103F8000FEF724FE3F4B1C68012CF7D13F4800F0A0
:103F900081FC334B1F687B1E042BE6D801A252F82C
:103FA00023F000BFA73E0008C13E0008D73E00082E
:103FB0006B3F0008B93F0008354800F06BFC002259
:103FC000274B1A60022D1AD0032D2FD0012DCCD1F2
:103FD000294A136833441360172B01DD012E0AD0E0
:103FE000254B1B68FF2BC0D1B6F1FF3FBDD1172277
:103FF000214B1A60B9E700221F4B1A60F0E71D4AF7
:104000001368334413603B2B01DD012E0AD0194B9A
:104010001B68FF2BA9D1B6F1FF3FA6D13B22154B60
:104020001A60A2E70022134B1A60F0E70F4A1368E8
:10403000334413603B2B01DD012E0AD00B4B1B6870
:10404000FF2B92D1B6F1FF3F8FD13B22074B1A6075
:104050008BE70022054B1A60F0E700BFB84B000861
:104060001C400020C84B0008D84B0008CC3F002063
:104070006766666624400020C83F00201840002084
:1040800084400020204000208C4B0008A84B0008F2
:10409000F04B0008034B0360034B0B60802313605D
:1040A000704700BF703F0020703D002070B5A0B089
:1040B000244C1CAD94E80F0085E80F000021284631
:1040C000FEF78DFD204B186015AD04F110060FCEE4
:1040D0000FC596E8070085E80700002115A8FEF740
:1040E00040FD1A4B18600EAD04F12C060FCE0FC523
:1040F00096E8070085E8070000210EA8FEF731FDCD
:10410000134B186007AD04F148060FCE0FC596E8B3
:10411000070085E80700002107A8FEF722FD0D4BE8
:1041200018606D4664340FCC0FC594E8070085E82D
:10413000070000216846FEF714FD074B186020B009
:1041400070BD00BFF84A00087C400020704000208D
:104150007440002080400020784000202DE9F0418C
:104160008CB000240794089409940A940B94019449
:10417000494B1A6B42F004021A631A6B02F00402F4
:104180000192019A02941A6B42F080021A631A6B30
:1041900002F080020292029A03941A6B42F001022A
:1041A0001A631A6B02F001020392039A04941A6BC9
:1041B00042F002021A631A6B02F002020492049A9D
:1041C00005941A6B42F008021A631A6B02F0080297
:1041D0000592059A06941A6B42F040021A631B6B13
:1041E00003F040030693069BDFF8C080224644F2AA
:1041F00081014046FCF7EEFE284D2246402128462C
:10420000FCF7E8FE4FF400530793254E08960994F7
:1042100007A92448FCF7ECFD44F28103079301272A
:10422000089709940A9407A94046FCF7E1FD40234A
:104230000793089709940A9407A92846FCF7D8FD24
:10424000802307930894099407A92846FCF7D0FD1A
:10425000F02307930896099407A91348FCF7C8FDB3
:10426000224605210A20FCF73DFB0A20FCF76CFBE7
:10427000224605211720FCF735FB1720FCF764FBCD
:10428000224605212820FCF72DFB2820FCF75CFBAB
:104290000CB0BDE8F08100BF0038024000180240B9
:1042A0000000111000080240000C0240000402400F
:1042B00008B51348134B0360134B4360002383601E
:1042C000C3604FF48042026143618361C361036252
:1042D000FDF796F850B900210948FDF789FB40B970
:1042E00000210748FDF7A6FB30B908BD00F00AF928
:1042F000F1E700F007F9F3E700F004F9F5E700BF94
:104300008440002000540040A086010030B589B0F0
:104310000023039304930593069307930268154BB8
:104320009A4201D009B030BD00250195124C236B93
:1043300043F002032363236B03F002030193019B09
:104340004FF4407303931223049301230593032333
:1043500006930423079303A90848FCF749FD029537
:10436000236C43F400132364236C03F400130293BF
:10437000029BD7E70054004000380240000402408E
:1043800080280ED0144B1B6853B120281CD013D9A1
:1043900040281DD0B0F5005F15D105220F4B1A60E3
:1043A00070470D4B1B681BB901220B4B1A60E9E7E4
:1043B0000022094B1A60E5E7102803D10122074BC0
:1043C0001A607047704770470222044B1A607047AA
:1043D0000322024B1A607047204000201C4000203E
:1043E00030B595B03022002108A800F071FB002400
:1043F0000394049405940694079401941C4B1A6C3E
:1044000042F080521A641B6C03F080530193019BAD
:104410000294184B1A6842F440421A601B6803F475
:1044200040430293029B012308934FF4A023099376
:1044300002250E954FF480030F9304231093A823B5
:10444000119312950723139308A8FDF7A5FB0F23DB
:104450000393049505944FF4A05306934FF48053AF
:104460000793052103A8FDF7CDFD15B030BD00BFB2
:10447000003802400070004008B5FCF749F8FFF72B
:10448000AFFFFFF76BFEFFF7E3FB00F01FFA00F052
:1044900071FAFFF771FBFFF70BFFFFF707FEFEF75F
:1044A0005BFBFEE730B400240AE000BF4FF060433E
:1044B0001B68002BF9D04FF0604319700134294676
:1044C000944210DA4D1C09784FF06043D3F8803ED7
:1044D00013F0010FF2D04FF06043D3F8003E13F019
:1044E000010FE3D1EAE7104630BC704708B5026817
:1044F000034B9A4200D008BDFCF724F8FBE700BF4D
:1045000000040140704708B5FEF7B4FD08BD08B5CA
:10451000FEF734FE08BD000000B583B00022009213
:104520000D4B596C41F480415964596C01F4804140
:10453000009100990192196C41F0805119641B6C33
:1045400003F080530193019B0F216FF00100FCF7F2
:10455000C9F903B05DF804FB0038024010B588B01B
:10456000002201462C20FCF7BDF92C20FCF7ECF9C9
:1045700000240194144B5A6C42F002025A645B6CA2
:1045800003F002030193019B02A903A8FDF70CFEAF
:10459000FDF7FAFD43000D48A0FB03239B0C013BF4
:1045A0000B480C4A026040F2E732C260436004618B
:1045B0008460FDF751FF10B1012008B010BD044820
:1045C000FDF711FEF9E700BF0038024083DE1B4310
:1045D000D8400020000401407047FEE7FEE7FEE7F8
:1045E000FEE7704708B51020FCF7FAFC08BD08B5D7
:1045F0002020FCF7F5FC4020FCF7F2FC8020FCF7C3
:10460000EFFC08BD08B54FF40050FCF7E9FC08BD0D
:1046100008B50248FDF7FCFD08BD00BFD8400020EA
:104620000F49D1F8883043F47003C1F888300D4B3E
:104630001A6842F001021A60002098601A6822F09D
:10464000847222F480321A60074A5A601A6822F48F
:1046500080221A60D8604FF000638B60704700BF03
:1046600000ED00E0003802401030002470B4012357
:1046700001E002FB03F3B1FBF3F49442F9D204E04E
:1046800005686E1C066030342C706BB1B1FBF3F41E
:1046900003FB141193FBF2F3092CF1DD05686E1C8A
:1046A000066037342C70F0E770BC704730B583B0CB
:1046B00001900C46009205463EE06378642B1CD0C6
:1046C0000DD9732B4AD016D9752B21D1009B1A1DF9
:1046D00000920A22196801A8FFF7C8FF2BE0582BA7
:1046E00018D0632B1FD0252B25D1019B5A1C01927A
:1046F00025221A701FE0692B1DD1009B1A1D009204
:104700001968002923DB0A2201A8FFF7AFFF12E096
:10471000782B10D1009B1A1D00921022196801A855
:10472000FFF7A4FF07E0019B5A1C0192009A111D9C
:10473000009112681A7002342378F3B1252BBCD093
:10474000019B5A1C019222781A700134F4E7494205
:10475000019B5A1C01922D221A70D4E7009B1A1D4E
:1047600000921B6805E0019A511C019119781170A3
:1047700001331A78002AF6D1DDE70022019B1A7076
:104780000198401B03B030BD82B003460191002068
:104790001DE0591C5B78583B202B37D8DFE803F02D
:1047A0003036363636363636363636111D363636ED
:1047B000361D36363636363636363623361D3636DE
:1047C0003000019B0433019301300B4601331A780A
:1047D000FAB1252ADDD00130F8E70B30019B043314
:1047E00001930B46F2E7019B1A1D01921B6801E041
:1047F000013013465A1C1B78002BF9D10B46E5E714
:104800000830019B043301930B46DFE701300B4670
:10481000DCE702B070470FB4F0B583B000AF07F12A
:10482000200151F8045B79602846FFF7ADFF04468C
:10483000312819DDFFF767FE064670B107F1240243
:104840007A602946FFF732FF024631460120FFF722
:1048500029FE04463046FFF75AFE20460C37BD4677
:10486000BDE8F04004B070476E46073424F00704FA
:10487000ADEB040D07F124027A6029466846FFF784
:1048800015FF024669460120FFF70CFE0446B546B7
:10489000E3E7000038B50546FBF7AAFC04460246EC
:1048A00029460120FFF7FEFD054601220649104674
:1048B000FFF7F8FD28440134A04201D1002038BDA3
:1048C0004FF0FF3038BD00BF4C4C000808B50A4817
:1048D0000A4B03604FF4E133436000238360C360FD
:1048E00003610C2242618361C361FDF773FF00B96C
:1048F00008BDFFF707FEFBE7184100200048004015
:1049000000B589B00023039304930593069307939E
:104910000268164B9A4202D009B05DF804FB0021F0
:10492000019103F5F8331A6C42F480221A641A6C70
:1049300002F480220192019A02911A6B42F008025D
:104940001A631B6B03F008030293029B4FF440733E
:104950000393022304930123059303230693072360
:10496000079303A90248FCF743FAD5E70048004043
:10497000000C024008B50C484FF0A043036004232C
:1049800043600222C2600023036182610122C2618E
:1049900003624362C2620363FDF76DF800B908BDAC
:1049A000FFF7B0FDFBE700BF5841002070B588B0AD
:1049B0000023039304930593069307930368B3F1CD
:1049C000A04F01D008B070BD00250195174C236B96
:1049D00043F001032363236B03F001030193019B65
:1049E0004FF4E853039302230493032306930A230B
:1049F00007930F4E03A93046FCF7FAF94FF4007302
:104A000003930495059503A93046FCF7F1F9636B10
:104A100043F0800363630295636C43F480436364F3
:104A2000636C03F480430293029BCBE7003802409F
:104A300000000240DFF834D0002103E00C4B5B584B
:104A4000435004310B480C4B42189A42F6D30B4AA0
:104A500002E0002342F8043B094B9A42F9D3FFF7E6
:104A6000DFFD00F011F8FFF707FD7047000003209D
:104A7000604C0008000000200C0000200C0000200A
:104A800060450020FEE7000070B50D4E0D4CA41BE4
:104A9000A4100025A54209D10B4E0C4C00F020F8C3
:104AA000A41BA4100025A54205D170BD56F82530E1
:104AB00098470135EEE756F8253098470135F2E77B
:104AC000584C0008584C0008584C00085C4C000832
:104AD00002440346934200D1704703F8011BF9E7F3
:104AE000F8B500BFF8BC08BC9E467047F8B500BFDB
:084AF000F8BC08BC9E467047AB
:104AF80006000000020000000000000000000000A6
:104B0800284C0008C53D0008000000000000000017
:104B18008000000000000000000000001C4C00089D
:104B2800CF3D0008FDFF00000000000080000000ED
:104B380000000000000000000C4C0008D93D0008EF
:104B4800FDFF0000000000008000000000000000E1
:104B580000000000FC4B00089D3E0008FDFF00001F
:104B680000000000800000000000000000000000BD
:104B780049444C45000000006D6F6465206E6F72FB
:104B88006D616C002D20256468202D2025646D69D9
:104B98006E202D202564736563202D0A0000000017
:104BA8006D6F6465207265676C6167650000000061
:104BB8006368616E67656D656E742073656E7300FA
:104BC8006368616D702073756976616E74000000AA
:104BD8006368616E67656D656E7420656E72656782
:104BE80069737472C3A9000076616C657572202BB5
:104BF8002B0000005461736B4D6F64655265676CE0
:104C0800000000005461736B496E6974416E644121
:104C1800666669006D795461736B3032000000007C
:104C280064656661756C745461736B000000000004
:104C38000000000001020304060708090000000044
:084C4800010203040A00000050
:084C5000E0B5FF7F0100000048
:044C5800D50100087A
:044C5C00B10100089A
:0C4C600001000000AAAAAAAA0024F40087
:0400000508004A3570
:00000001FF
