:020000040800F2
:1000000000000320E9310008F92F0008FB2F000849
:10001000FD2F0008FF2F000801300008000000003D
:10002000000000000000000000000000E11B0008CC
:100030000330000800000000711C0008D51C0008F7
:1000400039320008393200083932000839320008E4
:1000500039320008393200083932000839320008D4
:1000600039320008393200080530000839320008FA
:1000700039320008393200083932000839320008B4
:1000800039320008393200083932000839320008A4
:100090003932000839320008393200080B300008C4
:1000A0003932000839320008393200083932000884
:1000B0003932000839320008393200083932000874
:1000C0003932000839320008393200083932000864
:1000D0003932000839320008393200083932000854
:1000E000233000083932000839320008393200085C
:1000F0002D30000839320008393200083932000842
:100100003932000839320008393200083932000823
:100110003932000839320008393200083932000813
:100120003932000839320008393200083932000803
:1001300039320008393200083932000839320008F3
:1001400039320008393200083932000839320008E3
:1001500039320008393200083932000839320008D3
:1001600039320008393200083932000839320008C3
:100170003932000839320008393200080000000026
:1001800039320008393200083932000839320008A3
:100190003932000839320008393200083932000893
:0C01A000393200083932000839320008FA
:1001B00010B5054C237833B9044B13B10448AFF3A1
:1001C00000800123237010BD0C00002000000000FF
:1001D0009432000808B5034B1BB103490348AFF341
:1001E000008008BD000000001000002094320008CC
:1001F00053B94AB9002908BF00281CBF4FF0FF318E
:100200004FF0FF3000F07AB9ADF1080C6DE904CE83
:1002100000F006F8DDF804E0DDE9022304B07047E1
:100220002DE9F0478C460D460446089E002B51D11F
:100230008A4217466DD9B2FA82FEBEF1000F0BD08A
:10024000CEF1200C01FA0EF520FA0CFC02FA0EF7A2
:100250004CEA050C00FA0EF44FEA174A250CBCFBD9
:10026000FAF81FFA87F90AFB18CC45EA0C4508FB97
:1002700009F3AB420AD9ED1908F1FF3280F023816E
:10028000AB4240F22081A8F102083D44ED1AA4B22D
:10029000B5FBFAF00AFB105544EA054400FB09F9E6
:1002A000A14509D9E41900F1FF3380F00A81A14585
:1002B00040F2078102383C44A4EB090440EA0840BC
:1002C0000021002E61D024FA0EF400233460736004
:1002D000BDE8F0878B4207D9002E54D0002186E874
:1002E00021000846BDE8F087B3FA83F1002940F009
:1002F0008E80AB4202D3824200F2FA80841A65EB10
:1003000003050120AC46002E3FD086E81010BDE862
:10031000F08712B90127B7FBF2F7B7FA87FEBEF1F3
:10032000000F34D1EB1B3A0C1FFA87FC0121B3FB01
:10033000F2F8250C02FB183345EA03450CFB08F3E1
:10034000AB4207D9ED1908F1FF3002D2AB4200F2FF
:10035000D1808046ED1AA3B2B5FBF2F002FB105536
:1003600043EA05440CFB00FCA44507D9E41900F15D
:10037000FF3302D2A44500F2B8801846A4EB0C0467
:1003800040EA08409DE731463046BDE8F087CEF1AF
:10039000200405FA0EF307FA0EF720FA04F83A0CD7
:1003A00025FA04F448EA0308B4FBF2F14FEA1845D1
:1003B00002FB11441FFA87FC45EA044501FB0CF3DC
:1003C000AB4200FA0EF409D9ED1901F1FF3080F0CB
:1003D0008A80AB4240F2878002393D44EB1A1FFA13
:1003E00088F5B3FBF2F002FB103345EA034500FB4E
:1003F0000CF3AB4207D9ED1900F1FF386FD2AB42D5
:100400006DD902383D44EB1A40EA01418FE7C1F152
:10041000200722FA07F88B4005FA01F448EA0303A3
:1004200020FA07FE4FEA134CFD404EEA040EB5FBDE
:10043000FCF94FEA1E440CFB19551FFA83F844EAF5
:10044000054509FB08F4AC4202FA01F200FA01FA90
:1004500008D9ED1809F1FF3043D2AC4241D9A9F1D6
:1004600002091D442D1B1FFA8EFEB5FBFCF00CFB90
:1004700010554EEA054400FB08F8A04507D9E418DA
:1004800000F1FF3529D2A04527D902381C4440EAA3
:100490000940A4EB0804A0FB02894C45C6464D4622
:1004A00015D312D056B1BAEB0E0364EB050404FA6F
:1004B00007F7CB401F43CC40376074600021BDE894
:1004C000F0871846F8E69046E0E6C245EAD2B8EB77
:1004D000020E69EB03050138E4E72846D7E74046FA
:1004E00091E78146BEE7014678E702383C4445E79C
:1004F000084608E7A8F102083D442BE7704700BF13
:1005000008B50B4B1A6842F400721A601A6842F47C
:1005100080621A601A6842F480721A60032000F048
:100520002FF8002002F02AFD02F006FD002008BD91
:10053000003C0240034A044B11681B780B441360D3
:10054000704700BFC43F002000000020014B186826
:10055000704700BFC43F002038B50446FFF7F6FFE0
:10056000631C1CBF054B1B78054618BFE418FFF73A
:10057000EDFF401B8442FAD838BD00BF00000020C8
:10058000074AD36823F4E0631B041B0C43F0BF63EA
:10059000000243F4003300F4E0600343D36070478B
:1005A00000ED00E0174B30B5DC68C4F30224C4F161
:1005B0000703251D042B28BF0423062D4FF001053A
:1005C00005FA03F303F1FF338CBF033C0024194009
:1005D000A14005FA04F4013C2240002842EA01024D
:1005E0004FEA0212ADBF00F1604000F00F00064B71
:1005F00000F56140B5BFD2B2D2B21A5480F80023E0
:1006000030BD00BF00ED00E014ED00E0002808DB85
:100610004209012300F01F0003FA00F0014B43F8E8
:100620002200704700E100E070B5044629B14FF4A4
:100630000063C3604FF480438360E3692268E0682D
:100640001568002BA36843EA0003304843F40073A5
:1006500000EA05000CBF4FF48061002103430B4307
:10066000136001201568FFF777FF236840221D60A3
:1006700001205A605D68FFF76FFF23685D60002509
:100680009D60DD609A6922F0BE021204120C42F0F5
:1006900080029A6101209E69FFF75EFF23680120B6
:1006A0009E61DD61DD69FFF757FF2268184BD56158
:1006B00041F21805012051590B4043F0087343F0F3
:1006C000040353515659FFF747FF2368114A5E51FF
:1006D00003F5805301201A601D68FFF73DFF226873
:1006E00002F580531D60A369012B07D141F21C0163
:1006F000535843F4803343F0400353506369064A30
:10070000998811601A68054B1A6070BD0F8120FF2F
:10071000233FDEF88020C102408002404480024036
:10072000F8B590F84430822B0546164630D0026862
:10073000822380F844301369890101F4F86403F0DE
:100740001C012143048AE402A4B20C4344F00104D6
:100750001461FFF7FBFE074614F0010007D12B6878
:100760005B699BB23360012385F84430F8BDFFF725
:10077000EDFEC01BB0F5803F07D3012385F8443060
:10078000002385F845300320F8BD2B681C69E3E79A
:100790000220F8BD90F84430422B70B505462ED0AB
:1007A000422380F8443003688C01186904F4F8642B
:1007B00044F0030400F01C0020432C8AE402A4B29D
:1007C000044392B25A611C61FFF7C0FE064614F062
:1007D000010003D1012385F8443070BDFFF7B6FE58
:1007E000801BB0F5803F07D3012385F844300023F8
:1007F00085F84530032070BD2B681C69E7E70220AF
:1008000070BD0000F7B5002300930446002800F0F7
:10081000DE8090F8443003F0FF021BB980F84520D9
:1008200002F0D6F8002301936A4B5A6C42F48042DE
:100830005A645B6C03F480430193019B664B5A68D6
:1008400022F400025A605A68216A0A435A602368F7
:1008500003F580531A6842F001021A60FFF776FE32
:100860000546236803F580521268D0071DD41D6920
:1008700000F094FC594B5A4A0344934225F01C055E
:1008800022D845F0080523684FF400421D6100217D
:100890002046FFF77FFF054668B30121204601256A
:1008A000FFF7C2FE84F844500BE0FFF74FFE401BF9
:1008B000B0F5FA7FD5D90325002384F8445084F895
:1008C0004530284603B0F0BD464B474A03449342A7
:1008D00002D845F00C05D6E7444B454A0344934201
:1008E000D1D9444B444A0344934294BF45F0040594
:1008F00045F01005C7E7FF20FFF72EFE6368002BC9
:1009000053D0FFF723FE41F2883706466A4601219D
:100910002046FFF705FFFFF719FE801BB8420BD9F1
:1009200001212046FFF780FE012384F84430002394
:1009300084F845300325C4E7009B5907E6D54FF4FA
:10094000805200212046FFF725FF0028A5D1FFF7A0
:10095000FDFD41F2883706466A4601212046FFF731
:10096000DFFEFFF7F3FD801BB842D9D8009B9A0643
:10097000F2D56A461F212046FFF7D2FE00288CD10F
:10098000009B13F0100218BF4FF400625B074CBFCE
:1009900000234FF48043E260A36000212046FFF76C
:1009A00043FE012384F844308BE7A368E2685B08C8
:1009B00043EAD20292B229462046FFF7EBFE002816
:1009C0007FF46BAF40F6FF70FFF7C6FDE5E701254A
:1009D00077E700BF003802400038014000D3CEFE68
:1009E000BFE1E40040F1E9FD3F787D0100796CFC56
:1009F000FF596202001F0AFA7FF0FA022DE9F04F58
:100A000085B00B68DFF8C4816E4ADFF8C4910193AA
:100A100000234FF0010E019C0EFA03FE0EEA0406BD
:100A2000B64540F0B6804C6824F01007022F16D16E
:100A30004FEAD30A00EB8A0A03F0070BDAF82050DA
:100A40004FEA8B0B4FF00F0C0CFA0BFC25EA0C0C49
:100A50000D6905FA0BF545EA0C05CAF820504FEA76
:100A6000430A0325D0F800B005FA0AF5ED4304F077
:100A7000030C0BEA050B0CFA0AFC013F4CEA0B0CC9
:100A8000012FC0F800C011D8876807EA050BCF68AE
:100A900007FA0AFC4CEA0B078760476827EA0E0E44
:100AA000C4F300179F4047EA0E074760C7683D4000
:100AB0008F6807FA0AF73D43C560E50069D54FF036
:100AC000000BCDF80CB0D8F844703F4D47F4804788
:100AD000C8F84470D8F8447007F480470397039F20
:100AE00023F0030707F1804707F59C3703F0030C59
:100AF000D7F808A04FEA8C0C4FF00F0E0EFA0CFE40
:100B0000A8422AEA0E0E4BD005F58065A84249D0CE
:100B100005F58065A84247D005F58065A84245D017
:100B200005F58065A84243D0484543D005F50065EA
:100B3000A84241D005F58065A8423FD005F5806503
:100B4000A8423DD005F58065A84214BF0A250925B5
:100B500005FA0CF545EA0E05BD601568F74314F477
:100B6000803F0CBF3D4035431560556814F4003F8D
:100B70000CBF3D4035435560956814F4801F0CBF91
:100B80003D4035439560D568A40254BF3D40354390
:100B9000D5600133102B7FF43CAF05B0BDE8F08F7A
:100BA0005D46D5E70125D3E70225D1E70325CFE749
:100BB0000425CDE70525CBE70625C9E70725C7E7C7
:100BC0000825C5E7003C0140000002400038024013
:100BD000001402400AB1816170470904FBE700007C
:100BE00008B5044B5969014202D0586102F008F976
:100BF00008BD00BF003C0140F0B504468BB060B3B7
:100C000090F8BD33056803F0FF021BB980F8BC23E0
:100C100002F0A8FA032384F8BD33EB6B254613F4E6
:100C2000807355F8100B08BF236100F0D5FD0FCD80
:100C30006E460FC60FCD0FC695E8030086E8030089
:100C40002546271D97E80E0055F8100B00F084FD8F
:100C5000064620B1022384F8BD33012550E0014649
:100C6000206800F0BFFD3046D4F804E01C264FF0A9
:100C7000010C0146C2B2964500F101001CD80023C8
:100C80001C261946D8B2864503F1010322D80FCDA0
:100C90006E460FC60FCD0FC695E8030086E8030029
:100CA00097E80E00206800F0DFFD0123054600B341
:100CB000022284F8BD23D0E706FB024383F83DC03F
:100CC00083F83C20A3F8422083F83F1059649964CC
:100CD0001965CFE706FB004282F8FD1182F8FC019E
:100CE00082F8FF11C2F80412C2F80812C2F81012FA
:100CF000C8E784F8380084F8BD33206800F078FE37
:100D000028460BB0F0BD00002DE9F341044618B9A8
:100D1000012002B0BDE8F0810368DD0710D423682C
:100D2000980758D423681A0700F19A8023685B0754
:100D300000F1B880A269002A40F019810020E8E79C
:100D4000A64B9A6802F00C02042A07D09A6802F0B7
:100D50000C02082A0AD15B68590207D59F4B1B6811
:100D60009A03DCD56368002BD9D1D1E763689B4D2A
:100D7000B3F5803F11D12B6843F480332B60FFF72C
:100D8000E5FB964D06462B689B03C8D4FFF7DEFBB8
:100D9000801B6428F7D90320BBE7B3F5A02F04D14B
:100DA0002B6843F480232B60E5E72A6822F4803225
:100DB0002A602A6822F480222A60002BDFD1FFF704
:100DC000C5FB06462B689F03A9D5FFF7BFFB801B19
:100DD0006428F7D9DFE7814B9A6812F00C0F07D02F
:100DE0009A6802F00C02082A11D15B685E020ED4E8
:100DF0007A4B1A68950702D5E268012A88D11A68E9
:100E0000216922F0F80242EAC1021A608AE7E26828
:100E1000734BB2B101221A60FFF798FB6F4D064683
:100E20002B68980707D52B68226923F0F80343EA5B
:100E3000C2032B6076E7FFF789FB801B0228EFD9FE
:100E4000A9E71A60FFF782FB644D06462B689907F5
:100E50007FF568AFFFF77AFB801B0228F6D99AE787
:100E60006269604B7AB101221A60FFF76FFB5B4D3C
:100E700006466B6F9F073FF559AFFFF767FB801B77
:100E80000228F6D987E71A60FFF760FB534D064644
:100E90006B6F98077FF54AAFFFF758FB801B02285E
:100EA000F6D978E74D4B1A6C12F0805228D1019296
:100EB0001A6C42F080521A641B6C03F08053019349
:100EC000019B0126484D2B68D9051BD5A368434DCE
:100ED000012B27D12B6F43F001032B67FFF736FB64
:100EE0003E4D074641F288382B6F9B0739D5002EBF
:100EF0003FF420AF394A136C23F08053136419E791
:100F00000026DFE72B6843F480732B60FFF71EFB9E
:100F100007462B68DA05D9D4FFF718FBC01B022857
:100F2000F7D938E7052B04D12B6F43F004032B6767
:100F3000D0E72A6F22F001022A672A6F22F004020A
:100F40002A67002BCAD1FFF701FB41F28838074618
:100F50002B6F9807CBD5FFF7F9FAC01B4045F7D99F
:100F600019E7FFF7F3FAC01B4045BDD913E71B4D46
:100F7000AB6803F00C03082B3FF4CAAE1B4E0023F2
:100F8000022A336034D1FFF7E1FA07462B68990152
:100F90001ED4226AE3691343626A43EA8213E26A57
:100FA00043EA0263A26A0D4C5208013A43EA024343
:100FB0006B6001233360FFF7C9FA054623689A0185
:100FC0003FF5BCAEFFF7C2FA401B0228F6D9E2E6B5
:100FD000FFF7BCFAC01B0228D8D9DCE60038024073
:100FE00000004742800E47420070004060004742C8
:100FF000FFF7ACFA04462B689B017FF59FAEFFF725
:10100000A5FA001B0228F6D9C5E600BF134908B5AA
:101010008B6803F00C03042B03D0082B03D010487B
:1010200008BD104808BD4A684B68496813F480033E
:1010300014BF0C480A48C1F3881118BF002302F0FE
:101040003F02A1FB0001FFF7D3F8044B5B68C3F339
:10105000014301335B00B0FBF3F008BD00380240F0
:101060000024F40000127A002DE9F0410D460446F8
:1010700010B90120BDE8F081444B1A6802F00F025C
:101080008A4228D321688F072DD4C80740D43F4B0C
:101090001A6802F00F02954266D3226851076CD499
:1010A000130707D53A4A2169936823F4604343EA5A
:1010B000C1039360FFF7AAFF354B364A9B68C3F321
:1010C0000313D35CD840344B1860002001F056FF66
:1010D0000020BDE8F081CAB21A701B6803F00F034C
:1010E0009942C6D1CEE72A4B11F0040F1EBF9A6871
:1010F00042F4E0529A600E0742BF9A6842F460429E
:101100009A609A68A06822F0F00202439A60BCE7F5
:1011100062681F4B012A1DD11B6813F4003FA8D041
:101120001B4EB36823F003031343B360FFF70EFABB
:1011300041F288380746B368626803F00C03B3EBEA
:10114000820FA4D0FFF702FAC01B4045F3D9032059
:10115000BDE8F081911E01291B6802D813F0007FC1
:10116000DDE713F0020FDAE7EAB21A701B6803F04A
:101170000F039D427FF47DAF8FE70549E0688B68E0
:1011800023F4E05303438B608AE700BF003C024036
:10119000003802403433000808000020014B186872
:1011A000704700BF08000020044B054A9B68C3F34A
:1011B0008223D35C034A1068D8407047003802404D
:1011C0004433000808000020044B054A9B68C3F321
:1011D0004233D35C034A1068D8407047003802405D
:1011E00044330008080000200F2303600B4B9A686B
:1011F00002F0030242609A6802F0F00282609A688C
:1012000002F4E052C2609B68DB0803F4E053036120
:10121000034B1B6803F00F030B607047003802405C
:10122000003C024070470368DA6842F00102DA606D
:101230009A6802F00702062A1EBF1A6842F00102ED
:101240001A60002070477047704770477047036806
:101250001A69910710B504460ED5DA6892070BD5C6
:101260006FF002021A619B6901229B07027777D017
:10127000FFF7EAFF0023237723681A69500710D588
:10128000DA6851070DD56FF004021A619B690222DA
:1012900013F4407F2277204668D0FFF7D5FF002364
:1012A000237723681A6912070FD5DA6810070CD55F
:1012B0006FF008021A61DB69042299072277204641
:1012C0005AD0FFF7C1FF0023237723681A69D2069B
:1012D00010D5DA68D0060DD56FF010021A61DB69FF
:1012E000082213F4407F227720464BD0FFF7ACFF53
:1012F0000023237723681A69D10708D5DA68D20753
:1013000005D56FF001021A61204601F009FE23683D
:101310001A69100608D5DA68110605D56FF0800243
:101320001A61204600F0B7F823681A69520608D5FA
:10133000DA68500605D56FF040021A612046FFF7C3
:1013400085FF23681A69910622D5DA6892061FD5AF
:101350006FF0200220461A61BDE8104000F09AB8F4
:10136000FFF771FF2046FFF770FF83E7FFF76BFF82
:101370002046FFF76AFF92E7FFF765FF2046FFF779
:1013800064FFA0E7FFF75FFF2046FFF75EFFAFE7D0
:1013900010BD0000304A0368904212D0B0F1804F77
:1013A0000FD0A2F57C4290420BD002F580629042B1
:1013B00007D002F58062904203D002F57842904255
:1013C00019D14A6823F070031343234A904229D06D
:1013D000B0F1804F26D0A2F57C42904222D002F597
:1013E000806290421ED002F5806290421AD002F5CF
:1013F0007842904216D0194A904213D002F580628A
:1014000090420FD002F5806290420BD0A2F5983244
:10141000904207D002F58062904203D002F58062CC
:10142000904203D1CA6823F4407313434A6923F0FE
:101430008003134303608B68C3620B688362064BAF
:10144000984203D003F58063984201D10B6903638E
:1014500001234361704700BF00000140004001408C
:1014600010B50446A0B190F83D3003F0FF021BB95F
:1014700080F83C20FFF7D6FE022384F83D30206838
:10148000211DFFF787FF012384F83D30002010BDA8
:10149000012010BD704770472DE9F0470668C2680B
:1014A0003369C16923F440531343336104468368AD
:1014B0000069F2680343606922F41642034322F094
:1014C0000C020B431343F3607369A26923F4407366
:1014D0001343B1F5004F73617A4B7CD19E4203D028
:1014E00003F580639E4244D1FFF76EFE192505FB8C
:1014F00000F360684FF064094000B3FBF0F3B3FB06
:10150000F9F34FEA0318FFF75FFE636868435B0077
:10151000B0FBF3F7FFF758FE636868435B00B0FB6E
:10152000F3F3B3FBF9F309FB1373DB003233B3FBC3
:10153000F9F35B0003F4F877FFF746FE626868434F
:101540005200B0FBF2FAFFF73FFE636868435B00AE
:10155000B0FBF3F3B3FBF9F309FB13A3DB00323366
:10156000B3FBF9F303F0070343443B44B360BDE826
:10157000F087FFF719FE192505FB00F360684FF0AF
:1015800064094000B3FBF0F3B3FBF9F34FEA03182F
:10159000FFF70AFE636868435B00B0FBF3F7FFF7F1
:1015A00003FE636868435B00B0FBF3F3B3FBF9F33E
:1015B00009FB1373DB003233B3FBF9F35B0003F475
:1015C000F877FFF7F1FD626868435200B0FBF2FA6A
:1015D000FFF7EAFDB9E79E4202D03B4B9E4240D165
:1015E000FFF7F2FD676819254FF0640905FB00F36A
:1015F000BF00B3FBF7F3B3FBF9F31F01FFF7E4FD03
:10160000636868439B00B0FBF3F8FFF7DDFD636898
:1016100068439B00B0FBF3F3B3FBF9F309FB1383BF
:101620001B013233B3FBF9F303F0F008FFF7CCFDF5
:10163000626868439200B0FBF2FAFFF7C5FD636889
:1016400068439B00B0FBF3F3B3FBF9F309FB13A36F
:101650001B013233B3FBF9F303F00F0343EA080332
:1016600083E7FFF7A1FD676819254FF0640905FBC3
:1016700000F3BF00B3FBF7F3B3FBF9F31F01FFF770
:1016800093FD636868439B00B0FBF3F8FFF78CFDA4
:10169000636868439B00B0FBF3F3B3FBF9F309FB0A
:1016A00013831B013233B3FBF9F303F0F008FFF7A8
:1016B0007BFD626868439200B0FBF2FAFFF774FDAD
:1016C000BDE700BF001001400014014010B5044602
:1016D00040B390F8393003F0FF021BB980F838208E
:1016E00001F0ECFC2268242384F83930D36823F419
:1016F0000053D3602046FFF7CFFE23681A6922F417
:1017000090421A615A6922F02A025A61DA6842F458
:101710000052DA6000202023E06384F8393084F836
:101720003A3010BD012010BD0A4B013B01D103200E
:1017300070470269002AF8DA0369064A43F0010398
:101740000361013AF3D0036913F00103F9D118469C
:10175000704700BF410D030084B038B505AD85E882
:101760000E000A9B012B044625D1836B23F48033A2
:101770008363C36823F4840323F04003C360C36816
:1017800023F44013C360119B012B02BFC36843F4D1
:101790008013C360FFF7C8FF089B012B07D1A36824
:1017A00043F00603A360A36843F02003A360BDE8F1
:1017B000384004B07047C36843F04003C360FFF78C
:1017C000B3FF0E9B23B9A36B43F48033A363E3E71A
:1017D000A36B23F48033F9E7836823F0010383606C
:1017E0000020704708B5C368012923F0C043C360D7
:1017F00008D1C36843F00053C3603220FEF7ACFE4B
:10180000002008BD19B9C36843F08043F4E7012004
:1018100008BD0000890141F02001064A0161013A3A
:1018200005D0036913F02003F9D11846704703204F
:10183000704700BF410D03001023064A0361013ABF
:1018400005D0036913F01003F9D11846704703203F
:10185000704700BF410D0300D0F800381943C0F8AD
:10186000001800207047000084B02DE9F0470446BE
:1018700009A880E80E0000230C9F139E8846194695
:1018800003F1400204EB820201330F2B5160F7D1C8
:10189000002E73D1A36B43F40013A363A36B23F453
:1018A0000023A363A36B23F48023A3630023C4F862
:1018B000003ED4F80038C4F800380E9B012B04F524
:1018C000006565D10B99002960D12046FFF7C4FF60
:1018D00010212046FFF79EFF01462046FFF7ACFF90
:1018E000002857D1081C18BF012000232B6104F5E4
:1018F00010626B611946EB614FF0904E4FF0006C37
:101900004FF67F39434547D1002104F530628E46BA
:101910004FF0904C4FF000684FF67F398B424ED11C
:101920002B69012F23F480732B6107D12E4B2B637E
:101930002B6B43F4803343F003032B630023A36139
:101940006FF0804363611FB9A36943F01003A36183
:10195000A269264B1343A3610F9B1BB1A36943F0FC
:101960000803A361012E01BFA36943F0804343F044
:101970000403A361BDE8F04704B07047236823F473
:1019800000132360A36B43F400238EE719469CE702
:1019900003219AE70120A8E7D2F800A0BAF1000FCE
:1019A0000BDA3BB9C2F800C011610133C2F80890EC
:1019B0002032A7E7C2F800E0F6E71160F4E7D2F8BA
:1019C00000A0BAF1000F0CDA41B9C2F80080C2F8E9
:1019D00010E00131C2F8089020329FE7C2F800C041
:1019E000F5E7C2F800E0F2E70001800000383C8033
:1019F00008B5D0F8043843F00203C0F804380320D7
:101A0000FEF7AAFD002008BD08B500F0A5FD0020E6
:101A100008BD70B5054646692A694068B5F90840B1
:101A20000B4686B0296876B1AD6965B1842C14BFC8
:101A30000334002402958DE8500000F097FC0590D7
:101A4000059806B070BD842C14BF0334002405AD86
:101A500092B28DE8300000F0C0FC0128F0D00020E8
:101A6000EFE708B5002808BF012000F0BDFE002008
:101A700008BD08B500F016FF002008BD08B5EFF35B
:101A800005836BB100F018FD012807D1064B4FF01C
:101A900080521A60BFF34F8FBFF36F8F002008BDD5
:101AA00000F0C8FCFAE700BF04ED00E000F1080315
:101AB00043604FF0FF32C360036100238260036024
:101AC000704700230361704743684B609A688A60DF
:101AD0009A68516099600368086101330360704738
:101AE0000A68531C30B50AD103695A684A6091608C
:101AF0008B605960036808610133036030BD00F1F9
:101B000008035C682568AA42EFD32346F9E74168D9
:101B1000826803698A60826851605968884208BF98
:101B20005A60002202611A68013A1A601868704708
:101B300082B0002301930D4B1B68013308D04FF096
:101B4000500383F31188BFF36F8FBFF34F8FFEE70E
:101B50004FF0500383F31188BFF36F8FBFF34F8FA4
:101B6000019B002BFCD002B0704700BF0400002096
:101B700008480068006880F308884FF0000080F390
:101B8000148862B661B6BFF34F8FBFF36F8F00DF6B
:101B900000BF000008ED00E0DFF80C00016841F430
:101BA000700101607047000088ED00E04FF0807325
:101BB00040F8043C074B40F80C3C21F001016FF069
:101BC000020340F8081C40F8202C40F8243C44381C
:101BD000704700BF311B000800000000000000003B
:101BE000074B19680868B0E8F04F80F30988BFF325
:101BF0006F8F4FF0000080F311887047AFF30080C3
:101C0000483C00204FF0500383F31188BFF36F8FDF
:101C1000BFF34F8F0A4A13680133012B13600DD1B4
:101C2000084B1B6813F0FF0F08D04FF0500383F3ED
:101C30001188BFF36F8FBFF34F8FFEE7704700BF70
:101C40000400002004ED00E0084A136843B94FF097
:101C5000500383F31188BFF36F8FBFF34F8FFEE7FD
:101C6000013B13600BB983F3118870470400002017
:101C7000EFF30980BFF36F8F154B1A681EF0100F3A
:101C800008BF20ED108A20E9F04F10602DE909000F
:101C90004FF0500080F31188BFF34F8FBFF36F8F69
:101CA00000F0C6FD4FF0000080F3118809BC1968F0
:101CB0000868B0E8F04F1EF0100F08BFB0EC108AB3
:101CC00080F30988BFF36F8F704700BFAFF30080C8
:101CD000483C002008B54FF0500383F31188BFF350
:101CE0006F8FBFF34F8F00F075FC18B1034B4FF0AF
:101CF00080521A60002383F3118808BD04ED00E0D0
:101D0000084A0949002313600B60084B4FF47A71AD
:101D10001B68B3FBF1F30649013B0B60072313601B
:101D2000704700BF10E000E018E000E0080000206D
:101D300014E000E0394B3A4A13B51968914208D1D2
:101D40004FF0500383F31188BFF36F8FBFF34F8FB2
:101D5000FEE71A68334B9A4208D14FF0500383F3E1
:101D60001188BFF36F8FBFF34F8FFEE72E4B1A78AA
:101D7000D2B20192FF221A701B782C4ADBB28DF886
:101D800003309DF8033003F050031370284B0722F3
:101D90001A6000219DF80300000602F1FF340DD403
:101DA00001B11A601A68032A11D04FF0500383F36F
:101DB0001188BFF36F8FBFF34F8FFEE79DF80320AD
:101DC0005200D2B28DF8032001212246E2E712022E
:101DD00002F4E0621A60019B134ADBB21370154BE8
:101DE0001A6842F470021A601A6842F070421A606F
:101DF000FFF786FF104B00241C60FFF7CDFE0F4A53
:101E0000136843F040431360FFF7B2FE00F010FD8B
:101E1000FFF78EFE204602B010BD00BF00ED00E0CF
:101E200071C20F4170C20F4100E400E028000020A1
:101E30002C00002020ED00E00400002034EF00E042
:101E4000EFF305830F2B0ED9104A9B5C104A1278D2
:101E50009A4208D94FF0500383F31188BFF36F8F74
:101E6000BFF34F8FFEE70B4B0B4A1B68126803F45E
:101E7000E063934208D94FF0500383F31188BFF316
:101E80006F8FBFF34F8FFEE7704700BFF0E300E0B6
:101E9000280000200CED00E02C00002010B50F4BB6
:101EA0001A68824218D35C681919884201BF4168D8
:101EB000184609195960446801198A4207D108492E
:101EC00009688A421FBF5168126809194160984227
:101ED000026018BF186010BD1346E1E7403C0020C7
:101EE000300000202DE9F041044600F06BFB3E4934
:101EF0003E4D0B680BBB3E4A56071FBFD01D20F05E
:101F0000070002F570531B1A14BF02464FF47053BA
:101F10001344083B23F00703364E0B60002070602B
:101F2000326058601860981A1360334B5060186024
:101F3000324B18604FF000432B602F68274216D1B8
:101F4000002C41D004F1080358071CBF23F00703FD
:101F5000083363B1294A1668B342904607D8254A28
:101F600015686868834204D809688D4207D1002447
:101F70002AE02C68002CF7D02A462546F1E729688C
:101F800014681160C21A102A0FD9E818410708D046
:101F90004FF0500383F31188BFF36F8FBFF34F8F60
:101FA000FEE742606B60FFF779FF13496B680868D2
:101FB000F61A1F4386424FF00003C8F8006038BF8E
:101FC0000E6008346F602B6000F096FB630708D04A
:101FD0004FF0500383F31188BFF36F8FBFF34F8F20
:101FE000FEE72046BDE8F08130000020343C0020B0
:101FF00034000020403C00203C3C0020383C0020C5
:1020000010B5044670B3184A50F8043C12681342E5
:1020100008D14FF0500383F31188BFF36F8FBFF3E4
:102020004F8FFEE750F8081C41B14FF0500383F387
:102030001188BFF36F8FBFF34F8FFEE723EA0203D0
:1020400040F8043C00F0BEFA084A54F8043C116819
:10205000A4F108000B441360FFF720FFBDE8104017
:1020600000F04ABB10BD00BF343C0020383C0020CB
:102070002DE9F0410646FFF7C5FD2D4B2D4C1A68A2
:102080002D4F01321A602568002D45D126601B684E
:10209000012B1CD178191435FFF708FD8C2DF9D1CF
:1020A000DFF8C080254D4046FFF700FD2846FFF7CA
:1020B000FDFC2348FFF7FAFC2248FFF7F7FC224813
:1020C000FFF7F4FC214BC3F80080214B1D60214A2F
:1020D00021491368086801331360F26A01239340B1
:1020E000034314200B6000FB0270311DFFF7ECFC72
:1020F000FFF7AAFD194B1B6863B12368DA6AF36A1C
:102100009A4207D2164B4FF080521A60BFF34F8F9E
:10211000BFF36F8FBDE8F081104B1B68002BD6D149
:102120002368DA6AF36A9A4298BF2660CFE700BF55
:10213000E03C0020483C0020543C00200C3D0020A6
:10214000283D0020543D0020403D00204C3C002014
:10215000503C0020F03C0020F43C00203C3D00209E
:1021600004ED00E0F83C002040B94FF0500383F349
:102170001188BFF36F8FBFF34F8FFEE74269064BA5
:102180009A4201D000207047806A044B9842F9D0EF
:10219000B0FA80F040097047403D0020283D002003
:1021A000064A13681968064B19B94FF0FF321A60D6
:1021B00070471268D268D2685268F8E74C3C002039
:1021C000203D00202DE9F0470A9CDDF82480266B95
:1021D00002F18042013A06EB82069A4681464B1E86
:1021E00026F0070604F134020F31587802F8010B8B
:1021F00013F8010F08B18B42F7D1089D062D28BFB7
:1022000006250027E5626564201D84F84370A764F5
:10221000FFF757FCC5F1070504F11800FFF751FC63
:10222000E7642461A561646284F8507052464946AF
:102230003046FFF7BBFC2060B8F1000F01D0C8F8B2
:102240000040BDE8F08710B590F8513004463BB926
:10225000006BFFF7D5FE2046BDE81040FFF7D0BE6B
:10226000012BF9D0022B08D04FF0500383F31188D3
:10227000BFF36F8FBFF34F8FFEE710BD80B5DFF860
:102280005C80124F124C134D236863B9124B1B68CC
:10229000012BF8D94FF08053C8F80030BFF34F8FAF
:1022A000BFF36F8FEEE7FFF7ADFCFB68DE68301D14
:1022B000FFF72DFC2B68013B2B602368013B23605B
:1022C000FFF7C2FC3046FFF7BEFFDDE7543D0020BC
:1022D000E43C0020E03C0020543C002004ED00E001
:1022E000F8B51B4B1B4E1D680446306804300F4682
:1022F000FFF70DFC334640B93168174EC96A3268A2
:102300000120884022EA00023260621C07D137B106
:10231000196812480431BDE8F840FFF7D5BB2C44DA
:102320001A68A542546007D90D4A10681968BDE8BB
:10233000F8400431FFF7D4BB0A4A10681968043129
:10234000FFF7CEFB084B1A68944238BF1C60F8BDFB
:10235000683D0020483C0020F43C0020403D002027
:10236000503C00204C3C0020203D002070B586B041
:102370000B9D0C9C45B94FF0500383F31188BFF3BC
:102380006F8FBFF34F8FFEE744B94FF0500383F3D5
:102390001188BFF36F8FBFF34F8FFEE7542604966B
:1023A000049E542E08D04FF0500383F31188BFF3DE
:1023B0006F8FBFF34F8FFEE72563022584F85150DE
:1023C00005AD01950A9D02940095FFF7FBFE20469E
:1023D000FFF74EFE059806B070BD2DE9F0430746A5
:1023E00085B09000884616469946FFF77BFD054666
:1023F000E8B15420FFF776FD0446A8B1002380F829
:1024000051300D9B056301930C9B02900093324663
:102410004B4641463846FFF7D5FE2046FFF728FEDB
:10242000012005B0BDE8F0832846FFF7E9FD4FF035
:10243000FF30F6E770B5044640B94FF0500383F320
:102440001188BFF36F8FBFF34F8FFEE7164D2B68D8
:10245000984228D0FFF7D6FB2046FFF785FEF0B163
:10246000261D3046FFF753FB1049E26A0868012336
:10247000934003430B600E4B142000FB02303146A7
:10248000FFF722FB2B68E26ADB6A9A4207D3094B0B
:102490004FF080521A60BFF34F8FBFF36F8FBDE8CC
:1024A0007040FFF7D1BB70BD483C0020F43C0020D9
:1024B000543C002004ED00E0F8B5054640B94FF06B
:1024C000500383F31188BFF36F8FBFF34F8FFEE785
:1024D000FFF7B6FCEFF311864FF0500383F311883A
:1024E000BFF36F8FBFF34F8F2846FFF73DFE38B322
:1024F000144B1B68EBB9144BEC6A1B68D86A2F1D90
:102500008442384634BF00240124FFF700FB0F4902
:10251000EA6A08680123934003430B600C4B1420C4
:10252000394600FB0230FFF7CFFA86F311882046C8
:10253000F8BD05F118010748FFF7C6FA0024F4E7D3
:102540000446F2E7EC3C0020483C0020F43C00202C
:10255000543C0020283D002010B588B0002407AA74
:1025600006A905A80594069400F05CFB059B029360
:10257000069B019300942346079A0D490D48FFF7E7
:10258000F5FE90B14FF0500383F31188BFF36F8FC6
:10259000BFF34F8F084B4FF0FF321A60074B0122F9
:1025A0001A60074B1C60FFF7C5FB08B010BD00BFE9
:1025B000003300087D220008203D00203C3D002023
:1025C000683D0020024A136801331360704700BF62
:1025D000EC3C00202DE9F84F3C4B1B68002B53D1FD
:1025E0003B4B1C6801341C60BCB93A4B1A6812683A
:1025F00042B14FF0500383F31188BFF36F8FBFF3E5
:102600004F8FFEE7344A1968106818601160334A2A
:10261000136801331360FFF7C3FD314D314F2B6851
:102620009C424FF0000B3ED3DFF8A880DFF8C49047
:10263000D8F80020126872BB4FF0FF322A6032E0F7
:1026400006F1040A5046FFF762FAB16A19B106F1C1
:102650001800FFF75CFAF06AD9F80030012202FA9C
:1026600000F11943204BC9F800104FF0140E5146E9
:102670000EFB0030FFF728FA3868F16AC26A91420F
:1026800028BF4FF0010BD3E7184A136801331360DA
:102690004FF0000B11E0D8F80020D268D6687168BE
:1026A0008C42CDD229603A680F4BD16A14224A433A
:1026B0009A58022A28BF4FF0010B0D4A1268002ACF
:1026C00018BF4FF0010B5846BDE8F88FEC3C0020D6
:1026D000683D00204C3C0020503C0020243D002060
:1026E000203D0020483C0020543C0020E83C0020D5
:1026F0006C3D0020F43C00202DE9F843314C236868
:1027000043B94FF0500383F31188BFF36F8FBFF3CA
:102710004F8FFEE7FFF776FA2368013B23602468BA
:102720002CB10024FFF790FA2046BDE8F883264B31
:102730001B68002BF5D0DFF8A890244FDFF8A480A9
:10274000D9F80030E3B90CB1FFF72AFD204D2C6811
:1027500044B1204E0127FFF73DFF00B13760013C37
:10276000F9D12C601B4B1B68002BDAD01A4B4FF0B1
:1027700080521A60BFF34F8FBFF36F8F0124D1E7F0
:10278000D9F80C30DC68261D04F11800FFF7BFF9FA
:102790003046FFF7BCF9E26A3968012505FA02F311
:1027A00014200B4300FB028031463B60FFF78CF99D
:1027B0000A4BE26A1B68DB6A9A4224BF054B1D6024
:1027C000BEE700BFEC3C0020E03C0020F43C0020D1
:1027D000E83C00206C3D002004ED00E0483C002077
:1027E000283D0020543C002008B540B90E4B4FF066
:1027F00080521A60BFF34F8FBFF36F8F08BD0B4B32
:10280000196841B14FF0500383F31188BFF36F8F04
:10281000BFF34F8FFEE7FFF7D5FEFFF761FDFFF730
:102820006BFF0028E2D008BD04ED00E0EC3C002086
:10283000174B1A68174B10B512B101221A6010BD60
:102840001A60154B1B68B3FA83F3DBB2C3F11F03A5
:10285000142212495A4388188C5844B94FF0500337
:1028600083F31188BFF36F8FBFF34F8FFEE7446888
:102870000832646844600A44944204BF626842605B
:10288000142202FB03135B68DA68054BD6E700BF2E
:10289000EC3C00206C3D0020F43C0020543C002027
:1028A000483C002070B504462C4EFFF7ABF904B944
:1028B0003468251D2846FFF72AF960B9E06A284BDD
:1028C000142141435B5833B9264901220B688240E9
:1028D00023EA02030B60A36A1BB104F11800FFF79F
:1028E00016F929462048214DFFF7EEF894F85030AC
:1028F000012B04BF002384F85030FFF7A5F92A68A4
:102900002AB1FFF77FF9FFF74BFCFFF79DF933681A
:102910009C4222D12B68A3B1154B1B6843B14FF0E9
:10292000500383F31188BFF36F8FBFF34F8FFEE720
:10293000104B4FF080521A60BFF34F8FBFF36F8F71
:1029400070BD094A11680C4A1268914201D1336086
:1029500070BDBDE87040FFF76BBF70BD483C002004
:10296000543C0020F43C0020403D00203C3D002031
:10297000EC3C002004ED00E0E03C002007B51248EC
:10298000124AC0F814D0012380E80C0000238022F2
:1029900003828DF800308DF801208DF80330E1229C
:1029A0008DF804308DF805308361C3614FF4000366
:1029B0008DF802200362FDF725FF08B100F0BAFA96
:1029C00003B05DF804FB00BFD43F0020008002404C
:1029D000F0B504468DB01422002107A800F052FC87
:1029E00022683D4B9A4274D1A3F590430024009491
:1029F0001A6B3A4842F000721A631A6B02F00072C6
:102A00000092009A01941A6B42F080621A631A6B6A
:102A100002F080620192019A02941A6B42F0006205
:102A20001A631A6B02F000620292029A03941A6B04
:102A300042F004021A631A6B02F004020392039A32
:102A400004941A6B42F001021A631A6B02F001023D
:102A50000492049A05941A6B42F002021A631A6BEC
:102A600002F002020592059A06941A6B42F04002A7
:102A70001A631B6B03F040030693022703260B2502
:102A8000069B0897322307A907930A960B95FDF733
:102A9000B5FF862307A912480793089709940A9659
:102AA0000B95FDF7ABFF4FF4005307A90D480793B3
:102AB000089709940A960B95FDF7A0FF4FF4205351
:102AC00007A909480793089709940A960B95FDF7FB
:102AD00095FF0DB0F0BD00BF00800240000802402D
:102AE00000000240000402400018024070B5214C72
:102AF000214E012211462046FEF76CF8012280216A
:102B00002046FEF767F801224FF480412046FEF789
:102B100061F8002533689D4204DB4FF47A70FEF7BC
:102B2000A0FFE6E7012211462046FEF753F80122F6
:102B300080212046FEF74EF801224FF480412046C6
:102B4000FEF748F8FA20FEF78CFF0022012120460C
:102B5000FEF740F8002280212046FEF73BF80022D5
:102B60004FF480412046FEF735F8FA20FEF779FF52
:102B70000135CFE7000402401C40002008B5124D8B
:102B8000124C2E462B68022B13D1114B1868FEF7FE
:102B900070FF012211462046FEF71CF80122802119
:102BA0002046FEF717F801224FF480412046FEF739
:102BB00011F83368032B03D1054B1868FEF75EFF4D
:102BC0000120FEF74EFFDDE7D03F00200004024069
:102BD0002840002008B5104D104C2E462B68012BC4
:102BE00002D02368042B09D10D4A13680F2001334A
:102BF0001360FDF7B1FC0023336023602368012BD1
:102C000004BF074A00234FF0010004BF1360236094
:102C1000FEF727FFE2E700BF20400020D03F002062
:102C20001C400020034B0360034B0B6080231360A8
:102C3000704700BF703F0020703D002070B5174CFA
:102C400026460FCE96B001AD0FC596E8070085E881
:102C50000700002101A8FEF7DCFE114B04F11C0661
:102C600018600FCE08AD0FC596E8070085E807008D
:102C7000002108A8FEF7CDFE0A4B383418600FCCAF
:102C80000FAD0FC594E8070085E8070000210FA8E5
:102C9000FEF7BFFE044B186016B070BDAC320008E2
:102CA000284000202C400020244000202DE9F04145
:102CB0008CB01422002107A800F0E4FA00244A4B4B
:102CC00001941A6BDFF83481484D494E42F00402FA
:102CD0001A631A6B02F004020192019A02941A6BB1
:102CE00042F080021A631A6B02F080020292029A8A
:102CF00003941A6B42F001021A631A6B02F001028C
:102D00000392039A04941A6B42F002021A631A6B3C
:102D100002F002020492049A05941A6B42F008022F
:102D20001A631A6B02F008020592059A06941A6B50
:102D300042F040021A631B6B03F0400306932246E5
:102D4000404644F28101069BFDF744FF2246284697
:102D50004021FDF73FFF4FF4005307A92548079393
:102D6000012708960994FDF749FE44F2810307A95B
:102D700040460793089709940A94FDF73FFE4023C5
:102D800007A928460793089709940A94FDF736FE89
:102D9000802307A92846079308940994FDF72EFE7F
:102DA000F02307A91448079308960994FDF726FE17
:102DB000224605210A20FDF7F5FB0A20FDF726FC37
:102DC000224605211720FDF7EDFB1720FDF71EFC1D
:102DD000224605212820FDF7E5FB2820FDF716FCFB
:102DE0000CB0BDE8F08100BF00380240001802407E
:102DF0000000111000080240000C024000040240D4
:102E0000402811D004D8102808D020280AD07047B4
:102E100080280BD0B0F5005F0AD070470122064B26
:102E20001A6070470222FAE70322F8E70422F6E765
:102E30000522024BF4E700BFD03F002020400020D5
:102E400030B595B03022002108A800F01BFA00210F
:102E5000142203A800F016FA00241D4B01941A6CEA
:102E600042F080521A641B6C03F080530193019B63
:102E7000184B02941A6842F440421A601B6803F42B
:102E800040430293029B012308934FF4A02309932C
:102E90004FF480030F9304231093A823022511936A
:102EA00008A8072313930E951295FDF72DFF0F2306
:102EB00003934FF4A053069305214FF4805303A8C6
:102EC000049505940793FEF7CFF815B030BD00BF09
:102ED00000380240007000400D4A08B5002313601E
:102EE0000C4A13600C4A13600C4A1360FDF708FB90
:102EF000FFF7A6FFFFF7DAFEFFF740FD00F0C2F88C
:102F000000F014F9FFF79AFEFEF77EFDFEE700BF22
:102F100020400020D03F0020C83F0020CC3F0020B0
:102F20000268034B9A4201D1FDF704BB704700BF12
:102F3000000401407047000007B50F4B00220092CB
:102F4000596C41F480415964596C01F480410091FD
:102F500000990192196C41F0805119641B6C03F0C7
:102F6000805301930F216FF00100019BFDF71AFBC5
:102F700003B05DF804FB00BF0038024030B50146E5
:102F800089B000222C20FDF70DFB2C20FDF73EFB25
:102F90000025154B02955A6C144C42F002025A64FB
:102FA0005B6C03F00203029301A903A8029BFEF7E6
:102FB0001BF9FEF709F90E4B236040F2E733E3609B
:102FC00040000C4BB0FBF3F00138606020462561F7
:102FD000A560FEF745FA20B92046FEF724F909B0AE
:102FE00030BD0120FBE700BF003802403040002028
:102FF0000004014040420F007047FEE7FEE7FEE795
:10300000FEE770471020FDF7EBBD08B52020FDF767
:10301000E7FD4020FDF7E4FD8020BDE80840FDF716
:10302000DFBD4FF40050FDF7DBBD00000148FEF7A7
:103030000EB900BF304000200F49D1F8883043F46A
:103040007003C1F888300D4B1A68002042F001026D
:103050001A6098601A6822F0847222F480321A6032
:10306000074A5A601A6822F480221A60D8604FF02A
:1030700000638B60704700BF00ED00E00038024045
:103080001030002408B50B480B4B4FF4E13E80E8AC
:1030900008400C2200238360C360036142618361A6
:1030A000C361FEF713FB18B1BDE80840FFF742BF4C
:1030B00008BD00BF704000200048004010B5044625
:1030C00088B01422002103A800F0DCF82268154B18
:1030D0009A4225D103F5F833002101911A6C124868
:1030E00042F480221A641A6C02F480220192019A3E
:1030F00002911A6B42F008021A631B6B03F008037B
:103100000293029B4FF44073039302230493012321
:1031100005930323069303A907230793FDF76EFC8A
:1031200008B010BD00480040000C02400C4808B533
:103130004FF0A042042380E80C0002220023C2606A
:10314000826101220361C26103624362C26203635E
:10315000FDF752FD18B1BDE80840FFF7EBBE08BD12
:10316000B040002030B5044689B01422002103A8E5
:1031700000F088F82368B3F1A04F2FD1184C1948FC
:1031800000250195236B43F001032363236B03F0B8
:1031900001030193019B4FF4E8530393022304932B
:1031A0000323069303A90A230793FDF727FC4FF493
:1031B000007303A90B48039304950595FDF71EFCC6
:1031C000636B43F0800363630295636C43F4804355
:1031D0006364636C03F480430293029B09B030BDC7
:1031E0000038024000000240DFF834D0002103E044
:1031F0000C4B5B58435004310B480C4B42189A421D
:10320000F6D30B4A02E0002342F8043B094B9A42F2
:10321000F9D3FFF711FF00F011F8FFF75DFE7047DB
:10322000000003205C330008000000200C00002098
:103230000C000020B8440020FEE7000070B50D4EE1
:103240000D4CA41BA4100025A54209D10B4E0C4C1B
:1032500000F020F8A41BA4100025A54205D170BDE4
:1032600056F8253098470135EEE756F8253098474F
:103270000135F2E754330008543300085433000892
:103280005833000802440346934200D1704703F8C4
:10329000011BF9E7F8B500BFF8BC08BC9E467047B3
:0C32A000F8B500BFF8BC08BC9E467047A3
:1032AC0024330008ED2A0008000000000000000094
:1032BC008000000000000000000000001533000832
:1032CC007D2B0008020000000000000080000000C0
:1032DC00000000000000000005330008D52B00089A
:1032EC000200000000000000800000000000000050
:1032FC000000000049444C450047657374696F6ECB
:10330C00436F6E70746575720053757370656E647F
:10331C004C65645461736B00436C69676E6F7465C4
:10332C006D656E744C6564000000000000000000C8
:10333C00010203040607080900000000010203044F
:08334C00D4CEFF7F0100000058
:04335400D501000897
:04335800B1010008B7
:0C335C0001000000AAAAAAAA0024F400A4
:04000005080031E9D5
:00000001FF
