:020000040800F2
:100000000000032041350008393300083B33000865
:100010003D3300083F330008413300080000000072
:10002000000000000000000000000000811F000828
:10003000433300080000000021200008852000084C
:100040009135000891350008913500089135000878
:100050009135000891350008913500089135000868
:100060009135000891350008913500089135000858
:100070009135000891350008913500089135000848
:100080009135000891350008913500089135000838
:100090009135000891350008913500089135000828
:1000A0009135000891350008913500089135000818
:1000B0009135000891350008913500089135000808
:1000C00091350008913500089135000891350008F8
:1000D00091350008913500089135000891350008E8
:1000E00091350008913500089135000891350008D8
:1000F0004533000891350008913500089135000816
:1001000091350008913500089135000891350008B7
:1001100091350008913500089135000891350008A7
:100120009135000891350008913500089135000897
:100130009135000891350008913500089135000887
:100140009135000891350008913500089135000877
:100150009135000891350008913500089135000867
:100160009135000891350008913500089135000857
:100170009135000891350008913500080000000015
:100180009135000891350008913500089135000837
:100190009135000891350008913500089135000827
:0C01A000913500089135000891350008E9
:1001B00010B5054C237833B9044B13B10448AFF3A1
:1001C00000800123237010BD0C00002000000000FF
:1001D000EC35000808B5034B1BB103490348AFF3E6
:1001E000008008BD0000000010000020EC35000871
:1001F000034613F8012B002AFBD1181A0138704767
:1002000053B94AB9002908BF00281CBF4FF0FF317D
:100210004FF0FF3000F07AB9ADF1080C6DE904CE73
:1002200000F006F8DDF804E0DDE9022304B07047D1
:100230002DE9F0478C460D460446089E002B51D10F
:100240008A4217466DD9B2FA82FEBEF1000F0BD07A
:10025000CEF1200C01FA0EF520FA0CFC02FA0EF792
:100260004CEA050C00FA0EF44FEA174A250CBCFBC9
:10027000FAF81FFA87F90AFB18CC45EA0C4508FB87
:1002800009F3AB420AD9ED1908F1FF3280F023815E
:10029000AB4240F22081A8F102083D44ED1AA4B21D
:1002A000B5FBFAF00AFB105544EA054400FB09F9D6
:1002B000A14509D9E41900F1FF3380F00A81A14575
:1002C00040F2078102383C44A4EB090440EA0840AC
:1002D0000021002E61D024FA0EF4002334607360F4
:1002E000BDE8F0878B4207D9002E54D0002186E864
:1002F00021000846BDE8F087B3FA83F1002940F0F9
:100300008E80AB4202D3824200F2FA80841A65EBFF
:1003100003050120AC46002E3FD086E81010BDE852
:10032000F08712B90127B7FBF2F7B7FA87FEBEF1E3
:10033000000F34D1EB1B3A0C1FFA87FC0121B3FBF1
:10034000F2F8250C02FB183345EA03450CFB08F3D1
:10035000AB4207D9ED1908F1FF3002D2AB4200F2EF
:10036000D1808046ED1AA3B2B5FBF2F002FB105526
:1003700043EA05440CFB00FCA44507D9E41900F14D
:10038000FF3302D2A44500F2B8801846A4EB0C0457
:1003900040EA08409DE731463046BDE8F087CEF19F
:1003A000200405FA0EF307FA0EF720FA04F83A0CC7
:1003B00025FA04F448EA0308B4FBF2F14FEA1845C1
:1003C00002FB11441FFA87FC45EA044501FB0CF3CC
:1003D000AB4200FA0EF409D9ED1901F1FF3080F0BB
:1003E0008A80AB4240F2878002393D44EB1A1FFA03
:1003F00088F5B3FBF2F002FB103345EA034500FB3E
:100400000CF3AB4207D9ED1900F1FF386FD2AB42C4
:100410006DD902383D44EB1A40EA01418FE7C1F142
:10042000200722FA07F88B4005FA01F448EA030393
:1004300020FA07FE4FEA134CFD404EEA040EB5FBCE
:10044000FCF94FEA1E440CFB19551FFA83F844EAE5
:10045000054509FB08F4AC4202FA01F200FA01FA80
:1004600008D9ED1809F1FF3043D2AC4241D9A9F1C6
:1004700002091D442D1B1FFA8EFEB5FBFCF00CFB80
:1004800010554EEA054400FB08F8A04507D9E418CA
:1004900000F1FF3529D2A04527D902381C4440EA93
:1004A0000940A4EB0804A0FB02894C45C6464D4612
:1004B00015D312D056B1BAEB0E0364EB050404FA5F
:1004C00007F7CB401F43CC40376074600021BDE884
:1004D000F0871846F8E69046E0E6C245EAD2B8EB67
:1004E000020E69EB03050138E4E72846D7E74046EA
:1004F00091E78146BEE7014678E702383C4445E78C
:10050000084608E7A8F102083D442BE7704700BF02
:1005100008B50B4B1A6842F400721A601A6842F46C
:1005200080621A601A6842F480721A60032000F038
:100530002FF8002002F0C2FE02F09EFE002008BD4F
:10054000003C0240034A1168034B1B780B441360C4
:10055000704700BFC43F002000000020014B186816
:10056000704700BFC43F002038B50446FFF7F6FFD0
:100570000546B4F1FF3F02D0044B1B781C44FFF743
:10058000EDFF401B8442FAD838BD00BF00000020B8
:10059000074AD36823F4E0631B041B0C000200F439
:1005A000E060184340F0BF6040F40030D060704716
:1005B00000ED00E030B4164BDB68C3F30223C3F157
:1005C0000704042C28BF04241D1D062D17D9033B46
:1005D000012505FA04F4013C2140994005FA03F392
:1005E000013B1340194300280BDB0901C9B200F19C
:1005F000604000F5614080F8001330BC7047002374
:10060000E6E700F00F000901C9B2024B1954F4E704
:1006100000ED00E014ED00E0002808DB420900F0E6
:100620001F00012303FA00F0014B43F8220070473A
:1006300000E100E05079137943EA002307480B50AA
:10064000D07893781B0443EA0063507843EA002390
:1006500012781343024A8B50704700BF408002401B
:100660004480024070B59EB0044629B14FF4006347
:10067000C3604FF480438360E369002B6AD14FF479
:100680008063079321680B68394A1A40A368E068C1
:1006900003430798034343F4007313430B60236839
:1006A0001D680120FFF760FF23681D60236840225A
:1006B0005A6023685D680120FFF756FF23685D607C
:1006C000236800259D602368DD602268936923F01C
:1006D000BE031B041B0C43F08003936123689E69D7
:1006E0000120FFF741FF23689E612368DD612368D5
:1006F000DD690120FFF738FF2368DD61226841F2E0
:10070000180551591B4B0B4043F0087343F0040389
:10071000535123685E590120FFF726FF23685E517D
:10072000236803F58053144A1A60236803F5805345
:100730001D680120FFF718FF236803F580531D6033
:10074000A369012B09D0626900212046FFF772FFDF
:100750001EB070BD0023079394E7216841F21C028C
:100760008B5843F4803343F040038B50EBE700BFDA
:100770000F8120FF233FDEF88020C102F8B590F8FA
:100780004430DBB2822B01D10220F8BD164605466B
:10079000822380F844300268146904F01C04038A40
:1007A000DB029BB21C43890101F4F8610C4344F065
:1007B00001041461FFF7D2FE074614F0010F10D0B8
:1007C000FFF7CCFEC01BB0F5803F02D22B681C693E
:1007D000F3E7012385F84430002385F845300320F2
:1007E000F8BD2B685B699BB23360012385F8443008
:1007F0000020F8BD90F84430DBB2422B01D102203A
:10080000704770B50546422380F84430006804699B
:1008100004F01C042B8ADB029BB21C43890101F407
:10082000F8610C4344F0030492B242612B681C61EE
:10083000FFF794FE064614F0010F10D0FFF78EFE6E
:10084000801BB0F5803F02D22B681C69F3E70123BF
:1008500085F84430002385F84530032070BD01231E
:1008600085F84430002070BD70B582B0002301933C
:10087000002800F00E81044690F84430002B34D05C
:1008800000230093844B5A6C42F480425A645B6CA0
:1008900003F480430093009B804B5A6822F40002CB
:1008A0005A605A68216A0A435A60236803F58053E4
:1008B0001A6842F001021A60FFF750FE05462368ED
:1008C00003F58052126812F0010F13D0FFF746FEB5
:1008D000401BB0F5FA7FF2D9032584F84450002379
:1008E00084F84530284602B070BD80F8453002F0EB
:1008F0008FFAC5E71D6925F01C0500F04DFD684B1A
:100900000344684A934255D845F0080523681D61A1
:100910004FF4004200212046FFF76CFF05460028F7
:1009200060D1FF20FFF720FE6368002B00F091806C
:10093000FFF714FE064601AA01212046FFF71EFF1D
:10094000FFF70CFE801B41F28833984252D8019B7E
:1009500013F0040FEFD04FF4805200212046FFF730
:1009600049FF002852D1FFF7F9FD064601AA0121EF
:100970002046FFF703FFFFF7F1FD801B41F28833AC
:1009800098424BD8019B13F0200FEFD001AA1F21F2
:100990002046FFF7F3FE00284CD1019B13F0100F07
:1009A00050D04FF40062E26013F0040F4DD00023EA
:1009B000A3605EE03C4B03443C4A934202D845F0BE
:1009C0000C05A3E73A4B03443A4A93429ED93A4B6B
:1009D00003443A4A934202D845F0040596E745F0AD
:1009E000100593E701212046FFF73CFE012584F81E
:1009F000445077E701212046FFF734FE012384F8B5
:100A00004430002384F8453003256BE7012120465C
:100A1000FFF728FE012584F8445063E701212046B2
:100A2000FFF720FE012384F84430002384F845308A
:100A3000032557E701212046FFF714FE012584F81E
:100A400044504FE70022E260AEE74FF48043A360DA
:100A50000FE0E368C3F3CF02A368C3F34F031A4365
:100A600000212046FFF7C6FE58B940F6FF70FFF799
:100A70007BFD00212046FFF7F5FD012384F844307B
:100A800030E701212046FFF7EDFD012584F84450B1
:100A900028E7012526E700BF003802400038014062
:100AA00000D3CEFEBFE1E40040F1E9FD3F787D01D7
:100AB00000796CFCFF596202001F0AFA7FF0FA020B
:100AC000F0B583B000244BE04FEAD40E0EF1080ECF
:100AD00050F82E2004F00706B6000F27B74022EA90
:100AE00007020F6907FA06F6324340F82E2046E067
:100AF000092600E0002606FA0EF632430233644E61
:100B000046F82320634B1A68EB4302EA03064F685A
:100B100017F4803F01D045EA02065E4A166052682B
:100B200003EA02064F6817F4003F01D045EA0206C7
:100B3000584A5660926803EA02064F6817F4801F0D
:100B400001D045EA0206534A9660D26813404E68C7
:100B500016F4001F01D045EA02034E4AD360013467
:100B60000F2C00F292800123A3400A6803EA0205D9
:100B7000AB42F4D14A68022AA6D0122AA4D0066851
:100B80004FEA440E032202FA0EF2D24316404F6897
:100B900007F0030707FA0EF73E4306604E68771E1C
:100BA000012F03D9112E01D0122E0FD186681640C5
:100BB000CF6807FA0EF73E438660466826EA0303CD
:100BC0004E68C6F30016A64033434360C3681A401C
:100BD0008B6803FA0EF31A43C2604B6813F0805F10
:100BE000BDD0002301932C4B5A6C42F480425A64CE
:100BF0005B6C03F480430193019BA3089E1C244A71
:100C000052F8262004F003064FEA860E0F2606FA55
:100C10000EF622EA0602214FB8423FF46BAF204E97
:100C2000B04222D006F58066B04220D006F580663C
:100C3000B0421ED006F58066B0421CD006F5806634
:100C4000B0421AD006F58066B04218D006F580662C
:100C5000B04216D006F58066B04214D006F5806624
:100C6000B0423FF445AF0A2645E7012643E7022696
:100C700041E703263FE704263DE705263BE7062636
:100C800039E7072637E7082635E703B0F0BD00BF90
:100C900000380140003C01400038024000000240A2
:100CA0000004024012B909048161704781617047F4
:100CB000F0B58BB0002800F08A800446056890F8F3
:100CC000BD3323B3032384F8BD33EB6B13F4807F70
:100CD00001D100232361206800F02DFF254655F83F
:100CE000107B6E460FCD0FC60FCD0FC695E80300E3
:100CF00086E80300231D0ECB384600F0D7FE58B11E
:100D0000022384F8BD33012528460BB0F0BD80F8DE
:100D1000BC3302F0D1FBD5E70021206800F011FFC1
:100D2000002315E0D900C81A82002244012082F86D
:100D30003D0082F83C30A2F84230002082F83F00AB
:100D400050649064CA1A9100214408650133DBB2F3
:100D50006568AB42E6D3002315E0D800C11A8A00CB
:100D60002244002182F8FD1182F8FC3182F8FF1143
:100D7000C2F80412C2F80812C21A90002044C0F847
:100D800010120133DBB29D42E7D8254655F8107B9F
:100D90006E460FCD0FC60FCD0FC695E8030086E84F
:100DA0000300231D0ECB384600F012FF054620B18C
:100DB000022384F8BD330125A6E7002384F83830E8
:100DC000012384F8BD33206800F0D2FF9CE70125A1
:100DD0009AE70000002800F0BB8170B582B004469D
:100DE000036813F0010F3BD0A74B9B6803F00C0383
:100DF000042B2CD0A44B9B6803F00C03082B21D0B0
:100E00006368B3F5803F4FD0B3F5A02F52D09E4B0F
:100E10001A6822F480321A601A6822F480221A605A
:100E20006368002B50D0FFF799FB0546964B1B6873
:100E300013F4003F14D1FFF791FB401B6428F5D950
:100E400003208AE1904B5B6813F4800FD8D08E4B5F
:100E50001B6813F4003F03D06368002B00F07A8115
:100E6000236813F0020F55D0874B9B6813F00C0FCB
:100E70003ED0854B9B6803F00C03082B33D0E3680E
:100E8000002B68D00122814B1A60FFF767FB0546F3
:100E90007D4B1B6813F0020F54D1FFF75FFB401B23
:100EA0000228F5D9032058E1774A136843F48033C8
:100EB0001360B5E7744B1A6842F480221A601A680E
:100EC00042F480321A60ABE7FFF748FB05466E4BF1
:100ED0001B6813F4003FC3D0FFF740FB401B64289E
:100EE000F5D9032039E1684B5B6813F4800FC6D154
:100EF000654B1B6813F0020F04D0E368012B01D08F
:100F000001202AE1604A136823F0F803216943EACB
:100F1000C1031360236813F0080F40D0636963B303
:100F200001225B4B1A60FFF719FB0546564B5B6FBE
:100F300013F0020F33D1FFF711FB401B0228F5D944
:100F400003200AE1504A136823F0F803216943EAB9
:100F5000C1031360DEE700224C4B1A60FFF7FEFA74
:100F60000546494B1B6813F0020FD3D0FFF7F6FA82
:100F7000401B0228F5D90320EFE00022444B1A6001
:100F8000FFF7ECFA0546404B5B6F13F0020F06D0FB
:100F9000FFF7E4FA401B0228F5D90320DDE02368BF
:100FA00013F0040F79D0384B1B6C13F0805F33D1F2
:100FB00000230193344B1A6C42F080521A641B6C6C
:100FC00003F080530193019B0125324B1B6813F4FE
:100FD000807F23D0A368012B34D0052B38D02A4B37
:100FE0001A6F22F001021A671A6F22F004021A67C0
:100FF000A368002B36D0FFF7B1FA0646224B1B6FD1
:1010000013F0020F48D1FFF7A9FA801B41F2883391
:101010009842F3D90320A0E00025D6E71D4A1368C3
:1010200043F480731360FFF799FA0646194B1B6867
:1010300013F4807FCED1FFF791FA801B0228F5D9F7
:1010400003208AE0104A136F43F001031367CFE7D0
:101050000D4B1A6F42F004021A671A6F42F0010238
:101060001A67C5E7FFF77AFA0646074B1B6F13F0BE
:10107000020F11D0FFF772FA801B41F288339842B9
:10108000F3D9032069E000BF003802400000474266
:10109000800E474200700040E5B9A369002B5BD089
:1010A000304A926802F00C02082A58D0022B17D05E
:1010B00000222D4B1A60FFF751FA0446294B1B689A
:1010C00013F0007F42D0FFF749FA001B0228F5D940
:1010D000032042E0234A136C23F080531364DCE7BF
:1010E0000022214B1A60FFF739FA05461D4B1B6899
:1010F00013F0007F06D0FFF731FA401B0228F5D924
:1011000003202AE0E369226A1343626A43EA8213F6
:10111000A26A5208013A43EA0243E26A43EA0263DE
:10112000104A53600122104B1A60FFF717FA044669
:101130000C4B1B6813F0007F06D1FFF70FFA001B62
:101140000228F5D9032008E0002006E0002004E092
:1011500001207047012000E0002002B070BD012096
:10116000FBE700BF0038024060004742F8B5314B52
:101170009B6803F00C03042B59D0082B01D02E4898
:10118000F8BD2C4B5A6802F03F025B6813F4800FE5
:101190002AD0284B5B68C3F388131E4600275C01E6
:1011A0000025E41A65EB0705A90141EA9461A00155
:1011B000001B61EB0501CB0043EA5073C400A0198A
:1011C00043EB07014B0243EAD05344022046194641
:1011D0000023FFF715F8174B5B68C3F30143013396
:1011E0005B00B0FBF3F0F8BD124B5B68C3F38813F0
:1011F0001E4600275C010025E41A65EB0705A901DE
:1012000041EA9461A001001B61EB0501CB0043EAB8
:101210005073C400A01943EB07018B0243EA9053BB
:101220008402204619460023FEF7EAFFD3E703486D
:10123000F8BD00BF003802400024F40000127A001C
:10124000002800F09D8070B504464F4B1B6803F0EA
:101250000F038B4209D2CBB24B4A1370136803F0D1
:101260000F03994201D0012070BD236813F0020FD3
:1012700017D013F0040F04D0444A936843F4E053AA
:101280009360236813F0080F04D0404A936843F436
:10129000604393603D4A936823F0F003A0680343E2
:1012A00093600D46236813F0010F32D06368012B61
:1012B00021D09A1E012A25D9344A126812F0020F51
:1012C00060D032498A6822F0030213438B60FFF733
:1012D00045F906462D4B9B6803F00C036268B3EB9F
:1012E000820F16D0FFF73AF9801B41F288339842FB
:1012F000F0D9032070BD254A126812F4003FE0D1F6
:10130000012070BD214A126812F0007FD9D101205E
:1013100070BD1D4B1B6803F00F039D4209D2EAB25A
:10132000194B1A701B6803F00F039D4201D0012076
:1013300070BD236813F0040F06D0144A936823F499
:10134000E053E1680B439360236813F0080F07D064
:101350000E4A936823F46043216943EAC103936012
:10136000FFF704FF094B9B68C3F30313084AD35CE0
:10137000D840084B1860002001F0A0FF002070BD8D
:1013800001207047012070BD003C0240003802403F
:10139000C836000808000020014B1868704700BFDD
:1013A0000800002008B5FFF7F7FF044B9B68C3F364
:1013B0008223034AD35CD84008BD00BF00380240F6
:1013C000D836000808B5FFF7E7FF044B9B68C3F366
:1013D0004233034AD35CD84008BD00BF0038024006
:1013E000D83600080F2303600B4B9A6802F0030203
:1013F00042609A6802F0F00282609A6802F4E05259
:10140000C2609B68DB0803F4E0530361034B1B6875
:1014100003F00F030B60704700380240003C0240AD
:1014200070470268D36843F00103D3600268936891
:1014300003F00703062B03D0136843F00103136086
:1014400000207047704770477047704710B50446DA
:1014500003681A6912F0020F11D0DA6812F0020F55
:101460000DD06FF002021A610123037703689B69B4
:1014700013F0030F70D0FFF7E6FF002323772368F4
:101480001A6912F0040F12D0DA6812F0040F0ED0AD
:101490006FF004021A610223237723689B6913F417
:1014A000407F5FD02046FFF7CEFF002323772368DD
:1014B0001A6912F0080F12D0DA6812F0080F0ED075
:1014C0006FF008021A61042323772368DB6913F0A5
:1014D000030F4ED02046FFF7B6FF00232377236883
:1014E0001A6912F0100F12D0DA6812F0100F0ED035
:1014F0006FF010021A61082323772368DB6913F465
:10150000407F3DD02046FFF79EFF002323772368CE
:101510001A6912F0010F03D0DA6812F0010F36D108
:1015200023681A6912F0800F03D0DA6812F0800F76
:1015300034D123681A6912F0400F03D0DA6812F030
:10154000400F32D123681A6912F0200F03D0DA68F5
:1015500012F0200F30D110BDFFF774FF2046FFF7C7
:1015600073FF8AE72046FFF76DFF2046FFF76CFF09
:101570009BE72046FFF766FF2046FFF765FFACE7D5
:101580002046FFF75FFF2046FFF75EFFBDE76FF0E5
:1015900001021A61204601F061FEC1E76FF080028E
:1015A0001A61204600F090F8C3E76FF040021A611C
:1015B0002046FFF74AFFC5E76FF020021A61204678
:1015C00000F081F8C7E700000368314A904212D06A
:1015D000B0F1804F0FD0A2F57C4290420BD002F5C3
:1015E0008062904207D002F58062904203D002F5FB
:1015F0007842904203D123F070034A681343244A8F
:1016000090422AD0B0F1804F27D0A2F57C42904280
:1016100023D002F5806290421FD002F58062904292
:101620001BD002F57842904217D002F570529042DA
:1016300013D002F5806290420FD002F58062904292
:101640000BD0A2F59832904207D002F5806290420A
:1016500003D002F58062904203D123F44073CA683C
:10166000134323F080034A69134303608B68C3620A
:101670000B688362064B984206D003F5806398425C
:1016800002D00123436170470B690363F9E700BF90
:1016900000000140A8B110B5044690F83D305BB1A0
:1016A000022384F83D30211D2068FFF78DFF0123C0
:1016B00084F83D30002010BD80F83C30FFF7B0FECC
:1016C000EEE7012070477047704700002DE9F047B2
:1016D00004460268136923F44053C1680B43136145
:1016E00083680269134342691343C2691343016863
:1016F000CA6822F4164222F00C021343CB6002683F
:10170000536923F4407381690B435361C369B3F593
:10171000004F62D0D0F80080BB4B984500F01B8191
:1017200003F58063984500F01681FFF73BFE00EB60
:10173000800000EB80006568AD00B0FBF5F5B34FAD
:10174000A7FB05356D092E01FFF72CFE00EB80008D
:1017500000EB80006568AD00B0FBF5FAFFF722FEF4
:1017600000EB800000EB80006568AD00B0FBF5F594
:10177000A7FB05356D094FF0640909FB15A52D017F
:101780003235A7FB05356D0905F0F0053544FFF747
:1017900009FE00EB800000EB80006668B600B0FB3D
:1017A000F6F6FFF7FFFD00EB800000EB80006368BA
:1017B0009B00B0FBF3F0A7FB0030400909FB106968
:1017C0004FEA091909F13209A7FB0937C7F3431793
:1017D0002F44C8F80870BDE8F087D0F8008003F106
:1017E000804303F5104398455CD003F5806398452A
:1017F00058D0FFF7D7FD00EB800000EB8000656854
:101800006D00B0FBF5F5814FA7FB05356D092E0185
:10181000FFF7C8FD00EB800000EB800065686D00FD
:10182000B0FBF5FAFFF7BEFD00EB800000EB800097
:1018300065686D00B0FBF5F5A7FB05356D094FF048
:10184000640909FB15A5ED003235A7FB05356D09C7
:101850006D0005F4F8753544FFF7A4FD00EB80003A
:1018600000EB800066687600B0FBF6F6FFF79AFDA5
:1018700000EB800000EB800063685B00B0FBF3F3DB
:10188000A7FB03235B0909FB13694FEAC90909F1A7
:101890003209A7FB0937C7F342172F44C8F808706D
:1018A000BDE8F087FFF78EFD00EB800000EB8000C5
:1018B00065686D00B0FBF5F5544FA7FB05356D0964
:1018C0002E01FFF77FFD00EB800000EB80006568D4
:1018D0006D00B0FBF5FAFFF775FD00EB800000EB43
:1018E000800065686D00B0FBF5F5A7FB05356D0957
:1018F0004FF0640909FB15A5ED003235A7FB05354E
:101900006D096D0005F4F8753544FFF75BFD00EBDC
:10191000800000EB800066687600B0FBF6F6FFF70B
:1019200051FD00EB800000EB800063685B00B0FBC2
:10193000F3F3A7FB03235B0909FB13694FEAC9090A
:1019400009F13209A7FB0937C7F342172F44C8F83A
:101950000870BDE8F087FFF735FD00EB800000EB75
:1019600080006568AD00B0FBF5F5284FA7FB053595
:101970006D092E01FFF726FD00EB800000EB8000D3
:101980006568AD00B0FBF5FAFFF71CFD00EB8000C9
:1019900000EB80006568AD00B0FBF5F5A7FB0535F1
:1019A0006D094FF0640909FB15A52D013235A7FB20
:1019B00005356D0905F0F0053544FFF703FD00EB33
:1019C000800000EB80006668B600B0FBF6F6FFF71B
:1019D000F9FC00EB800000EB800063689B00B0FB2B
:1019E000F3F3A7FB03235B0909FB13694FEA09190A
:1019F00009F13209A7FB0937C7F343172F44C8F889
:101A00000870BDE8F08700BF001001401F85EB5152
:101A100058B310B5044690F839300BB3242384F83A
:101A200039302268D36823F40053D3602046FFF78F
:101A30004DFE2268136923F49043136122685369B1
:101A400023F02A0353612268D36843F40053D36020
:101A50000020E063202384F8393084F83A3010BD48
:101A600080F8383001F0D2FCD8E701207047000040
:101A7000002301330C4A934211D80269002AF8DA94
:101A8000036943F00103036100230133064A9342D3
:101A900007D8026912F0010FF7D100207047032028
:101AA00070470320704700BF400D030084B010B59D
:101AB000044603A880E80E00089B012B0DD0E368C4
:101AC00043F04003E3602046FFF7D2FF0C9B23BBAB
:101AD000A36B43F48033A36313E0A36B23F480333D
:101AE000A363E36823F4840323F04003E360E36823
:101AF00023F44013E3600F9B012B09D02046FFF72E
:101B0000B7FF069B012B0DD0BDE8104004B0704715
:101B1000E36843F48013E360F0E7A36B23F48033BE
:101B2000A363EEE7A36843F00603A360A36843F052
:101B30002003A360E8E7836823F0010383600020AB
:101B4000704708B5C36823F0C043C360012909D0BA
:101B500069B9C36843F08043C3603220FEF704FDD7
:101B6000002008BDC36843F00053C360F5E70120BF
:101B700008BD0000890141F020010161002301330B
:101B8000054A934205D8026912F0200FF7D10020D0
:101B900070470320704700BF400D0300102303610E
:101BA00000230133054A934205D8026912F0100F51
:101BB000F7D1002070470320704700BF400D03009D
:101BC000D0F800381943C0F8001800207047000012
:101BD00084B02DE9F041044607A880E80E002546B0
:101BE000002306E003F1400204EB82020021516071
:101BF00001330E2BF6D9119B73BBA36B43F4001377
:101C0000A363A36B23F40023A363A36B23F48023B8
:101C1000A3630023C4F8003E04F50066D4F800383E
:101C2000C4F800380C9B012B1FD003212046FFF77E
:101C3000C7FF10212046FFF79DFF804608B14FF0F7
:101C400001082046FFF7AAFF08B14FF00108002362
:101C500033617361F3611FE0236823F40013236091
:101C6000A36B43F40023A363D3E7099B23B90021AB
:101C70002046FFF7A5FFDCE701212046FFF7A0FF84
:101C8000D7E7C3B94FF00060C2F8000900220A612B
:101C90004FF67F328A60013307998B4210D205EBF1
:101CA000431202F51061D2F800090028E9DB002098
:101CB000C2F80009EAE74FF09040C2F80009E5E7F2
:101CC00000230AE0BBB14FF09047C2F8007B00222E
:101CD00002614FF67F32826001338B4210D205EBF6
:101CE000431202F53060D2F8007B002FEADB0027B8
:101CF000C2F8007BEBE74FF00067C2F8007BE6E735
:101D0000336923F4807333610A9B012B1BD00022BB
:101D1000A2616FF0804262611BB9A36943F01003B6
:101D2000A361A269104B1343A3610D9B1BB1A3696F
:101D300043F00803A361119B012B0DD04046BDE881
:101D4000F04104B07047094A3263326B42F480328A
:101D500042F003023263DAE7A36943F0804343F0C1
:101D60000403A361EAE700BF00383C800001800063
:101D700008B5D0F8043843F00203C0F80438032053
:101D8000FEF7F2FB002008BD842801D00330704725
:101D90000020704708B500F001FE002008BD2DE9C5
:101DA000F04387B004460F464569BDB18669AEB1C0
:101DB000D0F80480D0F80090B0F90800FFF7E4FFF5
:101DC00022690296019500903B464946404600F044
:101DD00079FD0590059807B0BDE8F0836568266831
:101DE000D4F81080B4F90800FFF7CEFF05AB0193DB
:101DF00000903B461FFA88F23146284600F09BFDD2
:101E00000128E7D00020E6E708B5034600B9012322
:101E1000184600F015FF002008BD10B582B082689A
:101E20004AB1C3683BB1416800680024009400F0E7
:101E30004BFB02B010BD00224168006800F094FB2B
:101E4000F7E700F1080343604FF0FF328260C360A0
:101E500003610023036070470023036170474368F8
:101E60004B609A688A609A6851609960086103685B
:101E700001330360704730B40D68B5F1FF3F02D005
:101E800000F1080202E0026904E01A4653681C6887
:101E9000A542FAD253684B6099608A60516008612C
:101EA00003680133036030BC70470369426881688E
:101EB00091608268416851605A68904206D0002261
:101EC00002611A68013A1A601868704782685A609D
:101ED000F5E7000082B0002301930D4B1B68B3F1BE
:101EE000FF3F08D04FF0500383F31188BFF36F8F8B
:101EF000BFF34F8FFEE74FF0500383F31188BFF31A
:101F00006F8FBFF34F8F019B002BFCD002B0704747
:101F10000400002008480068006880F308884FF03B
:101F2000000080F3148862B661B6BFF34F8FBFF331
:101F30006F8F00DF00BF000008ED00E0DFF80C004D
:101F4000016841F4700101607047000088ED00E015
:101F50004FF0807340F8043C21F0010140F8081C68
:101F6000054B40F80C3C40F8202C6FF0020340F881
:101F7000243C4438704700BFD51E00080000000014
:101F8000074B19680868B0E8F04F80F30988BFF381
:101F90006F8F4FF0000080F311887047AFF300801F
:101FA000483C00204FF0500383F31188BFF36F8F3C
:101FB000BFF34F8F0A4A136801331360012B0DD111
:101FC000084B1B6813F0FF0F08D04FF0500383F34A
:101FD0001188BFF36F8FBFF34F8FFEE7704700BFCD
:101FE0000400002004ED00E0094B1B6843B94FF0EA
:101FF000500383F31188BFF36F8FBFF34F8FFEE75A
:10200000013B034A13600BB983F31188704700BF8B
:10201000040000200000000000000000000000009C
:10202000EFF30980BFF36F8F154B1A681EF0100F86
:1020300008BF20ED108A20E9F04F10602DE909005B
:102040004FF0500080F31188BFF34F8FBFF36F8FB5
:1020500000F01EFE4FF0000080F3118809BC1968E3
:102060000868B0E8F04F1EF0100F08BFB0EC108AFF
:1020700080F30988BFF36F8F704700BFAFF3008014
:10208000483C002008B54FF0500383F31188BFF39C
:102090006F8FBFF34F8F00F0C5FC18B14FF0805227
:1020A000024B1A60002383F3118808BD04ED00E0A1
:1020B000084A0023136008490B60084B1B68084955
:1020C000A1FB03139B09013B06490B600723136027
:1020D000704700BF10E000E018E000E008000020BA
:1020E000D34D621014E000E03A4B1A683A4B9A4222
:1020F00008D14FF0500383F31188BFF36F8FBFF304
:102100004F8FFEE7334B1A68344B9A4208D14FF099
:10211000500383F31188BFF36F8FBFF34F8FFEE738
:1021200010B582B02E4B1A78D2B20192FF221A70EB
:102130001B78DBB28DF803309DF8033003F05003B9
:10214000284A13700722284B1A6009E0264A1368B0
:10215000013B13609DF803305B00DBB28DF8033068
:102160009DF8033013F0800FF0D11F4B1B68032B39
:1021700008D04FF0500383F31188BFF36F8FBFF384
:102180004F8FFEE71B0203F4E063174A1360019BC5
:10219000DBB2134A1370154B1A6842F470021A60CE
:1021A0001A6842F070421A60FFF782FF0024104B59
:1021B0001C60FFF7C3FE0F4A136843F040431360EF
:1021C000FFF7A8FE00F064FDFFF784FE204602B092
:1021D00010BD00BF00ED00E071C20F4170C20F41A1
:1021E00000E400E0280000202C00002020ED00E0AA
:1021F0000400002034EF00E0124A12F0070F1ED056
:10220000D11D21F00701C1F5705313440A460E4851
:102210000260002141601344083B23F007030B4890
:10222000036059601960991A51601360084B196076
:10223000084B19604FF00042074B1A6070474FF48B
:102240007053E4E734000020403C002030000020C0
:102250003C3C0020383C0020343C002010B4134BA0
:102260001A6882421BD359685C18A04203D14068A7
:1022700001445960184641684418A24213D10C4CDD
:102280002468A2420DD05268114441601A68126855
:102290000260984200D018605DF8044B7047134606
:1022A000DEE70460F5E70260F3E700BF403C002092
:1022B0003000002070B5044600F0ACFB3A4B1B68C0
:1022C000BBB13A4B1B681C4263D1ACB1083414F06B
:1022D000070F11D024F00704083404F007035BB1A2
:1022E0004FF0500383F31188BFF36F8FBFF34F8F0D
:1022F000FEE7FFF781FFE4E7002C4CD02C4B1B6876
:102300009C424AD82B4B1D6801E02B4615466A6853
:10231000944202D92A68002AF7D1234A12689542CA
:102320003DD01E6808362A681A606B681B1B102B8C
:1023300010D9281910F0070F08D04FF0500383F37D
:102340001188BFF36F8FBFF34F8FFEE743606C6060
:10235000FFF784FF6A6816490B689B1A0B601649E1
:1023600009688B4201D214490B60104B1B68134360
:102370006B6000232B6000F0E5FB16F0070F10D018
:102380004FF0500383F31188BFF36F8FBFF34F8F6C
:10239000FEE70026EFE70026EDE70026EBE7002644
:1023A000E9E7304670BD00BF30000020343C00201B
:1023B000383C0020403C00203C3C002080B338B535
:1023C0000446A0F1080550F8042C164909680A4291
:1023D00008D14FF0500383F31188BFF36F8FBFF321
:1023E0004F8FFEE750F8080C40B14FF0500383F3D5
:1023F0001188BFF36F8FBFF34F8FFEE722EA010210
:1024000044F8042C00F006FB54F8041C064A136838
:102410000B4413602846FFF721FF00F093FB38BD03
:10242000704700BF343C0020383C002038B530B342
:1024300004460D46FFF7B6FD2168E26B236C03FBF3
:10244000021060600020A063A160013A02FB031348
:10245000E360FF2384F8443084F84530C5B923692C
:10246000F3B104F1100000F061FCC8B14FF08052EC
:102470000D4B1A60BFF34F8FBFF36F8F10E04FF01B
:10248000500383F31188BFF36F8FBFF34F8FFEE7C5
:1024900004F11000FFF7D5FC04F12400FFF7D1FC94
:1024A000FFF7A2FD012038BD04ED00E010B5029B4E
:1024B0000C4639B11A60D8631C6401211846FFF735
:1024C000B5FF10BD1B60F6E740B94FF0500383F332
:1024D0001188BFF36F8FBFF34F8FFEE710B584B045
:1024E000044663B1A2B1A9B10120A8B94FF05003CD
:1024F00083F31188BFF36F8FBFF34F8FFEE74FF069
:10250000500383F31188BFF36F8FBFF34F8FFEE744
:102510000120EAE70020E8E70AB901B1002040B94C
:102520004FF0500383F31188BFF36F8FBFF34F8FCA
:10253000FEE7482003900398482808D04FF0500346
:1025400083F31188BFF36F8FBFF34F8FFEE72046F1
:102550001C46012384F8463000949DF81830FFF79C
:10256000A5FF204604B010BD40B94FF0500383F3DF
:102570001188BFF36F8FBFF34F8FFEE7F0B583B0C5
:10258000064611B101FB00F000E0002017460C46A2
:102590004830FFF78FFE054650B1002380F84630E3
:1025A00000903B4600F1480221463046FFF77EFF8F
:1025B000284603B0F0BD00000A4B1B681B684BB9EE
:1025C00001234BB9074B1B68DB68DB685A68064B75
:1025D0001A6070470023F4E74FF0FF32024B1A6095
:1025E000704700BF4C3C0020203D00202DE9F04703
:1025F00080469946089D099F0A9C266B02F18042FD
:10260000013A06EB820626F0070600230F2B07D8B7
:10261000C85CE21882F83400CA5C0AB10133F5E7FD
:10262000002384F84330062D00D90625E562656451
:102630004FF0000AC4F848A0201DFFF70DFC04F17C
:102640001800FFF709FC2461C5F10705A561646264
:10265000C4F84CA084F850A04A4641463046FFF7E3
:1026600077FC206007B13C60BDE8F08738B50024F6
:1026700007E004EB840293000E481844FFF7E1FBE7
:102680000134062CF5D90C4D2846FFF7DAFB0B4C2C
:102690002046FFF7D6FB0A48FFF7D3FB0948FFF7B0
:1026A000D0FB0948FFF7CDFB084B1D60084B1C60B1
:1026B00038BD00BF543C0020F83C00200C3D0020F9
:1026C000283D0020543D0020403D00204C3C00208F
:1026D000503C002010B50446FFF764FC204A136804
:1026E000013313601F4B1B68002B31D01E4B1B683E
:1026F0003BB91C4B1B68DA6AE36A9A4201D8194B52
:102700001C601A4A136801331360E36A01229A407D
:102710001749086802430A6003EB83039A00211DEE
:1027200014481044FFF79BFBFFF75EFC0E4B1B6841
:102730006BB10C4B1B68DA6AE36A9A4207D24FF01E
:1027400080520D4B1A60BFF34F8FBFF36F8F10BDD8
:10275000044B1C601368012BD3D1FFF787FFD0E730
:10276000E03C0020483C00203C3D0020F03C0020A4
:10277000F43C0020543C002004ED00E010B5044679
:1027800090F8513063B1012B11D0022B12D04FF0D1
:10279000500383F31188BFF36F8FBFF34F8FFEE7B2
:1027A000006BFFF70BFE2046FFF708FE10BDFFF79A
:1027B00005FE10BD10BD00000F4B1B68D3B110B556
:1027C000FFF7F0FB0D4BDB68DC68201DFFF76DFBAE
:1027D0000B4A1368013B1360074A1368013B1360FF
:1027E000FFF702FC2046FFF7C9FF034B1B68002BD5
:1027F000E6D110BD704700BFE43C0020543D0020EE
:10280000E03C002008B5FFF7D7FF064B1B68012B03
:10281000F9D94FF08052044B1A60BFF34F8FBFF3CA
:102820006F8FF0E7543C002004ED00E070B50446E3
:102830000E461D4B1D681D4B18680430FFF735FB15
:1028400050B91A4B1B68DA6A012303FA02F21849DD
:102850000B6823EA02030B60B4F1FF3F13D02C4452
:10286000124B1B685C60A54216D8124B18680F4BC0
:1028700019680431FFF7FFFA0F4B1B689C4201D225
:102880000D4B1C6070BD002EE9D0084B1968043157
:102890000A48FFF7E4FA70BD094B1868034B196842
:1028A0000431FFF7E8FA70BD683D0020483C002085
:1028B000F43C00204C3C0020203D0020403D002006
:1028C000503C002070B586B00B9D0C9C75B1B4B126
:1028D00054260496049E542E1AD04FF0500383F3CE
:1028E0001188BFF36F8FBFF34F8FFEE74FF0500398
:1028F00083F31188BFF36F8FBFF34F8FFEE74FF065
:10290000500383F31188BFF36F8FBFF34F8FFEE740
:102910002563022584F8515000250395029405ADE6
:1029200001950A9D0095FFF761FE2046FFF7D2FE54
:10293000059806B070BD2DE9F04385B006460F46F8
:10294000154698469000FFF7B5FC10B38146542019
:10295000FFF7B0FC0446C0B1C0F83090DCB10023F2
:1029600084F85130039302940D9B01930C9B0093C8
:1029700043462A4639463046FFF738FE2046FFF7E1
:10298000A9FE012005B0BDE8F0834846FFF716FD1B
:10299000E4E70024E2E74FF0FF30F3E710B588B03A
:1029A00000240594069407AA06A905A800F0ECFAED
:1029B000059B0293069B019300942346079A1049B6
:1029C0001048FFF77FFF18B101231BB908B010BDF5
:1029D0000023FAE74FF0500383F31188BFF36F8FA2
:1029E000BFF34F8F4FF0FF32074B1A600122074BA6
:1029F0001A600022064B1A60FFF776FBE6E700BF7D
:102A00008436000805280008203D00203C3D0020B9
:102A1000683D0020024A136801331360704700BF0D
:102A2000EC3C0020F8B53C4B1B68002B68D13B4BBD
:102A30001D6801351D60C5B9394B1B681B6843B162
:102A40004FF0500383F31188BFF36F8FBFF34F8FA5
:102A5000FEE7334A1168334B186810601960324A38
:102A6000136801331360FFF7A7FD304B1B689D42CD
:102A70003AD200242E4B1B68DB6A03EB83039A00D7
:102A80002C4B9B58012B40D901243EE00124244BC0
:102A90001B681B6853B3002353BB214B1B68DB68C7
:102AA000DE6873689D4228D3371D3846FFF7FDF96D
:102AB000B36A1BB106F11800FFF7F7F9F36A0122B8
:102AC0009A401D49086802430A6003EB83039A0099
:102AD000394618481044FFF7C2F9F26A144B1B68D4
:102AE000DB6A9A42D2D2D2E70024D0E70123D3E7AF
:102AF0004FF0FF320D4B1A60BCE70C4A1360B9E788
:102B00000E4A13680133136000240D4B1B6803B198
:102B100001242046F8BD00BFEC3C0020683D0020A9
:102B20004C3C0020503C0020243D0020203D002053
:102B3000483C0020543C0020F43C0020E83C0020AD
:102B40006C3D002038B5354B1B6843B94FF050033E
:102B500083F31188BFF36F8FBFF34F8FFEE7FFF74B
:102B600021FA2E4B1A68013A1A601B68002B50D1CB
:102B70002B4B1B6823B90024FFF736FA204638BDDB
:102B80000024284B1B681BB3264BDB68DC6804F170
:102B90001800FFF78AF9251D2846FFF786F9E36A32
:102BA00001229A402049086802430A6003EB83032C
:102BB0009A0029461D481044FFF751F9E26A1C4B60
:102BC0001B68DB6A9A42DCD301221A4B1A60D8E7F1
:102BD0000CB1FFF7F1FC184B1C6874B9154B1B685E
:102BE000CBB14FF08052154B1A60BFF34F8FBFF33C
:102BF0006F8F0124C0E7013C07D0FFF713FF0028C7
:102C0000F9D001220B4B1A60F5E700220A4B1A603B
:102C1000E4E70024B0E70024AEE700BFEC3C00206E
:102C2000E03C0020283D0020F43C0020543C0020E3
:102C3000483C00206C3D0020E83C002004ED00E012
:102C400010B5A8B10446104B1B6843B14FF05003B8
:102C500083F31188BFF36F8FBFF34F8FFEE7FFF74A
:102C6000D9FE00212046FFF7E1FDFFF76BFF00E0F2
:102C7000002038B94FF08052044B1A60BFF34F8FD9
:102C8000BFF36F8F10BD00BFEC3C002004ED00E0EF
:102C9000214B1B68C3B90022204B1A60204B1B68D4
:102CA000B3FA83F3DBB2C3F11F0303EB83018A00A2
:102CB0001C498A5862B94FF0500383F31188BFF35F
:102CC0006F8FBFF34F8FFEE70122144B1A607047DE
:102CD00010B414489A00D418A10001444C686468E8
:102CE0004C601A4491000831084484420BD003EB35
:102CF00083039A000B4B13445B68DA680A4B1A6033
:102D00005DF8044B7047606803EB83029100054A4D
:102D10000A445060EBE700BFEC3C00206C3D002013
:102D2000F43C0020543C0020483C002038B5C368E7
:102D3000DC6824B304F118052846FFF7B6F8184BF1
:102D40001B682BBB251D2846FFF7AFF8E36A01225D
:102D50009A401449086802430A6003EB83039A000F
:102D6000294611481044FFF77AF8E26A0F4B1B68B6
:102D7000DB6A9A4211D901200D4B186038BD4FF023
:102D8000500383F31188BFF36F8FBFF34F8FFEE7BC
:102D900029460848FFF763F8E7E7002038BD00BF81
:102DA000EC3C0020F43C0020543C0020483C002037
:102DB0006C3D0020283D002000B583B01248134B25
:102DC000036001234360002303828DF800308022DA
:102DD0008DF80120E1228DF802208DF803308DF866
:102DE00004308DF80530C0F814D08361C3614FF40E
:102DF00000030362FDF738FD10B903B05DF804FB72
:102E000000F038FAF9E700BFC83F00200080024018
:102E1000F0B58DB000230793089309930A930B93A1
:102E200002683D4B9A4201D00DB0F0BD00240094E1
:102E3000A3F590431A6B42F000721A631A6B02F00A
:102E400000720092009A01941A6B42F080621A6339
:102E50001A6B02F080620192019A02941A6B42F09E
:102E600000621A631A6B02F000620292029A0394E3
:102E70001A6B42F004021A631A6B02F00402039206
:102E8000039A04941A6B42F001021A631A6B02F05F
:102E900001020492049A05941A6B42F002021A632A
:102EA0001A6B02F002020592059A06941A6B42F020
:102EB00040021A631B6B03F040030693069B322308
:102EC00007930227089703260A960B250B9507A957
:102ED0001248FDF7F5FD86230793089709940A9693
:102EE0000B9507A90E48FDF7EBFD4FF40053079330
:102EF000089709940A960B9507A90A48FDF7E0FD83
:102F00004FF420530793089709940A960B9507A945
:102F10000548FDF7D5FD87E7008002400008024024
:102F200000000240000402400018024008B50C48AE
:102F300000F036FA0B4C012280212046FDF7B2FE4C
:102F4000FA20FEF761FF002280212046FDF7AAFE4D
:102F5000FA20FEF759FF0120FEF756FFE7E700BF12
:102F60008C3600080004024008B50120FEF74CFF33
:102F7000FBE708B50120FEF747FFFBE708B5012096
:102F8000FEF742FFFBE70000034B0360034B0B60BF
:102F900080231360704700BF703F0020703D002009
:102FA00070B5A0B0244C1CAD94E80F0085E80F006C
:102FB00000212846FEF731FF204B186015AD04F1C3
:102FC00010060FCE0FC596E8070085E80700002120
:102FD00015A8FEF7E4FE1A4B18600EAD04F12C069E
:102FE0000FCE0FC596E8070085E8070000210EA860
:102FF000FEF7D5FE134B186007AD04F148060FCE5F
:103000000FC596E8070085E80700002107A8FEF72E
:10301000C6FE0D4B18606D4664340FCC0FC594E8A6
:10302000070085E8070000216846FEF7B8FE074B59
:10303000186020B070BD00BF043600081C4000209E
:1030400010400020184000202040002014400020A4
:10305000F0B58DB000240794089409940A940B9459
:103060000194384B1A6B42F004021A631A6B02F097
:1030700004020192019A02941A6B42F080021A63D0
:103080001A6B02F080020292029A03941A6B42F0C9
:1030900001021A631A6B02F001020392039A04946C
:1030A0001A6B42F002021A631A6B02F002020492D7
:1030B000049A05941A6B42F008021A631A6B02F024
:1030C00008020592059A06941A6B42F040021A63B0
:1030D0001B6B03F040030693069B1B4F224644F2F2
:1030E00081013846FDF7DEFD184D22464021284675
:1030F000FDF7D8FD4FF400530793154B089309943F
:1031000007A91448FDF7DCFC44F28103079301266C
:10311000089609940A9407A93846FDF7D1FC402384
:103120000793089609940A9407A92846FDF7C8FC56
:10313000802307930894099407A92846FDF7C0FC4B
:103140000DB0F0BD003802400004024000180240FB
:10315000000011100008024030B595B03022002167
:1031600008A800F03BFA0024039404940594069404
:10317000079401941C4B1A6C42F080521A641B6C29
:1031800003F080530193019B0294184B1A6842F498
:1031900040421A601B6803F440430293029B0123E0
:1031A00008934FF4A023099302250E954FF4800352
:1031B0000F9304231093A8231193129507231393BD
:1031C00008A8FDF707FE0F230393049505944FF419
:1031D000A05306934FF480530793052103A8FEF7ED
:1031E0002FF815B030BD00BF00380240007000401D
:1031F00008B5FDF78DF9FFF7AFFFFFF729FFFFF7E0
:10320000DBFD00F0E9F800F03BF9FFF7C9FEFEF73F
:10321000C1FDFEE730B400240AE000BF4FF0604378
:103220001B68002BF9D04FF0604319700134294618
:10323000944210DA4D1C09784FF06043D3F8803E79
:1032400013F0010FF2D04FF06043D3F8003E13F0BB
:10325000010FE3D1EAE7104630BC704708B50268B9
:10326000034B9A4200D008BDFDF76CF9FBE700BFA5
:10327000000401407047000000B583B000220092B6
:103280000D4B596C41F480415964596C01F48041F3
:10329000009100990192196C41F0805119641B6CE6
:1032A00003F080530193019B0F216FF00100FDF7A4
:1032B00081F903B05DF804FB0038024010B588B016
:1032C000002201462C20FDF775F92C20FDF7A4F90A
:1032D00000240194144B5A6C42F002025A645B6C55
:1032E00003F002030193019B02A903A8FEF77AF8F9
:1032F000FEF768F843000D48A0FB03239B0C013B3D
:103300000B480C4A026040F2E732C260436004613D
:103310008460FEF7BFF910B1012008B010BD044869
:10332000FEF77FF8F9E700BF0038024083DE1B4359
:1033300024400020000401407047FEE7FEE7FEE75E
:10334000FEE7704708B50248FEF780F808BD00BFE9
:10335000244000200F49D1F8883043F47003C1F8AD
:1033600088300D4B1A6842F001021A600020986004
:103370001A6822F0847222F480321A60074A5A6076
:103380001A6822F480221A60D8604FF000638B60C4
:10339000704700BF00ED00E000380240103000240C
:1033A00038B50546FCF724FF0446024629460120AD
:1033B000FFF730FF0546012206491046FFF72AFFB6
:1033C00028440134A04201D1002038BD4FF0FF3025
:1033D00038BD00BFE036000808B50A480A4B036054
:1033E0004FF4E133436000238360C36003610C2228
:1033F00042618361C361FEF70BFB00B908BDFFF7B3
:1034000039FFFBE7644000200048004000B589B068
:103410000023039304930593069307930268164BC6
:103420009A4202D009B05DF804FB0021019103F536
:10343000F8331A6C42F480221A641A6C02F4802267
:103440000192019A02911A6B42F008021A631B6BF7
:1034500003F008030293029B4FF44073039302238B
:10346000049301230593032306930723079303A9DA
:103470000248FDF725FBD5E700480040000C02405C
:1034800008B50C484FF0A0430360042343600222B8
:10349000C2600023036182610122C2610362436250
:1034A000C2620363FDF704FC00B908BDFFF7E2FE4A
:1034B000FBE700BFA440002070B588B00023039351
:1034C00004930593069307930368B3F1A04F01D0CB
:1034D00008B070BD00250195174C236B43F0010324
:1034E0002363236B03F001030193019B4FF4E85323
:1034F000039302230493032306930A2307930F4E97
:1035000003A93046FDF7DCFA4FF4007303930495EA
:10351000059503A93046FDF7D3FA636B43F08003AA
:1035200063630295636C43F480436364636C03F4E8
:1035300080430293029BCBE7003802400000024028
:10354000DFF834D0002103E00C4B5B5843500431CA
:103550000B480C4B42189A42F6D30B4A02E0002368
:1035600042F8043B094B9A42F9D3FFF7F3FE00F00F
:1035700011F8FFF73DFE704700000320F436000805
:10358000000000200C0000200C000020AC440020B3
:10359000FEE7000070B50D4E0D4CA41BA4100025D5
:1035A000A54209D10B4E0C4C00F020F8A41BA4102E
:1035B0000025A54205D170BD56F825309847013544
:1035C000EEE756F8253098470135F2E7EC3600086B
:1035D000EC360008EC360008F036000802440346DA
:1035E000934200D1704703F8011BF9E7F8B500BF1B
:1035F000F8BC08BC9E467047F8B500BFF8BC08BCD4
:043600009E4670472B
:1036040006000000020000000000000000000000AE
:10361400BC3600082D2F0008000000000000000048
:10362400800000000000000000000000B036000828
:10363400692F0008FDFF000000000000800000006A
:103644000000000000000000A4360008732F0008EA
:10365400FDFF0000000000008000000000000000EA
:1036640000000000983600087D2F0008FDFF0000D0
:1036740000000000800000000000000000000000C6
:1036840049444C4500000000436F75636F75202169
:10369400000000006D795461736B30340000000049
:1036A4006D795461736B3033000000006D7954619F
:1036B400736B30320000000064656661756C74548D
:1036C40061736B00000000000000000001020304AD
:1036D4000607080900000000010203040A000000B4
:0836E4004CCBFF7F0100000048
:0436EC00D5010008FC
:0436F000B10100081C
:0C36F40001000000AAAAAAAA0024F40009
:040000050800354179
:00000001FF
