:020000040800F2
:100000000000032019D8000891D3000893D30008FA
:1000100095D3000897D3000899D30008000000008A
:100020000000000000000000000000003127000870
:100030009BD3000800000000D127000835280008E5
:1000400069D8000869D8000869D8000869D800088C
:1000500069D8000869D8000869D8000869D800087C
:1000600069D8000869D8000869D8000869D800086C
:1000700069D8000869D8000869D8000869D800085C
:1000800069D8000869D8000869D8000869D800084C
:1000900069D8000869D8000869D8000869D800083C
:1000A00069D800089DD3000869D8000869D80008FD
:1000B00069D8000869D8000869D8000869D800081C
:1000C00069D8000869D8000869D8000869D800080C
:1000D00069D8000869D8000869D8000869D80008FC
:1000E00069D8000869D8000869D8000869D80008EC
:1000F00069D8000869D8000869D8000869D80008DC
:1001000069D8000869D8000869D8000869D80008CB
:1001100069D8000869D8000869D8000869D80008BB
:1001200069D8000869D8000869D8000869D80008AB
:1001300069D80008ADD3000869D8000869D800085C
:1001400069D8000869D8000869D8000869D800088B
:1001500069D8000869D8000869D8000869D800087B
:1001600069D8000869D8000869D8000869D800086B
:1001700069D8000869D8000869D8000800000000A4
:1001800069D8000869D8000869D8000869D800084B
:1001900069D8000869D8000869D8000869D800083B
:0C01A00069D8000869D8000869D8000878
:1001B00010B5054C237833B9044B13B10448AFF3A1
:1001C00000800123237010BD7C000020000000008F
:1001D000DCDC000808B5034B1BB103490348AFF34F
:1001E000008008BD0000000080000020DCDC00086A
:1001F000034613F8012B002AFBD1181A0138704767
:1002000053B94AB9002908BF00281CBF4FF0FF317D
:100210004FF0FF3000F07AB9ADF1080C6DE904CE73
:1002200000F006F8DDF804E0DDE9022304B07047D1
:100230002DE9F0478C460D460446089E002B51D10F
:100240008A4217466DD9B2FA82FEBEF1000F0BD07A
:10025000CEF1200C01FA0EF520FA0CFC02FA0EF792
:100260004CEA050C00FA0EF44FEA174A250CBCFBC9
:10027000FAF81FFA87F90AFB18CC45EA0C4508FB87
:1002800009F3AB420AD9ED1908F1FF3280F023815E
:10029000AB4240F22081A8F102083D44ED1AA4B21D
:1002A000B5FBFAF00AFB105544EA054400FB09F9D6
:1002B000A14509D9E41900F1FF3380F00A81A14575
:1002C00040F2078102383C44A4EB090440EA0840AC
:1002D0000021002E61D024FA0EF4002334607360F4
:1002E000BDE8F0878B4207D9002E54D0002186E864
:1002F00021000846BDE8F087B3FA83F1002940F0F9
:100300008E80AB4202D3824200F2FA80841A65EBFF
:1003100003050120AC46002E3FD086E81010BDE852
:10032000F08712B90127B7FBF2F7B7FA87FEBEF1E3
:10033000000F34D1EB1B3A0C1FFA87FC0121B3FBF1
:10034000F2F8250C02FB183345EA03450CFB08F3D1
:10035000AB4207D9ED1908F1FF3002D2AB4200F2EF
:10036000D1808046ED1AA3B2B5FBF2F002FB105526
:1003700043EA05440CFB00FCA44507D9E41900F14D
:10038000FF3302D2A44500F2B8801846A4EB0C0457
:1003900040EA08409DE731463046BDE8F087CEF19F
:1003A000200405FA0EF307FA0EF720FA04F83A0CC7
:1003B00025FA04F448EA0308B4FBF2F14FEA1845C1
:1003C00002FB11441FFA87FC45EA044501FB0CF3CC
:1003D000AB4200FA0EF409D9ED1901F1FF3080F0BB
:1003E0008A80AB4240F2878002393D44EB1A1FFA03
:1003F00088F5B3FBF2F002FB103345EA034500FB3E
:100400000CF3AB4207D9ED1900F1FF386FD2AB42C4
:100410006DD902383D44EB1A40EA01418FE7C1F142
:10042000200722FA07F88B4005FA01F448EA030393
:1004300020FA07FE4FEA134CFD404EEA040EB5FBCE
:10044000FCF94FEA1E440CFB19551FFA83F844EAE5
:10045000054509FB08F4AC4202FA01F200FA01FA80
:1004600008D9ED1809F1FF3043D2AC4241D9A9F1C6
:1004700002091D442D1B1FFA8EFEB5FBFCF00CFB80
:1004800010554EEA054400FB08F8A04507D9E418CA
:1004900000F1FF3529D2A04527D902381C4440EA93
:1004A0000940A4EB0804A0FB02894C45C6464D4612
:1004B00015D312D056B1BAEB0E0364EB050404FA5F
:1004C00007F7CB401F43CC40376074600021BDE884
:1004D000F0871846F8E69046E0E6C245EAD2B8EB67
:1004E000020E69EB03050138E4E72846D7E74046EA
:1004F00091E78146BEE7014678E702383C4445E78C
:10050000084608E7A8F102083D442BE7704700BF02
:1005100008B50B4B1A6842F400721A601A6842F46C
:1005200080621A601A6842F480721A60032000F038
:100530002FF800200CF0EEFE0CF0CAFE002008BDE3
:10054000003C0240034A1168034B1B780B441360C4
:10055000704700BF2842002000000020014B1868AF
:10056000704700BF2842002038B50446FFF7F6FF69
:100570000546B4F1FF3F02D0044B1B781C44FFF743
:10058000EDFF401B8442FAD838BD00BF00000020B8
:10059000074AD36823F4E0631B041B0C000200F439
:1005A000E060184340F0BF6040F40030D060704716
:1005B00000ED00E030B4164BDB68C3F30223C3F157
:1005C0000704042C28BF04241D1D062D17D9033B46
:1005D000012505FA04F4013C2140994005FA03F392
:1005E000013B1340194300280BDB0901C9B200F19C
:1005F000604000F5614080F8001330BC7047002374
:10060000E6E700F00F000901C9B2024B1954F4E704
:1006100000ED00E014ED00E0002808DB420900F0E6
:100620001F00012303FA00F0014B43F8220070473A
:1006300000E100E05079137943EA002307480B50AA
:10064000D07893781B0443EA0063507843EA002390
:1006500012781343024A8B50704700BF408002401B
:1006600044800240016841F218028B5843F4005361
:100670008B507047016841F218028B5843F0020317
:100680008B50704782B0084B1B68084AA2FB0323BB
:100690005B0A00FB03F0019000BF019B5A1E019210
:1006A000002BF9D102B0704714000020D34D621026
:1006B00010B582B00446002301930268136843F02A
:1006C0000803136003681B6801930120FFF7DAFF3A
:1006D0002368019A1A6002B010BD10B582B00446BA
:1006E000002301930268136843F004031360036856
:1006F0001B6801930120FFF7C5FF2368019A1A6068
:1007000002B010BD30B583B00546002301930268E6
:1007100041F21804135943F48013135103681B5911
:1007200001930120FFF7AEFF2B68019A1A5103B025
:1007300030BD000070B59EB0044629B14FF400638F
:10074000C3604FF480438360E369002B6AD14FF4A8
:100750008063079321680B68394A1A40A368E068F0
:1007600003430798034343F4007313430B60236868
:100770001D680120FFF7F8FE23681D6023684022F2
:100780005A6023685D680120FFF7EEFE23685D6014
:10079000236800259D602368DD602268936923F04B
:1007A000BE031B041B0C43F08003936123689E6906
:1007B0000120FFF7D9FE23689E612368DD6123686D
:1007C000DD690120FFF7D0FE2368DD61226841F278
:1007D000180551591B4B0B4043F0087343F00403B9
:1007E000535123685E590120FFF7BEFE23685E5116
:1007F000236803F58053144A1A60236803F5805375
:100800001D680120FFF7B0FE236803F580531D60CB
:10081000A369012B09D0626900212046FFF70AFF76
:100820001EB070BD0023079394E7216841F21C02BB
:100830008B5843F4803343F040038B50EBE700BF09
:100840000F8120FF233FDEF88020C102F0B490F832
:100850004540012C31D0012480F84540022480F825
:100860004440C162002401E0F96001349C4217D287
:1008700065014F194FF480164E5140F2F45606FBB5
:100880000426BE60C6691EB94E5946F440064E5154
:100890005D1EAC42E8D2651C01EB4515FD60E4E746
:1008A000026841F21003D150012380F84430002344
:1008B00080F845301846F0BC70470220FBE7F0B4E2
:1008C00090F84540012C2ED0012480F845400224A8
:1008D00080F844408162002401E0E96001349C42D8
:1008E00014D266018D194FF000478F5144F2F4562F
:1008F0006E6040F2F45606FB0426AE605E1EB44203
:10090000EBD2661C01EB4616EE60E7E7026841F2A7
:100910000C03D150012380F84430002380F8453087
:100920001846F0BC70470220FBE7000090F8453005
:10093000012B00F08780012380F84530022380F8E6
:10094000443099B1C36A1A68002A17DB30B440F208
:10095000F45291421AD93C4CA4FB0124A40A40F25F
:10096000F45202FB141292B1013410E0012380F81A
:100970004430002280F8452018467047122380F842
:100980004430002380F84530012070470124012CB9
:1009900001D0002337E01A6842F040521A60C36A5F
:1009A000C1F30C015960C26A136843F0004313603D
:1009B000C36ADB68C362036841F214029A5812F0FA
:1009C000040F08D0042141F214029950026800215A
:1009D00041F20403D150012380F84430002380F811
:1009E0004530184630BC7047C56A2A6842F08052CC
:1009F0002A6011E0C56A2A6842F000422A60C26A91
:100A0000D268C26201339C42D5D9C56A2A6822F0F5
:100A100040522A60002BE7D0C26A40F2F45555607C
:100A2000621E9342E6D1C56A2A6842F000522A60EB
:100A3000064A02FB041202F2F452C56AC2F30C0227
:100A40006A60D7E7022070470BB002AC0CFAFFFFD8
:100A500090F84530012B45D0012380F84530022322
:100A600080F8443000210AE0036301228263DB68DE
:100A7000836204E0826B01328263DB688362836A93
:100A80001A68002A26DB032924D801311A6802F4E7
:100A90004072B2F5007FE7D01A6812F4407FE9D0C7
:100AA0004363826B01328263012A11D01A68C2F358
:100AB0000D42043AC263026B92680264DB6883628F
:100AC000012380F84430002380F8453018467047F1
:100AD0000363EBE7012380F84430002280F84520CF
:100AE00018467047022070477047704710B504469B
:100AF000036841F214029A5812F0400F11D141F2EA
:100B000014029B5813F0010F19D1226841F214030B
:100B10004FF48031D1502268D35813F4004F1BD1C9
:100B200010BD0CF015F92268402141F21403D15098
:100B3000012384F84430002384F84530E5E7FFF7CB
:100B4000D3FF2168012341F214028B5084F8443012
:100B5000002384F84530D8E72046FFF7C6FF226817
:100B60004FF4004141F21403D150012384F8443082
:100B7000002384F84530D3E7F8B590F84430DBB271
:100B8000822B01D10220F8BD16460546822380F84B
:100B900044300268146904F01C04038ADB029BB22F
:100BA0001C43890101F4F8610C4344F00104146111
:100BB000FFF7D4FC074614F0010F10D0FFF7CEFC6E
:100BC000C01BB0F5803F02D22B681C69F3E70123FC
:100BD00085F84430002385F845300320F8BD2B68A4
:100BE0005B699BB23360012385F844300020F8BD77
:100BF00090F84430DBB2422B01D10220704770B52F
:100C00000546422380F844300068046904F01C045F
:100C10002B8ADB029BB21C43890101F4F8610C436F
:100C200044F0030492B242612B681C61FFF796FC0A
:100C3000064614F0010F10D0FFF790FC801BB0F5B2
:100C4000803F02D22B681C69F3E7012385F844300A
:100C5000002385F84530032070BD012385F844301A
:100C6000002070BD70B582B000230193002800F011
:100C70000E81044690F84430002B34D000230093BA
:100C8000844B5A6C42F480425A645B6C03F4804398
:100C90000093009B804B5A6822F400025A605A6805
:100CA000216A0A435A60236803F580531A6842F0A8
:100CB00001021A60FFF752FC0546236803F58052D3
:100CC000126812F0010F13D0FFF748FC401BB0F57B
:100CD000FA7FF2D9032584F84450002384F8453084
:100CE000284602B070BD80F845300BF0A3FFC5E781
:100CF0001D6925F01C0500F06FFD684B0344684A30
:100D0000934255D845F0080523681D614FF4004211
:100D100000212046FFF76CFF0546002860D1FF2028
:100D2000FFF722FC6368002B00F09180FFF716FCB0
:100D3000064601AA01212046FFF71EFFFFF70EFC21
:100D4000801B41F28833984252D8019B13F0040F64
:100D5000EFD04FF4805200212046FFF749FF0028D2
:100D600052D1FFF7FBFB064601AA01212046FFF7FF
:100D700003FFFFF7F3FB801B41F2883398424BD807
:100D8000019B13F0200FEFD001AA1F212046FFF78F
:100D9000F3FE00284CD1019B13F0100F50D04FF4FC
:100DA0000062E26013F0040F4DD00023A3605EE008
:100DB0003C4B03443C4A934202D845F00C05A3E760
:100DC0003A4B03443A4A93429ED93A4B03443A4A37
:100DD000934202D845F0040596E745F0100593E7E5
:100DE00001212046FFF7A6FC012584F8445077E74F
:100DF00001212046FFF79EFC012384F844300023A4
:100E000084F8453003256BE701212046FFF792FC6B
:100E1000012584F8445063E701212046FFF78AFC4E
:100E2000012384F84430002384F84530032557E734
:100E300001212046FFF77EFC012584F844504FE74E
:100E40000022E260AEE74FF48043A3600FE0E36866
:100E5000C3F3CF02A368C3F34F031A430021204614
:100E6000FFF7C6FE58B940F6FF70FFF77DFB002183
:100E70002046FFF75FFC012384F8443030E701216E
:100E80002046FFF757FC012584F8445028E7012548
:100E900026E700BF003802400038014000D3CEFEF4
:100EA000BFE1E40040F1E9FD3F787D0100796CFC91
:100EB000FF596202001F0AFA7FF0FA0238B590F873
:100EC0004530012B01D1022038BD0446012580F8B0
:100ED0004550022380F84430FFF7EAFB2046FFF735
:100EE000FCFB2046FFF70EFC2046FFF7BBFB20462D
:100EF000FFF7C0FB84F84450002084F8450038BD5B
:100F0000F0B583B000244BE04FEAD40E0EF1080E8A
:100F100050F82E2004F00706B6000F27B74022EA4B
:100F200007020F6907FA06F6324340F82E2046E022
:100F3000092600E0002606FA0EF632430233644E1C
:100F400046F82320634B1A68EB4302EA03064F6816
:100F500017F4803F01D045EA02065E4A16605268E7
:100F600003EA02064F6817F4003F01D045EA020683
:100F7000584A5660926803EA02064F6817F4801FC9
:100F800001D045EA0206534A9660D26813404E6883
:100F900016F4001F01D045EA02034E4AD360013423
:100FA0000F2C00F292800123A3400A6803EA020595
:100FB000AB42F4D14A68022AA6D0122AA4D006680D
:100FC0004FEA440E032202FA0EF2D24316404F6853
:100FD00007F0030707FA0EF73E4306604E68771ED8
:100FE000012F03D9112E01D0122E0FD18668164081
:100FF000CF6807FA0EF73E438660466826EA030389
:101000004E68C6F30016A64033434360C3681A40D7
:101010008B6803FA0EF31A43C2604B6813F0805FCB
:10102000BDD0002301932C4B5A6C42F480425A6489
:101030005B6C03F480430193019BA3089E1C244A2C
:1010400052F8262004F003064FEA860E0F2606FA11
:101050000EF622EA0602214FB8423FF46BAF204E53
:10106000B04222D006F58066B04220D006F58066F8
:10107000B0421ED006F58066B0421CD006F58066F0
:10108000B0421AD006F58066B04218D006F58066E8
:10109000B04216D006F58066B04214D006F58066E0
:1010A000B0423FF445AF0A2645E7012643E7022652
:1010B00041E703263FE704263DE705263BE70626F2
:1010C00039E7072637E7082635E703B0F0BD00BF4C
:1010D00000380140003C014000380240000002405E
:1010E0000004024012B909048161704781617047B0
:1010F000F0B58BB0002800F08A800446056890F8AF
:10110000BD3323B3032384F8BD33EB6B13F4807F2B
:1011100001D100232361206800F02DFF254655F8FA
:10112000107B6E460FCD0FC60FCD0FC695E803009E
:1011300086E80300231D0ECB384600F0D7FE58B1D9
:10114000022384F8BD33012528460BB0F0BD80F89A
:10115000BC330CF01DFBD5E70021206800F011FF27
:10116000002315E0D900C81A82002244012082F829
:101170003D0082F83C30A2F84230002082F83F0067
:1011800050649064CA1A9100214408650133DBB2AF
:101190006568AB42E6D3002315E0D800C11A8A0087
:1011A0002244002182F8FD1182F8FC3182F8FF11FF
:1011B000C2F80412C2F80812C21A90002044C0F803
:1011C00010120133DBB29D42E7D8254655F8107B5B
:1011D0006E460FCD0FC60FCD0FC695E8030086E80B
:1011E0000300231D0ECB384600F012FF054620B148
:1011F000022384F8BD330125A6E7002384F83830A4
:10120000012384F8BD33206800F0D2FF9CE701255C
:101210009AE70000002800F0BB8170B582B0044658
:10122000036813F0010F3BD0A74B9B6803F00C033E
:10123000042B2CD0A44B9B6803F00C03082B21D06B
:101240006368B3F5803F4FD0B3F5A02F52D09E4BCB
:101250001A6822F480321A601A6822F480221A6016
:101260006368002B50D0FFF779F90546964B1B6851
:1012700013F4003F14D1FFF771F9401B6428F5D92E
:1012800003208AE1904B5B6813F4800FD8D08E4B1B
:101290001B6813F4003F03D06368002B00F07A81D1
:1012A000236813F0020F55D0874B9B6813F00C0F87
:1012B0003ED0854B9B6803F00C03082B33D0E368CA
:1012C000002B68D00122814B1A60FFF747F90546D1
:1012D0007D4B1B6813F0020F54D1FFF73FF9401B01
:1012E0000228F5D9032058E1774A136843F4803384
:1012F0001360B5E7744B1A6842F480221A601A68CA
:1013000042F480321A60ABE7FFF728F905466E4BCE
:101310001B6813F4003FC3D0FFF720F9401B64287B
:10132000F5D9032039E1684B5B6813F4800FC6D10F
:10133000654B1B6813F0020F04D0E368012B01D04A
:1013400001202AE1604A136823F0F803216943EA87
:10135000C1031360236813F0080F40D0636963B3BF
:1013600001225B4B1A60FFF7F9F80546564B5B6F9D
:1013700013F0020F33D1FFF7F1F8401B0228F5D923
:1013800003200AE1504A136823F0F803216943EA75
:10139000C1031360DEE700224C4B1A60FFF7DEF852
:1013A0000546494B1B6813F0020FD3D0FFF7D6F860
:1013B000401B0228F5D90320EFE00022444B1A60BD
:1013C000FFF7CCF80546404B5B6F13F0020F06D0D9
:1013D000FFF7C4F8401B0228F5D90320DDE023689D
:1013E00013F0040F79D0384B1B6C13F0805F33D1AE
:1013F00000230193344B1A6C42F080521A641B6C28
:1014000003F080530193019B0125324B1B6813F4B9
:10141000807F23D0A368012B34D0052B38D02A4BF2
:101420001A6F22F001021A671A6F22F004021A677B
:10143000A368002B36D0FFF791F80646224B1B6FAE
:1014400013F0020F48D1FFF789F8801B41F288336F
:101450009842F3D90320A0E00025D6E71D4A13687F
:1014600043F480731360FFF779F80646194B1B6845
:1014700013F4807FCED1FFF771F8801B0228F5D9D5
:1014800003208AE0104A136F43F001031367CFE78C
:101490000D4B1A6F42F004021A671A6F42F00102F4
:1014A0001A67C5E7FFF75AF80646074B1B6F13F09C
:1014B000020F11D0FFF752F8801B41F28833984297
:1014C000F3D9032069E000BF003802400000474222
:1014D000800E474200700040E5B9A369002B5BD045
:1014E000304A926802F00C02082A58D0022B17D01A
:1014F00000222D4B1A60FFF731F80446294B1B6878
:1015000013F0007F42D0FFF729F8001B0228F5D91D
:10151000032042E0234A136C23F080531364DCE77A
:101520000022214B1A60FFF719F805461D4B1B6876
:1015300013F0007F06D0FFF711F8401B0228F5D901
:1015400003202AE0E369226A1343626A43EA8213B2
:10155000A26A5208013A43EA0243E26A43EA02639A
:10156000104A53600122104B1A60FEF7F7FF044641
:101570000C4B1B6813F0007F06D1FEF7EFFF001B3A
:101580000228F5D9032008E0002006E0002004E04E
:1015900001207047012000E0002002B070BD012052
:1015A000FBE700BF0038024060004742F8B5314B0E
:1015B0009B6803F00C03042B59D0082B01D02E4854
:1015C000F8BD2C4B5A6802F03F025B6813F4800FA1
:1015D0002AD0284B5B68C3F388131E4600275C01A2
:1015E0000025E41A65EB0705A90141EA9461A00111
:1015F000001B61EB0501CB0043EA5073C400A01946
:1016000043EB07014B0243EAD053440220461946FC
:101610000023FEF7F5FD174B5B68C3F3014301336D
:101620005B00B0FBF3F0F8BD124B5B68C3F38813AB
:101630001E4600275C010025E41A65EB0705A90199
:1016400041EA9461A001001B61EB0501CB0043EA74
:101650005073C400A01943EB07018B0243EA905377
:101660008402204619460023FEF7CAFDD3E703484B
:10167000F8BD00BF003802400024F40000127A00D8
:10168000002800F09D8070B504464F4B1B6803F0A6
:101690000F038B4209D2CBB24B4A1370136803F08D
:1016A0000F03994201D0012070BD236813F0020F8F
:1016B00017D013F0040F04D0444A936843F4E05366
:1016C0009360236813F0080F04D0404A936843F4F2
:1016D000604393603D4A936823F0F003A06803439E
:1016E00093600D46236813F0010F32D06368012B1D
:1016F00021D09A1E012A25D9344A126812F0020F0D
:1017000060D032498A6822F0030213438B60FEF7EF
:1017100025FF06462D4B9B6803F00C036268B3EB74
:10172000820F16D0FEF71AFF801B41F288339842D1
:10173000F0D9032070BD254A126812F4003FE0D1B1
:10174000012070BD214A126812F0007FD9D101201A
:1017500070BD1D4B1B6803F00F039D4209D2EAB216
:10176000194B1A701B6803F00F039D4201D0012032
:1017700070BD236813F0040F06D0144A936823F455
:10178000E053E1680B439360236813F0080F07D020
:101790000E4A936823F46043216943EAC1039360CE
:1017A000FFF704FF094B9B68C3F30313084AD35C9C
:1017B000D840084B186000200BF0ACFD002070BD35
:1017C00001207047012070BD003C024000380240FB
:1017D0009000010814000020014B1868704700BFFA
:1017E0001400002008B5FFF7F7FF044B9B68C3F314
:1017F0008223034AD35CD84008BD00BF00380240B2
:10180000A000010808B5FFF7E7FF044B9B68C3F38E
:101810004233034AD35CD84008BD00BF00380240C1
:10182000A00001080F2303600B4B9A6802F003022B
:1018300042609A6802F0F00282609A6802F4E05214
:10184000C2609B68DB0803F4E0530361034B1B6831
:1018500003F00F030B60704700380240003C024069
:1018600070470268D36843F00103D360026893684D
:1018700003F00703062B03D0136843F00103136042
:1018800000207047704770477047704710B5044696
:1018900003681A6912F0020F11D0DA6812F0020F11
:1018A0000DD06FF002021A610123037703689B6970
:1018B00013F0030F70D0FFF7E6FF002323772368B0
:1018C0001A6912F0040F12D0DA6812F0040F0ED069
:1018D0006FF004021A610223237723689B6913F4D3
:1018E000407F5FD02046FFF7CEFF00232377236899
:1018F0001A6912F0080F12D0DA6812F0080F0ED031
:101900006FF008021A61042323772368DB6913F060
:10191000030F4ED02046FFF7B6FF0023237723683E
:101920001A6912F0100F12D0DA6812F0100F0ED0F0
:101930006FF010021A61082323772368DB6913F420
:10194000407F3DD02046FFF79EFF0023237723688A
:101950001A6912F0010F03D0DA6812F0010F36D1C4
:1019600023681A6912F0800F03D0DA6812F0800F32
:1019700034D123681A6912F0400F03D0DA6812F0EC
:10198000400F32D123681A6912F0200F03D0DA68B1
:1019900012F0200F30D110BDFFF774FF2046FFF783
:1019A00073FF8AE72046FFF76DFF2046FFF76CFFC5
:1019B0009BE72046FFF766FF2046FFF765FFACE791
:1019C0002046FFF75FFF2046FFF75EFFBDE76FF0A1
:1019D00001021A6120460BF0F5FBC1E76FF08002AF
:1019E0001A61204600F090F8C3E76FF040021A61D8
:1019F0002046FFF74AFFC5E76FF020021A61204634
:101A000000F081F8C7E700000368314A904212D025
:101A1000B0F1804F0FD0A2F57C4290420BD002F57E
:101A20008062904207D002F58062904203D002F5B6
:101A30007842904203D123F070034A681343244A4A
:101A400090422AD0B0F1804F27D0A2F57C4290423C
:101A500023D002F5806290421FD002F5806290424E
:101A60001BD002F57842904217D002F57052904296
:101A700013D002F5806290420FD002F5806290424E
:101A80000BD0A2F59832904207D002F580629042C6
:101A900003D002F58062904203D123F44073CA68F8
:101AA000134323F080034A69134303608B68C362C6
:101AB0000B688362064B984206D003F58063984218
:101AC00002D00123436170470B690363F9E700BF4C
:101AD00000000140A8B110B5044690F83D305BB15C
:101AE000022384F83D30211D2068FFF78DFF01237C
:101AF00084F83D30002010BD80F83C30FFF7B0FE88
:101B0000EEE7012070477047704700002DE9F0476D
:101B100004460268136923F44053C1680B43136100
:101B200083680269134342691343C269134301681E
:101B3000CA6822F4164222F00C021343CB600268FA
:101B4000536923F4407381690B435361C369B3F54F
:101B5000004F62D0D0F80080BB4B984500F01B814D
:101B600003F58063984500F01681FFF73BFE00EB1C
:101B7000800000EB80006568AD00B0FBF5F5B34F69
:101B8000A7FB05356D092E01FFF72CFE00EB800049
:101B900000EB80006568AD00B0FBF5FAFFF722FEB0
:101BA00000EB800000EB80006568AD00B0FBF5F550
:101BB000A7FB05356D094FF0640909FB15A52D013B
:101BC0003235A7FB05356D0905F0F0053544FFF703
:101BD00009FE00EB800000EB80006668B600B0FBF9
:101BE000F6F6FFF7FFFD00EB800000EB8000636876
:101BF0009B00B0FBF3F0A7FB0030400909FB106924
:101C00004FEA091909F13209A7FB0937C7F343174E
:101C10002F44C8F80870BDE8F087D0F8008003F1C1
:101C2000804303F5104398455CD003F580639845E5
:101C300058D0FFF7D7FD00EB800000EB800065680F
:101C40006D00B0FBF5F5814FA7FB05356D092E0141
:101C5000FFF7C8FD00EB800000EB800065686D00B9
:101C6000B0FBF5FAFFF7BEFD00EB800000EB800053
:101C700065686D00B0FBF5F5A7FB05356D094FF004
:101C8000640909FB15A5ED003235A7FB05356D0983
:101C90006D0005F4F8753544FFF7A4FD00EB8000F6
:101CA00000EB800066687600B0FBF6F6FFF79AFD61
:101CB00000EB800000EB800063685B00B0FBF3F397
:101CC000A7FB03235B0909FB13694FEAC90909F163
:101CD0003209A7FB0937C7F342172F44C8F8087029
:101CE000BDE8F087FFF78EFD00EB800000EB800081
:101CF00065686D00B0FBF5F5544FA7FB05356D0920
:101D00002E01FFF77FFD00EB800000EB800065688F
:101D10006D00B0FBF5FAFFF775FD00EB800000EBFE
:101D2000800065686D00B0FBF5F5A7FB05356D0912
:101D30004FF0640909FB15A5ED003235A7FB053509
:101D40006D096D0005F4F8753544FFF75BFD00EB98
:101D5000800000EB800066687600B0FBF6F6FFF7C7
:101D600051FD00EB800000EB800063685B00B0FB7E
:101D7000F3F3A7FB03235B0909FB13694FEAC909C6
:101D800009F13209A7FB0937C7F342172F44C8F8F6
:101D90000870BDE8F087FFF735FD00EB800000EB31
:101DA00080006568AD00B0FBF5F5284FA7FB053551
:101DB0006D092E01FFF726FD00EB800000EB80008F
:101DC0006568AD00B0FBF5FAFFF71CFD00EB800085
:101DD00000EB80006568AD00B0FBF5F5A7FB0535AD
:101DE0006D094FF0640909FB15A52D013235A7FBDC
:101DF00005356D0905F0F0053544FFF703FD00EBEF
:101E0000800000EB80006668B600B0FBF6F6FFF7D6
:101E1000F9FC00EB800000EB800063689B00B0FBE6
:101E2000F3F3A7FB03235B0909FB13694FEA0919C5
:101E300009F13209A7FB0937C7F343172F44C8F844
:101E40000870BDE8F08700BF001001401F85EB510E
:101E500058B310B5044690F839300BB3242384F8F6
:101E600039302268D36823F40053D3602046FFF74B
:101E70004DFE2268136923F490431361226853696D
:101E800023F02A0353612268D36843F40053D360DC
:101E90000020E063202384F8393084F83A3010BD04
:101EA00080F838300BF01EFCD8E7012070470000A6
:101EB000002301330C4A934211D80269002AF8DA50
:101EC000036943F00103036100230133064A93428F
:101ED00007D8026912F0010FF7D1002070470320E4
:101EE00070470320704700BF400D030084B010B559
:101EF000044603A880E80E00089B012B0DD0E36880
:101F000043F04003E3602046FFF7D2FF0C9B23BB66
:101F1000A36B43F48033A36313E0A36B23F48033F8
:101F2000A363E36823F4840323F04003E360E368DE
:101F300023F44013E3600F9B012B09D02046FFF7E9
:101F4000B7FF069B012B0DD0BDE8104004B07047D1
:101F5000E36843F48013E360F0E7A36B23F480337A
:101F6000A363EEE7A36843F00603A360A36843F00E
:101F70002003A360E8E7836823F001038360002067
:101F8000704708B5C36823F0C043C360012909D076
:101F900069B9C36843F08043C3603220FEF7E4FAB6
:101FA000002008BDC36843F00053C360F5E701207B
:101FB00008BD0000890141F02001016100230133C7
:101FC000054A934205D8026912F0200FF7D100208C
:101FD00070470320704700BF400D030010230361CA
:101FE00000230133054A934205D8026912F0100F0D
:101FF000F7D1002070470320704700BF400D030059
:10200000D0F800381943C0F80018002070470000CD
:1020100084B02DE9F041044607A880E80E0025466B
:10202000002306E003F1400204EB8202002151602C
:1020300001330E2BF6D9119B73BBA36B43F4001332
:10204000A363A36B23F40023A363A36B23F4802374
:10205000A3630023C4F8003E04F50066D4F80038FA
:10206000C4F800380C9B012B1FD003212046FFF73A
:10207000C7FF10212046FFF79DFF804608B14FF0B3
:1020800001082046FFF7AAFF08B14FF0010800231E
:1020900033617361F3611FE0236823F4001323604D
:1020A000A36B43F40023A363D3E7099B23B9002167
:1020B0002046FFF7A5FFDCE701212046FFF7A0FF40
:1020C000D7E7C3B94FF00060C2F8000900220A61E7
:1020D0004FF67F328A60013307998B4210D205EBAD
:1020E000431202F51061D2F800090028E9DB002054
:1020F000C2F80009EAE74FF09040C2F80009E5E7AE
:1021000000230AE0BBB14FF09047C2F8007B0022E9
:1021100002614FF67F32826001338B4210D205EBB1
:10212000431202F53060D2F8007B002FEADB002773
:10213000C2F8007BEBE74FF00067C2F8007BE6E7F0
:10214000336923F4807333610A9B012B1BD0002277
:10215000A2616FF0804262611BB9A36943F0100372
:10216000A361A269104B1343A3610D9B1BB1A3692B
:1021700043F00803A361119B012B0DD04046BDE83D
:10218000F04104B07047094A3263326B42F4803246
:1021900042F003023263DAE7A36943F0804343F07D
:1021A0000403A361EAE700BF00383C80000180001F
:1021B00008B5D0F8043843F00203C0F8043803200F
:1021C000FEF7D2F9002008BD842801D00330704703
:1021D00000207047EFF30580003018BF01207047E2
:1021E00008B501F023FC002008BD08B5FFF7F2FF99
:1021F00010B901F05FFC08BD01F062FC08BD2DE9DB
:10220000F04387B004460F464569BDB18669AEB15B
:10221000D0F80480D0F80090B0F90800FFF7D4FFA0
:1022200022690296019500903B464946404601F0DE
:1022300091FB0590059807B0BDE8F08365682668B6
:10224000D4F81080B4F90800FFF7BEFF05AB019386
:1022500000903B461FFA88F23146284601F0B3FB56
:102260000128E7D00020E6E708B5034600B90123BE
:10227000184601F00FFD002008BD08B5416819B1EE
:10228000012000F004FF08BD012000F0F5FE08BDAC
:1022900030B583B00023019350B30C460546B1F12D
:1022A000FF3F0DD001B91C46FFF794FFB8B101AA5A
:1022B0000021284601F036F9012804D0FF2015E05E
:1022C0004FF0FF34F0E7019BA3B14FF080520B4B6E
:1022D0001A60BFF34F8FBFF36F8F002006E02146D7
:1022E000284601F057F8012806D0FF2003B030BD82
:1022F0008020FBE70020F9E70020F7E704ED00E08D
:1023000010B582B0044600230193FFF763FFA0B12C
:1023100001A9204600F039FF012802D0FF2002B0B9
:1023200010BD019BABB14FF080520B4B1A60BFF355
:102330004F8FBFF36F8F0020F1E700231A46194635
:10234000204600F0DDFD012801D0FF20E7E7002056
:10235000E5E70020E3E700BF04ED00E010B582B040
:10236000436863B101291AD1032200920022114669
:10237000012000F04DFD0446204602B010BD0129A9
:102380000FD103220021012000F092FD0446002815
:10239000F2D000231A46194600F0B2FDECE7002403
:1023A000EAE70024E8E7000030B583B0002301939A
:1023B00050B30C460546B1F1FF3F0DD001B91C46A4
:1023C000FFF708FFB8B101AA0021284601F0AAF8DA
:1023D000012804D0FF2015E04FF0FF34F0E7019B07
:1023E000A3B14FF080520B4B1A60BFF34F8FBFF376
:1023F0006F8F002006E02146284600F0CBFF012821
:1024000006D0FF2003B030BD8020FBE70020F9E7B5
:102410000020F7E704ED00E010B582B00446002389
:102420000193FFF7D7FEA0B101A9204600F0ADFE51
:10243000012802D0FF2002B010BD019BABB14FF0CC
:1024400080520B4B1A60BFF34F8FBFF36F8F00208A
:10245000F1E700231A461946204600F051FD0128F5
:1024600001D0FF20E7E70020E5E70020E3E700BF19
:1024700004ED00E010B50446FFF7ACFE08B1822081
:1024800010BD204601F0DEF8002010BD10B582B06E
:1024900082684AB1C3683BB1416800680024009477
:1024A00000F0B6FC02B010BD00224168006800F0E8
:1024B000FFFCF7E730B585B0044601910023039394
:1024C000154602B90125FFF785FEA8B1002303AA2E
:1024D00001A9204600F0EAFD012801D0FF2014E008
:1024E000039BA3B14FF080520B4B1A60BFF34F8F89
:1024F000BFF36F8F002008E000232A4601A9204681
:1025000000F0FEFC012804D0FF2005B030BD002003
:10251000FBE70020F9E700BF04ED00E070B584B0F0
:102520000446029100230193F9B10D46164600239B
:102530000393B2F1FF3F21D002B91E46FFF74AFED6
:1025400010B303AA01A9284600F0ECFF012818D017
:1025500000230093039B0BB34FF08052154B1A607E
:10256000BFF34F8FBFF36F8F18E004AB802243F8A7
:10257000102D93E8070084E8070013E04FF0FF36C2
:10258000DCE710230093E5E7324601A9284600F076
:102590005BFE012809D05EB9002300939DE8070087
:1025A00084E80700204604B070BD10230093F5E7CF
:1025B0004023F2E704ED00E010B50446FFF70AFE01
:1025C00018B9204601F009F810BD204601F018F8AE
:1025D00010BD10B50446FFF7FDFD08B1822010BD07
:1025E000204601F02FF8002010BD00F108034360E1
:1025F0004FF0FF328260C3600361002303607047C5
:1026000000230361704743684B609A688A609A6848
:10261000516099600861036801330360704730B40A
:102620000D68B5F1FF3F02D000F1080202E0026937
:1026300004E01A4653681C68A542FAD253684B60FE
:1026400099608A605160086103680133036030BC9F
:10265000704703694268816891608268416851608F
:102660005A68904206D0002202611A68013A1A6044
:102670001868704782685A60F5E7000082B000234E
:1026800001930D4B1B68B3F1FF3F08D04FF050038F
:1026900083F31188BFF36F8FBFF34F8FFEE74FF0C7
:1026A000500383F31188BFF36F8FBFF34F8F019BEC
:1026B000002BFCD002B070470400002008480068DE
:1026C000006880F308884FF0000080F3148862B639
:1026D00061B6BFF34F8FBFF36F8F00DF00BF000005
:1026E00008ED00E0DFF80C00016841F470010160C2
:1026F0007047000088ED00E04FF0807340F8043C24
:1027000021F0010140F8081C054B40F80C3C40F852
:10271000202C6FF0020340F8243C4438704700BF7F
:102720007D260008000000000000000000000000FE
:10273000074B19680868B0E8F04F80F30988BFF3C9
:102740006F8F4FF0000080F311887047AFF3008067
:10275000B83C00204FF0500383F31188BFF36F8F14
:10276000BFF34F8F0A4A136801331360012B0DD159
:10277000084B1B6813F0FF0F08D04FF0500383F392
:102780001188BFF36F8FBFF34F8FFEE7704700BF15
:102790000400002004ED00E0094B1B6843B94FF032
:1027A000500383F31188BFF36F8FBFF34F8FFEE7A2
:1027B000013B034A13600BB983F31188704700BFD4
:1027C00004000020000000000000000000000000E5
:1027D000EFF30980BFF36F8F154B1A681EF0100FCF
:1027E00008BF20ED108A20E9F04F10602DE90900A4
:1027F0004FF0500080F31188BFF34F8FBFF36F8FFE
:1028000001F070FA4FF0000080F3118809BC1968DC
:102810000868B0E8F04F1EF0100F08BFB0EC108A47
:1028200080F30988BFF36F8F704700BFAFF300805C
:10283000B83C002008B54FF0500383F31188BFF374
:102840006F8FBFF34F8F01F043F918B14FF08052F3
:10285000024B1A60002383F3118808BD04ED00E0E9
:10286000084A0023136008490B60084B1B6808499D
:10287000A1FB03139B09013B06490B60072313606F
:10288000704700BF10E000E018E000E014000020F6
:10289000D34D621014E000E03A4B1A683A4B9A426A
:1028A00008D14FF0500383F31188BFF36F8FBFF34C
:1028B0004F8FFEE7334B1A68344B9A4208D14FF0E2
:1028C000500383F31188BFF36F8FBFF34F8FFEE781
:1028D00010B582B02E4B1A78D2B20192FF221A7034
:1028E0001B78DBB28DF803309DF8033003F0500302
:1028F000284A13700722284B1A6009E0264A1368F9
:10290000013B13609DF803305B00DBB28DF80330B0
:102910009DF8033013F0800FF0D11F4B1B68032B81
:1029200008D04FF0500383F31188BFF36F8FBFF3CC
:102930004F8FFEE71B0203F4E063174A1360019B0D
:10294000DBB2134A1370154B1A6842F470021A6016
:102950001A6842F070421A60FFF782FF0024104BA1
:102960001C60FFF7BFFE0F4A136843F0404313603B
:10297000FFF7A4FE01F0B6F9FFF780FE204602B093
:1029800010BD00BF00ED00E071C20F4170C20F41E9
:1029900000E400E0980000209C00002020ED00E012
:1029A0000400002034EF00E0EFF305830F2B0FD974
:1029B000104A9B5CDBB2104A1278934208D24FF067
:1029C000500383F31188BFF36F8FBFF34F8FFEE780
:1029D0000A4B1B6803F4E063094A1268934208D962
:1029E0004FF0500383F31188BFF36F8FBFF34F8F06
:1029F000FEE77047F0E300E0980000200CED00E0F7
:102A00009C000020124A12F0070F1ED0D11D21F0A9
:102A10000701C1F5705313440A460E4802600021B5
:102A200041601344083B23F007030B4803605960DF
:102A30001960991A51601360084B1960084B1960AE
:102A40004FF00042074B1A6070474FF47053E4E7B1
:102A5000A4000020B03C0020A0000020AC3C0020DE
:102A6000A83C0020A43C002010B4134B1A688242FA
:102A70001BD359685C18A04203D1406801445960D7
:102A8000184641684418A24213D10C4C2468A24253
:102A90000DD05268114441601A6812680260984271
:102AA00000D018605DF8044B70471346DEE7046001
:102AB000F5E70260F3E700BFB03C0020A000002073
:102AC00070B5044600F0EEFF3A4B1B68BBB13A4BC1
:102AD0001B681C4263D1ACB1083414F0070F11D04D
:102AE00024F00704083404F007035BB14FF05003EF
:102AF00083F31188BFF36F8FBFF34F8FFEE7FFF7AC
:102B000081FFE4E7002C4CD02C4B1B689C424AD838
:102B10002B4B1D6801E02B4615466A68944202D98A
:102B20002A68002AF7D1234A126895423DD01E68D0
:102B300008362A681A606B681B1B102B10D92819DD
:102B400010F0070F08D04FF0500383F31188BFF344
:102B50006F8FBFF34F8FFEE743606C60FFF784FF1A
:102B60006A6816490B689B1A0B60164909688B4204
:102B700001D214490B60104B1B6813436B60002398
:102B80002B6001F01BF816F0070F10D04FF0500328
:102B900083F31188BFF36F8FBFF34F8FFEE70026DB
:102BA000EFE70026EDE70026EBE70026E9E73046F1
:102BB00070BD00BFA0000020A43C0020A83C002065
:102BC000B03C0020AC3C002080B338B50446A0F1F6
:102BD000080550F8042C164909680A4208D14FF03C
:102BE000500383F31188BFF36F8FBFF34F8FFEE75E
:102BF00050F8080C40B14FF0500383F31188BFF335
:102C00006F8FBFF34F8FFEE722EA010244F8042CD6
:102C100000F048FF54F8041C064A13680B44136084
:102C20002846FFF721FF00F0C9FF38BD704700BFFD
:102C3000A43C0020A83C0020436A23B1036B186821
:102C4000C0F1070070470020704710B50446FFF739
:102C500081FDA26BE36B9A4204D00024FFF79CFD38
:102C6000204610BD0124F9E710B50446FFF772FDB8
:102C7000A36B23B10024FFF78FFD204610BD012474
:102C8000F9E770B504461646856B026C4AB90368CD
:102C900053BB406801F094F9002363600135A563DC
:102CA00070BD6EB980680AF014FE226CA3681344EC
:102CB000A3606268934219D32368A3600020EDE704
:102CC000C0680AF006FE236C5B42E2681A44E260C8
:102CD00021688A4202D262681344E360022E07D15F
:102CE00045B1013D0020D9E70020D7E70020D5E716
:102CF0000020D3E70020D1E7026C72B110B5034683
:102D0000C4681444C4604068844201D31868D86021
:102D10000846D9680AF0DDFD10BD704738B5054694
:102D2000FFF718FD95F8454064B201E0013C64B23C
:102D3000002C0ADD6B6A43B105F1240001F038F87C
:102D40000028F3D001F0C6F8F0E7FF2385F84530FE
:102D5000FFF722FDFFF7FEFC95F8444064B201E066
:102D6000013C64B2002C0ADD2B6943B105F110006F
:102D700001F01EF80028F3D001F0ACF8F0E7FF23D3
:102D800085F84430FFF708FD38BD38B5E8B1044692
:102D90000D46FFF7DFFC2168E26B236C03FB02109A
:102DA00060600020A063A160013A02FB0313E360AE
:102DB000FF2384F8443084F845307DB92369ABB1F2
:102DC00004F1100000F0F4FF10E04FF0500383F323
:102DD0001188BFF36F8FBFF34F8FFEE704F1100030
:102DE000FFF703FC04F12400FFF7FFFBFFF7D4FC1F
:102DF000012038BD10B5029B0C4639B11A60D8636A
:102E00001C6401211846FFF7C0FF10BD1B60F6E7E8
:102E100040B94FF0500383F31188BFF36F8FBFF3B6
:102E20004F8FFEE710B584B0044663B1A2B1A9B1DB
:102E30000120A8B94FF0500383F31188BFF36F8FBF
:102E4000BFF34F8FFEE74FF0500383F31188BFF3BA
:102E50006F8FBFF34F8FFEE70120EAE70020E8E71E
:102E60000AB901B1002040B94FF0500383F3118833
:102E7000BFF36F8FBFF34F8FFEE748200390039897
:102E8000482808D04FF0500383F31188BFF36F8FA9
:102E9000BFF34F8FFEE720461C46012384F84630DF
:102EA00000949DF81830FFF7A5FF204604B010BD30
:102EB00040B94FF0500383F31188BFF36F8FBFF316
:102EC0004F8FFEE7F0B583B0064611B101FB00F06D
:102ED00000E0002017460C464830FFF7F1FD05469C
:102EE00050B1002380F8463000903B4600F1480284
:102EF00021463046FFF77EFF284603B0F0BD0000B4
:102F0000F0B585B0019260B1044699B10125BDB913
:102F10004FF0500383F31188BFF36F8FBFF34F8FD0
:102F2000FEE74FF0500383F31188BFF36F8FBFF3B9
:102F30004F8FFEE7026C0AB90125E8E70025E6E7B6
:102F4000022B09D06DB94FF0500383F31188BFF302
:102F50006F8FBFF34F8FFEE7E26B012AF2D000259F
:102F6000F0E71E460F4600F0BBFF10B9019B03B10E
:102F7000002545B94FF0500383F31188BFF36F8FDD
:102F8000BFF34F8FFEE7002518E032463946204652
:102F9000FFF777FE636A1BB104F1240000F008FF1D
:102FA000FFF7FAFB012005B0F0BDFFF7F5FB0020AD
:102FB000F9E72046FFF7B2FE00F000FEFFF7CAFB7C
:102FC000A26BE36B9A42E0D3022EDED0019B002B72
:102FD000EBD01DB902A800F031FF0125FFF7DCFBA3
:102FE00000F060FDFFF7B6FB94F844305BB2B3F13C
:102FF000FF3F02D1002384F8443094F845305BB29F
:10300000B3F1FF3F02D1002384F84530FFF7C4FB42
:1030100001A902A800F01EFFC8B92046FFF715FE5F
:103020000028C6D0019904F1100000F0A9FE204646
:10303000FFF774FE00F0C2FD0028BFD14FF08052B0
:10304000064B1A60BFF34F8FBFF36F8FB6E7204672
:10305000FFF764FE00F0B2FD0020A4E704ED00E0FD
:1030600048B108B5002141600160C1600B460A46C5
:10307000FFF746FF08BD704710B50246002101204A
:10308000FFF716FF0446FFF7EBFF204610BD10B513
:1030900082B000900B46002211460120FFF7B8FED7
:1030A0000446FFF7DDFF204602B010BD2DE9F843CE
:1030B00060B1044699B10120B8B94FF0500383F3D1
:1030C0001188BFF36F8FBFF34F8FFEE74FF05003B0
:1030D00083F31188BFF36F8FBFF34F8FFEE7006C50
:1030E00008B90120E8E70020E6E7022B09D068B91B
:1030F0004FF0500383F31188BFF36F8FBFF34F8FEF
:10310000FEE7E56B012DF2D00020F0E71F46904668
:103110008946FFF749FCEFF311864FF0500383F324
:103120001188BFF36F8FBFF34F8FA26BE36B9A428F
:1031300001D3022F21D194F845506DB23A46494649
:103140002046FFF79EFDB5F1FF3F10D1636AB3B192
:1031500004F1240000F02CFE98B1B8F1000F12D059
:103160000120C8F8000086F31188BDE8F8836B1CC5
:103170005BB284F845300120F5E70020F3E7012039
:10318000F1E70120EFE70120EDE760B170B50446FB
:10319000036C8BB14FF0500383F31188BFF36F8F33
:1031A000BFF34F8FFEE74FF0500383F31188BFF357
:1031B0006F8FBFF34F8FFEE7036853B1012373B9DD
:1031C0004FF0500383F31188BFF36F8FBFF34F8F1E
:1031D000FEE743680BB90123F1E70023EFE70E4652
:1031E000FFF7E2FBEFF311854FF0500383F31188F3
:1031F000BFF36F8FBFF34F8FA26BE36B9A421AD26C
:1032000094F845305BB20132A263B3F1FF3F0CD1B9
:10321000636A93B104F1240000F0CAFD78B186B16D
:103220000120306085F3118870BD01335BB284F8F2
:1032300045300120F6E70020F4E70120F2E7012005
:10324000F0E70120EEE70000F0B585B0019260B133
:10325000044699B10125BDB94FF0500383F311889D
:10326000BFF36F8FBFF34F8FFEE74FF0500383F331
:103270001188BFF36F8FBFF34F8FFEE7036C0BB95D
:103280000125E8E70025E6E70E4600F029FE10B923
:10329000019B03B1002545B94FF0500383F311881A
:1032A000BFF36F8FBFF34F8FFEE7002726E0314655
:1032B0002046FFF721FD013DA56323691BB104F101
:1032C000100000F075FDFFF767FA012005B0F0BDB2
:1032D000FFF762FA0020F9E702A800F0AFFD01272E
:1032E00016E0002384F844301EE0002384F84530C3
:1032F00020E02046FFF712FD00F060FCFFF72AFAFD
:10330000A56B002DD3D1019B002BE1D0002FE3D082
:10331000FFF742FA00F0C6FBFFF71CFA94F84430BE
:103320005BB2B3F1FF3FDCD094F845305BB2B3F150
:10333000FF3FDAD0FFF730FA01A902A800F08AFDBA
:10334000C8B92046FFF790FC0028D2D0019904F1BB
:10335000240000F015FD2046FFF7E0FC00F02EFCF5
:103360000028CBD14FF08052094B1A60BFF34F8F2A
:10337000BFF36F8FC2E72046FFF7D0FC00F01EFCC2
:103380002046FFF771FC0028B8D000209EE700BF60
:1033900004ED00E070B584B0019158B10446036CAF
:1033A0008BB14FF0500383F31188BFF36F8FBFF3DE
:1033B0004F8FFEE74FF0500383F31188BFF36F8FF9
:1033C000BFF34F8FFEE700F08BFD60B9019B63B93F
:1033D000012363B94FF0500383F31188BFF36F8F5C
:1033E000BFF34F8FFEE70123F3E70023F1E700254A
:1033F0002E4645E0013BA363236813B900F0A0FE0D
:10340000606023691BB104F1100000F0D1FCFFF7EC
:10341000C3F90125284604B070BD45B14FF05003F3
:1034200083F31188BFF36F8FBFF34F8FFEE7FFF772
:10343000B3F9EFE702A800F001FD01262AE000231E
:1034400084F8443032E0002384F8453034E0FFF75C
:1034500081F9606800F054FD0546FFF79DF93BE0F7
:103460002046FFF75BFC00F0A9FB09E02046FFF7D0
:1034700055FC00F0A3FB2046FFF7F6FB002840D1E7
:10348000FFF768F9A36B002BB4D1019B002BC4D0CC
:10349000002ECFD0FFF780F900F004FBFFF75AF9B8
:1034A00094F844305BB2B3F1FF3FC8D094F8453094
:1034B0005BB2B3F1FF3FC6D0FFF76EF901A902A8D6
:1034C00000F0C8FC0028D1D12046FFF7CDFB002832
:1034D000C6D02368002BBAD0019904F1240000F073
:1034E0004FFC2046FFF71AFC00F068FB0028C7D10C
:1034F0004FF080520A4B1A60BFF34F8FBFF36F8FAC
:10350000BEE7002D86D0FFF725F92046FFF794FB94
:103510000146606800F0AEFDFFF73EF9002579E74F
:1035200004ED00E02DE9F84360B1044699B10123B0
:10353000BBB94FF0500383F31188BFF36F8FBFF314
:103540004F8FFEE74FF0500383F31188BFF36F8F67
:10355000BFF34F8FFEE7036C0BB90123E8E70023AD
:10356000E6E717468946FFF71FFAEFF311864FF09B
:10357000500383F31188BFF36F8FBFF34F8FD4F8DD
:103580003880B8F1000F20D094F844506DB249460D
:103590002046FFF7B1FB08F1FF33A363B5F1FF3F0E
:1035A0000DD123699BB104F1100000F001FC80B142
:1035B0008FB10120386086F31188BDE8F8836B1C59
:1035C0005BB284F844300120F5E70020F3E70120E6
:1035D000F1E70120EFE70120EDE740B94FF050039C
:1035E00083F31188BFF36F8FBFF34F8FFEE710B5E2
:1035F0000446FFF7AFF8A46BFFF7CEF8204610BDE6
:1036000008B1806B70474FF0500383F31188BFF30C
:103610006F8FBFF34F8FFEE70023072B0FD8084AA9
:1036200002EBC3025268824201D00133F5E7044A3B
:10363000002142F8331002EBC30359607047704712
:103640002C42002050B110B50446FFF7E5FF94F876
:10365000463013B92046FFF7B7FA10BD4FF05003BC
:1036600083F31188BFF36F8FBFF34F8FFEE7000026
:103670000A4B1B681B684BB901234BB9074B1B68EE
:10368000DB68DB685A68064B1A6070470023F4E772
:103690004FF0FF32024B1A60704700BFBC3C002065
:1036A000903D00202DE9F04780469946089D099FEE
:1036B0000A9C266B02F18042013A06EB820626F054
:1036C000070600230F2B07D8C85CE21882F83400E5
:1036D000CA5C0AB10133F5E7002384F84330062DB4
:1036E00000D90625E56265644FF0000AC4F848A0D9
:1036F000201DFEF785FF04F11800FEF781FF24610D
:10370000C5F10705A5616462C4F84CA084F850A017
:103710004A4641463046FEF7EFFF206007B13C6065
:10372000BDE8F08738B5002407E004EB840293007D
:103730000E481844FEF759FF0134062CF5D90C4DFC
:103740002846FEF752FF0B4C2046FEF74EFF0A4874
:10375000FEF74BFF0948FEF748FF0948FEF745FF13
:10376000084B1D60084B1C6038BD00BFC43C0020E6
:10377000683D00207C3D0020983D0020C43D002095
:10378000B03D0020BC3C0020C03C002010B50446E9
:10379000FEF7E0FF1A4A136801331360194B1B68E8
:1037A0002BB3194B1B683BB9164B1B68DA6AE36AEB
:1037B0009A4201D8134B1C60144A136801331360FA
:1037C000E36A01229A401249086802430A6003EB47
:1037D00083039A00211D0F481044FEF714FFFEF7E3
:1037E000DBFF094B1B680BB1064B1B6810BD054B7B
:1037F0001C601368012BDFD1FFF794FFDCE700BFEB
:10380000503D0020B83C0020AC3D0020603D002031
:10381000643D0020C43C002010B5044690F85130AF
:1038200063B1012B11D0022B12D04FF0500383F360
:103830001188BFF36F8FBFF34F8FFEE7006BFFF769
:10384000C3F92046FFF7C0F910BDFFF7BDF910BD61
:1038500010BD00000F4B1B68D3B110B5FEF77AFF07
:103860000D4BDB68DC68201DFEF7F3FE0B4A136886
:10387000013B1360074A1368013B1360FEF78CFF9E
:103880002046FFF7C9FF034B1B68002BE6D110BD94
:10389000704700BF543D0020C43D0020503D002033
:1038A00008B5FFF7D7FF4FF08052034B1A60BFF304
:1038B0004F8FBFF36F8FF4E704ED00E070B504465F
:1038C0000E461D4B1D681D4B18680430FEF7C1FEE7
:1038D00050B91A4B1B68DA6A012303FA02F218493D
:1038E0000B6823EA02030B60B4F1FF3F13D02C44B2
:1038F000124B1B685C60A54216D8124B18680F4B20
:1039000019680431FEF78BFE0F4B1B689C4201D2F5
:103910000D4B1C6070BD002EE9D0084B19680431B6
:103920000A48FEF770FE70BD094B1868034B196812
:103930000431FEF774FE70BDD83D0020B83C002075
:10394000643D0020BC3C0020903D0020B03D0020A4
:10395000C03C002070B586B00B9D0C9C75B1B4B115
:1039600054260496049E542E1AD04FF0500383F32D
:103970001188BFF36F8FBFF34F8FFEE74FF05003F7
:1039800083F31188BFF36F8FBFF34F8FFEE74FF0C4
:10399000500383F31188BFF36F8FBFF34F8FFEE7A0
:1039A0002563022584F8515000250395029405AD46
:1039B00001950A9D0095FFF775FE2046FFF7E6FE8C
:1039C000059806B070BD2DE9F04385B006460F4658
:1039D000154698469000FFF773F810B381465420BF
:1039E000FFF76EF80446C0B1C0F83090DCB1002398
:1039F00084F85130039302940D9B01930C9B009328
:103A000043462A4639463046FFF74CFE2046FFF72C
:103A1000BDFE012005B0BDE8F0834846FFF7D4F8AD
:103A2000E4E70024E2E74FF0FF30F3E710B588B099
:103A300000240594069407AA06A905A809F0F4F93C
:103A4000059B0293069B019300942346079A104915
:103A50001048FFF77FFF18B101231BB908B010BD54
:103A60000023FAE74FF0500383F31188BFF36F8F01
:103A7000BFF34F8F4FF0FF32074B1A600122074B05
:103A80001A600022064B1A60FEF706FFE6E700BF49
:103A900080DD0008A1380008903D0020AC3D0020EA
:103AA000D83D0020024A136801331360704700BFFD
:103AB0005C3D0020014B1868704700BFD83D0020D6
:103AC00008B5FEF771FF014B186808BDD83D00200E
:103AD000314B1B68002B58D170B5304B1C6801343A
:103AE0001C60C4B92E4B1B681B6843B14FF05003D8
:103AF00083F31188BFF36F8FBFF34F8FFEE7284A20
:103B00001168284B186810601960274A1368013340
:103B10001360FFF7ADFD254B1B689C421AD20020B5
:103B200070BD01231CE04FF0FF32204B1A60F6E716
:103B30001E4A1360F3E7EB6A01229A401C490868A9
:103B400002430A6003EB83039A003146194810448C
:103B5000FEF759FD124B1B681B68002BE1D00023B8
:103B6000002BE0D10E4B1B68DB68DD686B689C4264
:103B7000DED32E1D3046FEF76CFDAB6A002BDAD08B
:103B800005F11800FEF765FDD5E70B4A1368013310
:103B900013600020704700BF5C3D0020D83D00202E
:103BA000BC3C0020C03C0020943D0020903D002003
:103BB000643D0020C43C0020583D002038B52D4B0A
:103BC0001B6843B94FF0500383F31188BFF36F8F25
:103BD000BFF34F8FFEE7FEF7BDFD264B1A68013A93
:103BE0001A601B6813B9244B1B681BB9FEF7D4FD80
:103BF000002038BD0024214B1B681BB31F4BDB6822
:103C0000DC6804F11800FEF724FD251D2846FEF7A8
:103C100020FDE36A01229A401949086802430A60BC
:103C200003EB83039A00294616481044FEF7EBFC89
:103C3000E26A154B1B68DB6A9A42DCD30122134B04
:103C40001A60D8E70CB1FFF713FD114B1C6824B9BB
:103C50000E4B1B68CAE7013C07D0FFF739FF00286D
:103C6000F9D00122094B1A60F5E70022084B1A60CF
:103C7000EEE700BF5C3D0020503D0020983D002055
:103C8000643D0020C43C0020B83C0020DC3D002006
:103C9000583D002010B5A8B10446104B1B6843B135
:103CA0004FF0500383F31188BFF36F8FBFF34F8F33
:103CB000FEE7FFF7F7FE00212046FFF7FFFDFFF7C5
:103CC0007DFF00E0002038B94FF08052044B1A60AD
:103CD000BFF34F8FBFF36F8F10BD00BF5C3D00205F
:103CE00004ED00E0214B1B68C3B90022204B1A6091
:103CF000204B1B68B3FA83F3DBB2C3F11F0303EB62
:103D000083018A001C498A5862B94FF0500383F33B
:103D10001188BFF36F8FBFF34F8FFEE70122144B63
:103D20001A60704710B414489A00D418A1000144D6
:103D30004C6864684C601A4491000831084484421D
:103D40000BD003EB83039A000B4B13445B68DA68D8
:103D50000A4B1A605DF8044B7047606803EB8302FE
:103D60009100054A0A445060EBE700BF5C3D00202B
:103D7000DC3D0020643D0020C43C0020B83C002015
:103D800040B94FF0500383F31188BFF36F8FBFF337
:103D90004F8FFEE710B50C46044B19681831FEF73B
:103DA0003EFC01212046FFF789FD10BDB83C0020F4
:103DB00038B5C368DC6824B304F118052846FEF75B
:103DC00048FC184B1B682BBB251D2846FEF741FC01
:103DD000E36A01229A401449086802430A6003EB2F
:103DE00083039A00294611481044FEF70CFCE26A4E
:103DF0000F4B1B68DB6A9A4211D901200D4B1860EA
:103E000038BD4FF0500383F31188BFF36F8FBFF3BA
:103E10004F8FFEE729460848FEF7F5FBE7E700204D
:103E200038BD00BF5C3D0020643D0020C43C002044
:103E3000B83C0020DC3D0020983D0020034B1B686F
:103E40000360034B1B684360704700BF943D002034
:103E5000D83D0020F8B5E0B1054619B30C46FEF791
:103E600079FC1A4B18686968421A2368B3F1FF3F5E
:103E700028D02F68164E3668B74201D0884223D228
:103E80009A4218D3002323600124FEF785FC2046C4
:103E9000F8BD4FF0500383F31188BFF36F8FBFF36A
:103EA0004F8FFEE74FF0500383F31188BFF36F8FFE
:103EB000BFF34F8FFEE79B1A23602846FFF7BEFF34
:103EC0000024E2E70024E0E70124DEE7D83D0020FB
:103ED000943D00200122014B1A607047DC3D002018
:103EE000054B1B6823B1054B1B681BB902207047AB
:103EF0000120704700207047AC3D00205C3D002051
:103F0000002854D038B50446C26A2A490968C96AEB
:103F10008A4242D28169002905DB26490968C96ABB
:103F2000C1F107018161606902EB82029100224ABE
:103F30000A44904207D000223AB91E4A1268D26A57
:103F4000E262012038BD0122F6E7251D2846FEF772
:103F500080FB68B9E36A03EB83018A0016498A583B
:103F600032B901229A4015490B6823EA02030B601B
:103F7000104B1B68DB6AE362012404FA03F20F4969
:103F8000086802430A6003EB83039A0029460A4843
:103F90001044FEF738FB204638BD426C054B1B68C9
:103FA000DB6A9A4201D2012038BD002038BD0020D2
:103FB000704700BFB83C0020C43C0020643D002096
:103FC00000284AD038B50446274A1268904208D0E3
:103FD0004FF0500383F31188BFF36F8FBFF34F8F00
:103FE000FEE7826C42B94FF0500383F31188BFF3B0
:103FF0006F8FBFF34F8FFEE7013A8264C06A616C36
:1040000088422CD06ABB251D2846FEF722FB70B9DA
:10401000E26A02EB82018B001449CB583BB90123C1
:1040200003FA02F212490B6823EA02030B60636C85
:10403000E362C3F10702A261012404FA03F20C490E
:10404000086802430A6003EB83039A002946074885
:104050001044FEF7D8FA204638BD002070470020F3
:1040600038BD002038BD00BFB83C0020C43C002053
:10407000643D002000285BD038B50446806C40B910
:104080004FF0500383F31188BFF36F8FBFF34F8F4F
:10409000FEE7626C8A4200D20A46E16A8A4201D097
:1040A000012800D038BD23480068844208D14FF071
:1040B000500383F31188BFF36F8FBFF34F8FFEE779
:1040C000E262A069002802DBC2F10702A261636913
:1040D00001EB81018800184A0244934226D1012253
:1040E000002ADFD0251D2846FEF7B3FA70B9E26A30
:1040F00002EB82018B001049CB583BB9012303FA34
:1041000002F20E490B6823EA02030B60E36A012204
:104110009A400A49086802430A6003EB83039A0045
:10412000294605481044FEF76EFABBE70022D7E7A0
:10413000704700BFB83C0020C43C0020643D002014
:10414000054B1B6823B1044B1A68936C01339364CD
:10415000014B1868704700BFB83C002010B50C46F2
:104160000A680C3201F044FF034608B994F90430A0
:10417000184610BD70B586B00D46114600F05AFEC7
:10418000044640B18DF80C5006A941F8140D2048A2
:10419000FFF7E4FF10B9204606B070BD63682BB18D
:1041A0001C4B89221C491D4809F027FA04F110050F
:1041B000284608F01DFBB0B104F1140008F018FB0C
:1041C000C0B904F10C06304608F05CFBC8B13046BB
:1041D00008F053FB284608F0ADFA2146072003F00B
:1041E0009FFD0024D7E70B4B8A220D490B4809F0AD
:1041F00004FAE1E7074B8C220A49084809F0FDF967
:10420000DFE7044B8F220849044809F0F6F9DEE79E
:10421000014E0008E4DD0008DCDE000834DE0008A2
:1042200000DF000818DF00083CDF000830B587B069
:1042300088B10446019029238DF80D3001A9074863
:10424000FFF78CFF054610B1284607B030BD204669
:1042500000F036FEF8E70025F6E700BFDD50000865
:1042600010B586B060B1A1B1E2B101908DF8143003
:104270000391049201A91048FFF770FF06B010BD2A
:104280000E4BD9220E490F4809F0B7F96FF00F0015
:10429000F4E70A4BDA220C490A4809F0AEF96FF04C
:1042A0000F00EBE7054BDB220849064809F0A5F9AA
:1042B0006FF00F00E2E700BF05550008E4DD0008DD
:1042C0005CDE000834DE00087CDE00089CDE0008AE
:1042D00000B587B060B1034699B101930391ADF881
:1042E000102001A90848FFF739FF07B05DF804FB6B
:1042F000064BFF220649074809F07FF96FF00F00CF
:10430000F3E70549E9E700BF49520008E4DD00088A
:10431000C8DD000834DE00089CE9000800B587B05D
:1043200040B106A941F8140D0748FFF717FF07B081
:104330005DF804FB054B4FF4B4720549054809F0DC
:104340005CF96FF00F00F2E7AD520008E4DD000801
:10435000BCDE000834DE000870B582B059B10446F6
:104360000D4600230B6080B190F9080010F10C0F8E
:1043700015DA02B070BD214B40F28D122049214860
:1043800009F03BF96FF00F00F3E71C4B40F28F127E
:104390001D491C4809F031F96FF00F00E9E704F1FD
:1043A0001406304608F024FA08B3002201A930466A
:1043B00008F0DFF9019EA36A1BB10022012120460B
:1043C0009847124B019A9A4214D016B12E600020E1
:1043D000CFE708F09FFA94F9083013F10C0F01DBD6
:1043E000F123237208F0A2FA6FF00E00C1E76FF01C
:1043F0000E00BEE76FF00C00BBE700BFE4DD000875
:1044000088DD000834DE0008A8DD00086C420020CA
:1044100000B587B040B10190039101A90748FFF7AB
:104420009DFE07B05DF804FB054B40F2C322054931
:10443000054809F0E2F86FF00F00F2E79D5300081D
:10444000E4DD000858DF000834DE0008F0B587B06E
:104450000C9D88B116460446027802F0F002102A3C
:1044600014D1002E35D0027F12F0020F18D113F0B4
:10447000040F29D0012214E0194B40F2E622194919
:10448000194809F0BAF86FF00F0323E0144B40F21B
:10449000E7221649144809F0B0F86FF0050319E057
:1044A000012202F0FF0702B1BDB1019403918DF822
:1044B0001430049601A90E48FFF750FE034648B990
:1044C00045B11FB92E6005E00022EAE7049A2A6090
:1044D00000E00023184607B0F0BD6FF00503F9E7D0
:1044E000E4DD000874DF000834DE000890DF000817
:1044F000055400082DE9F0410446164698460D463D
:10450000002930D0002C35D0002C3AD063689D4271
:1045100005D0274BBA222749274809F06EF804F145
:104520001007384608F064F980B3062003F0DEFB7C
:10453000054680B306604660B8F1000F30D0D8F869
:104540000030AB60BDF81830AB813689294638465B
:1045500008F005F930BBA36A1BB1324600212046A2
:104560009847BDE8F081124BB1221449124809F076
:1045700044F8C7E70E4BB22211490F4809F03DF845
:10458000C2E7304603F0A2FDBDE8F081304603F0FB
:104590009DFDBDE8F081304603F098FDBDE8F08157
:1045A0000023CEE7284601F01BF8BDE8F08100BFEC
:1045B00014E300088CE3000834DE000848E3000838
:1045C0006CE3000810B501464468204604F095FAF3
:1045D0000849204604F094FA0749204604F0AAFA54
:1045E00002220649204604F0DFFA0549204604F07D
:1045F000B9FA10BD314D0008BD4C00083D4C000813
:104600008D46000838B5044603685B6833B11B4B20
:104610004FF40B721A491B4808F0EFFF25682B78FE
:1046200003F0F003102B18D0202B21D1002007F02D
:10463000C3FF686023685A6842B11B78222B09D0F7
:1046400023681A461049586807F089FF23685B6899
:104650008BB138BD01231374F2E7002005F016F882
:10466000686020684368002BF0D0FFF7ABFFEDE7F0
:10467000FA23237138BDFF232371EAE714E300080E
:1046800090E2000834DE0008F5440008F8B50E4654
:104690000446002838D00023636065786370042DD9
:1046A0003AD008F037F9267208F040F9A36A1BB136
:1046B0000022042120469847A36A1BB1002211461C
:1046C00020469847A36A1BB1002202212046984742
:1046D00004F11007384608F08BF868BB04F11407A2
:1046E000384608F085F860BB012D2FD0042D2DD061
:1046F000032D2BD0636A33B12E4B40F2BD122E49ED
:104700002E4808F07AFFF8BD2A4B4FF4C2722C49AC
:104710002A4808F072FFBEE764B108F0FBF894F98C
:10472000083013F10C0F01DB0023237208F0FEF8B0
:104730000026BBE70026B9E70021384608F00FF84D
:10474000CCE70021384608F00AF8CDE7237F23F0B4
:104750000402227713F0040FD5D1636ACBB1636AE8
:104760001E71636A1D680C35284608F08BF8C0B1CD
:10477000002363624CB108F0CDF894F9083013F1CE
:104780000C0F00DB267208F0D1F8284608F070F80C
:10479000F8BD084B40F2B3120A49084808F02DFF53
:1047A000DDE7044B4FF4DB720749044808F025FFAE
:1047B000DEE700BF14E30008FCDF000834DE000879
:1047C000B4DF0008C4DF0008E0DF00082DE9F8438B
:1047D00088460446F0B16378012B06D07A4B40F24C
:1047E000E4527A497A4808F008FF636AD3B16368F3
:1047F00003B3226A636ADB689A4223D2626A92F840
:104800001090237F13F0020F24D119F0040F39D038
:10481000012620E06C4B40F2E3526E496C4808F0F0
:10482000ECFED8E7684B40F2E5526B49684808F067
:10483000E4FEDCE7644B40F2E6526849644808F065
:10484000DCFED6E7604B4FF4BD626549604808F076
:10485000D4FED3E70126F6B29768236A1F44D268D4
:10486000D51AB5F5803F0FD349F002094FF6FF7511
:104870006168B1F860108D420BD93EB1002939D082
:104880000D4606E00026E6E7ADB2F1E749F0020981
:104890000D462B449A4225D34B462A46394660683A
:1048A00006F0E0FC0746431CDBB2012B25D9002FA4
:1048B00045D1236A1D442562636ADA68954200D0B7
:1048C0000EB1DD600126606807F07AF810F10C0F78
:1048D00002DB10F1040F39D1636A0022DA60074667
:1048E000012633E0384B40F213623E49384808F065
:1048F00084FED1E70D466FF0060776B1636ADB6888
:104900009D420AD2A36A1BB12A460321204698473A
:10491000237F43F010032377C9E76368B3F860206F
:10492000B2F5866F03D3B3F86230042BBFD9A36A04
:10493000002BBCD02A46032120469847B7E7B7F1A1
:10494000FF3F1FD0636A0022DA600126002E37D0B5
:10495000636A186800F10C051F710023636223620B
:1049600063704CB107F0D6FF94F9083013F10C0FC7
:1049700000DB277207F0DAFFB8F1000F1AD1002030
:10498000BDE8F883606807F01BF810F10C0F0BDB33
:1049900010F1040F08D0002ED8D0636A0022DA602C
:1049A00001266FF00607D1E7636A0022DA60074646
:1049B0000126CBE7284607F05BFF0020BDE8F8831F
:1049C0004FF0FF30BDE8F88314E3000828E1000849
:1049D00034DE0008B4DF0008C4DF000848E1000846
:1049E00060E1000894E100082DE9F047884604469C
:1049F000002835D0237803F0F003102B06D0834B2A
:104A00004FF451728249834808F0F7FD6378042B14
:104A100006D07E4B40F245327F497E4808F0EDFDDE
:104A200063682BB3636A5BB36568636A1B7A03F0E0
:104A3000010A03F00209032B2AD0BAF1000F06D0B5
:104A40002A7D531FDBB2012B3AD9082A3AD0B9F19B
:104A5000000F39D0AB7E13F0100F37D1002718E0CC
:104A60006A4B40F243326D496A4808F0C6FDC1E71F
:104A7000664B40F246326A49664808F0BEFDD1E70F
:104A8000624B40F247326749624808F0B6FDCBE717
:104A90000127EFB92B7D012B1FD0BAF1000F21D1D7
:104AA000B9F1000F27D15FBBA7B3284604F0B6FBCE
:104AB0000646002E42D0B6F1FF3F32D001233EE041
:104AC0000127E6E70127E4E70027E2E70127E0E71F
:104AD0000021284604F011F8DCE70021284604F004
:104AE0005BF8E1E70021284604F00AF80021284697
:104AF00004F052F8D4E70021284604F01BF8D2E76E
:104B000000221146284604F04FF80021284604F000
:104B100029F8C9E74A465146284604F027FC0646CC
:104B2000C7E7636A5B7A002B3FD10FB9012306E028
:104B3000284604F0C3FC3B46002600E00123002B7E
:104B40003AD0636A1D680C351E710023636263707E
:104B5000CEB937B16360A36A1BB10022042120469D
:104B60009847BAF1000F05D0A36A1BB10022114685
:104B700020469847B9F1000F05D0A36A1BB1002267
:104B80000221204698474CB107F0C4FE94F9083042
:104B900013F10C0F00DB267207F0C8FEB8F1000F0E
:104BA00005D100263046BDE8F0870023C7E7284638
:104BB00007F05EFE0026F5E72B7D012B19D0B9F139
:104BC000000F1ED101221849284603F0EDFF1749B6
:104BD000284603F0C7FF2146284603F08EFF002E2B
:104BE000E0D10A4B40F2EF3211490A4808F005FDC6
:104BF000D8E7064B40F2E3320E49064808F0FDFCC8
:104C0000DDE70D49284603F095FFDBE714E30008D4
:104C100018E0000834DE000838E00008CCDE0008A8
:104C20005CE00008C4DF00083D4C00088D46000829
:104C300094E0000870E00008BD4C000810B5044680
:104C4000F0B16378012B23D0042B26D0237F13F0FF
:104C5000100F13D062688AB1B2F86010B1F5866F98
:104C60000CD3B2F86220042A08D823F0100323776B
:104C7000A36A1BB10022022120469847002010BDE4
:104C80000B4B4FF49C720B490B4808F0B6FCD8E76D
:104C900001212046FFF79AFDD8E7636A1BB15A7AD3
:104CA0000AB1013A5A7201212046FFF79DFECDE775
:104CB00014E30008B4DF000834DE000838B51546F8
:104CC0000446E0B1CCB16378012B20D0042B23D073
:104CD000636893B1B3F86020B2F5866F0DD3B3F873
:104CE0006230042B09D8237F23F010032377A36AB3
:104CF0001BB12A46022120469847002038BD094BA7
:104D000040F261120849094808F077FCDAE701210E
:104D10002046FFF75BFDDBE701212046FFF764FE3D
:104D2000D6E700BF14E30008B4DF000834DE000853
:104D30002DE9F0410446154698460F46E9B11CB3EB
:104D4000002C4AD063689F4206D0284B4FF48072F3
:104D50002749284808F051FC04F11006304607F0B6
:104D600047FDC0B9002D3BD02989384603F058FED5
:104D7000284603F0ABF900251EE01C4BF9221E4922
:104D80001C4808F03AFCDAE7184BFA221B4919488C
:104D900008F033FCD4E7B8F1000F10D1DDB12F8952
:104DA0002946304607F0DBFC0546D8B9A36A1BB19B
:104DB0003A460021204698472846BDE8F08107F092
:104DC000A9FD94F9083013F10C0F01DB84F8088079
:104DD00007F0ACFDE2E70027E2E76FF00505EBE73F
:104DE0000025E9E74FF0FF35E6E700BF14E30008D0
:104DF000F4E2000834DE0008B0E20008D4E2000863
:104E000010B504460023037103685B687BB1236817
:104E100063B107F07FFD236893F9082012F10C0FAE
:104E200002DB94F904201A7207F080FD10BDFFF731
:104E3000E9FBECE770B505460E46072002F056FF89
:104E4000044618B3002303720570436005F0F005B3
:104E5000102D01D0202D1BD104F11005062128466C
:104E600007F054FCD8B9002104F10C0007F0C9FC8C
:104E7000D8B904F1140007F0C1FC002363704FF0AF
:104E8000FF32A261A662636223622377204670BD6F
:104E9000084B4FF42A720849084808F0AEFB214637
:104EA000072002F03DFF0024F0E7284607F042FC0F
:104EB000F5E700BF14E30008C0E1000834DE000895
:104EC00038B50446436833B1164B4FF4387216496F
:104ED000164808F092FB04F1100007F089FC88B92D
:104EE00004F1140007F084FCA0B904F10C05284675
:104EF00007F0C3FC284607F0CBFC2146072002F050
:104F00000FFF38BD074B40F2E2220949074808F07D
:104F100074FBE5E7034B40F2E5220649034808F03D
:104F20006CFBE2E714E30008E8E1000834DE000867
:104F300018E2000854E2000870B582B0054600F19E
:104F40001004204607F054FC38BB1435284607F0FF
:104F50004FFC00283ED001A9284607F036FCB0F1EE
:104F6000FF3F31D0019C1C4B9C42F4D02046FFF700
:104F7000E3FF606818B104F0A1FA002363602046E3
:104F8000FFF79EFFE7E7019E3EB1686810B13189E7
:104F900003F046FD304603F099F801A9204607F0DA
:104FA00014FCB0F1FF3F08D02B7803F0F003102B76
:104FB000E9D0019800F014FBEFE7204607F0BAFBB8
:104FC000204607F01BFCC0E7284607F0B3FB284645
:104FD00007F014FC02B070BD6C4200202DE9F041D6
:104FE000002867D0044616460D4600F114084046D6
:104FF00007F0FEFB002860D0C5B1A16A2078FFF75A
:1050000019FF074610B34560FFF7DCFA3E723946D8
:10501000404607F0A4FB054630BBA36A1BB1002243
:105020001146204698472846BDE8F0812A49404667
:1050300007F095FB002843D1A36A002B43D0002240
:105040001146204698476FF00505ECE72249404697
:1050500007F085FBD0BBA36ADBB3002211462046D4
:1050600098474FF0FF35DEE77C680021204603F0CB
:1050700044FD0021204603F043FD0021204603F0BB
:1050800059FD00221146204603F08EFD00212046E6
:1050900003F068FD00237B6007F11004204607F051
:1050A00049FB204607F0AAFB3846FFF709FF4FF0FF
:1050B000FF35B8E76FF00505B5E76FF00505B2E716
:1050C0006FF00505AFE76FF00505ACE74FF0FF3572
:1050D000A9E74FF0FF35A6E76C42002038B504463B
:1050E00003685D785DB11B7803F0F003102B06D0E8
:1050F0004E4B40F201424E494E4808F07EFAD5B17F
:10510000022D18D0032D16D0FB23237120680C30FC
:1051100007F0B8FB70B1236863B107F0FBFB2368AD
:1051200093F9082012F10C0F02DB94F904201A7293
:1051300007F0FCFB38BD032D27D0032D2BD0002317
:1051400023712068FFF7F8FE2268516879B113785F
:1051500003F0F003102B2BD0202B05D10023CB61C3
:105160002368586807F0FEF9236800225A60206817
:10517000836A13B10022114698472068836A002B86
:10518000C4D0002202219847C0E723681B7F13F098
:10519000040FD2D1B8E723681B7F13F0040FCED1E0
:1051A000224B40F21F422449224808F026FAC6E763
:1051B000536A002B36D01D4B40F235421F491D4823
:1051C00008F01BFA236804225A7003232372236811
:1051D0005C6200212068FFF707FC0028AAD0236842
:1051E0005B78042B06D0114B40F23B421449114826
:1051F00008F003FA134D284607F072FB20680021DF
:105200000C3007F017FB284607F063FB23685B7838
:10521000002B8FD0054B40F23F420949054808F06A
:10522000ECF938BD136A002BCCD0C4E714E30008B6
:10523000A4E0000834DE0008B8E00008D8E0000868
:10524000F4E000087042002010B50446036893F9AA
:10525000082012F10C0F10DA0271236863B107F015
:1052600059FB236893F9082012F10C0F02DB94F923
:1052700004201A7207F05AFB10BDFA220271586816
:105280000028EAD01B7803F0F003102B07D0202B66
:10529000E3D1A289A16807F06FF82071DDE7A28948
:1052A000A16803F0CFFA2071D7E7000030B583B0D2
:1052B0000446036893F9082012F10C0F11DA027109
:1052C000236863B107F026FB236893F9082012F1E5
:1052D0000C0F02DB94F904201A7207F027FB03B0CD
:1052E00030BDF522027158680028E9D01A7802F022
:1052F000F002102A02D0F0232371E1E75B78002B43
:1053000045D1037D13B1FA232371D9E70DF10702CB
:10531000FF2103F0F5FA0546F0B12068103007F0E0
:1053200067FAE8B9002323712068143007F060FAA7
:10533000F8B194F904301BBB236802225A70236829
:105340005D6023681946586803F0D7FB236812494B
:10535000586803F021FCB3E79DF807302371AFE7ED
:105360002068103007F0E6F92068103007F046FAA0
:10537000D8E720680621143007F0C8F92071D8E773
:10538000284603F04BFF236800225A6098E7022B5F
:1053900096D10023237193E7DD4F000810B5044632
:1053A000036893F9082012F10C0F10DA02712368D8
:1053B00063B107F0AFFA236893F9082012F10C0FDC
:1053C00002DB94F904201A7207F0B0FA10BDF5223E
:1053D000027158680028EAD01B7803F0F003202BF4
:1053E000E5D1A1688B6823B9096807F0AEF8207190
:1053F000DDE78B8901F10802096807F088F8207160
:10540000D5E7000038B50446036893F9082012F187
:105410000C0F0FDA027163B107F07CFA236893F97D
:10542000082012F10C0F02DB94F904201A7207F025
:105430007DFA38BD1A7802F0F002102A02D0FA2262
:105440000271E8E75A7812B1FB220271E3E75A6869
:10545000002A48D001225A7003685A6A002A36D0BE
:10546000224B40F283622249224808F0C6F8E368E2
:10547000002B30D023685C62236800211962206809
:10548000FFF7A4F90028D4D023685B78012B06D05D
:10549000164B40F289621849164808F0AEF8174DCD
:1054A000284607F01DFA206800210C3007F0C2F9E9
:1054B000284607F00EFA23685B78012BB9D10B4B15
:1054C00040F28D620C490B4808F097F838BD1B6A12
:1054D000002BCCD0C4E7054B40F284620849054854
:1054E00008F08BF8C6E7F522027194E714E3000890
:1054F000D8E0000834DE0008F4E000087042002024
:1055000014E1000810B5044603685B68002B4ED018
:10551000027C9AB182681B681360002323712268A1
:10552000137803F0F003102B18D0202B28D1237C04
:1055300043B1E3685268528A1A8028E082685B6847
:105540001360EAE753681A7C12F0040F02D1F523C6
:1055500023711CE0E2689B8A138018E0237C1BB94E
:105560005168097D012905D9E16833B15368DB8AA7
:105570000B800CE0F523237109E053681B8BF7E7E0
:105580000C4B40F2DD620C490C4808F036F82368F9
:1055900063B107F0BFF9236893F9082012F10C0FEB
:1055A00002DB94F904201A7207F0C0F910BDF5234C
:1055B0000371ECE714E30008FCE0000834DE0008A7
:1055C000002801DD052070474042102801DD05203C
:1055D0007047024B53F82000704700BFACE300084F
:1055E00068B110B50446006820B102F06FFD0023D9
:1055F000636023602146062002F092FB10BD7047D5
:1056000010B540B10446006808B102F05FFD002308
:105610006360236010BD034B81220349034807F0F8
:10562000ECFF10BDF0E3000864E4000834DE00087D
:1056300070B5A8B10E4615460446006808B102F0E0
:1056400045FD02220021084602F0ACFD206080B139
:10565000466023681D815D8123686360002070BD02
:10566000064B95220649074807F0C7FF6FF00F0069
:1056700070BD002363604FF0FF3070BDF0E30008A1
:1056800080E4000834DE000803280CD810B40B4C6A
:10569000830019188A001146224463584BB1104602
:1056A0005DF8044B70470922054B1A600022104632
:1056B00070470922024B1A600022F0E7E83D002003
:1056C000A0790020F8B506460D46002405E035B364
:1056D000012524E007F02AF90134032C29DC07F026
:1056E00019F904EB84029300144AD358002BF1D12A
:1056F00004EB84039A00114B13445B7C002BE9D12B
:105700000E498F188E5007F011F900237B603B8102
:105710007B81337803F0F003102BD8D00125A30050
:1057200023449A00054B13449D810022DA811A74A8
:1057300001E04FF0FF342046F8BD00BFE83D0020F7
:10574000002800F0A5802DE9F04105460C46D0F870
:105750001880B8F1000F10DB4046FFF795FF0746B1
:10576000002800F0938007F0D5F80546042C2DD8CA
:10577000DFE804F0151E2326290007F0CBF8D5F842
:105780001880B8F1000F02DB07F0D0F8E4E714B995
:1057900008F1FF33AB6107F0C9F8BDE8F081B7F954
:1057A0000A3001337B817B7CC3B13A4B1C6827E014
:1057B000B7F90A30013B7B81F5E70123BB81F2E7B2
:1057C0000023BB81EFE70123FB81ECE7324B40F282
:1057D0005D623249324807F010FFE4E7284607F0DF
:1057E000A5F8BDE8F081002B46D1284607F09EF8C9
:1057F00007F090F805462B4B1B689E42D5D12468D4
:10580000002C40D0274B1E686369002BEDD1B7F9FF
:105810000A20002A0CDDA26852B14FEA581152F852
:10582000211008F01F0001228240114200D0012304
:10583000BA896AB163B9E26852B14FEA581152F8B5
:10584000211008F01F0001228240114200D00123E4
:10585000FA89002AC7D0002BC5D12269002AC2D0FC
:105860004FEA581152F8211008F01F00012282401F
:105870001142B8D00123B6E70123636104F1180097
:1058800006F0F6FFB1E7284607F050F8BDE8F081D2
:10589000704700BFE43D002044E5000898E400089C
:1058A00034DE0008E03D0020F8B504460F464668A7
:1058B000002545600581057407F02CF8256007F088
:1058C00035F81EB11FB93046FFF78AFEF8BD3046E5
:1058D00002F0FCFBF8BD00002DE9F04389B00F4653
:1058E00016460023ADF81630FFF7CEFE002800F074
:1058F000C28005460068037F13F0020F03D0B5F99C
:105900000A30002B17DD07A9FEF726FD38B32B68F8
:105910001B7803F0F003102B13D110F10F0F17D0E9
:10592000FFF74EFE2874002800F0A880554B186041
:105930004FF0FF346AE00B22524B1A604FF0FF34F5
:1059400064E05F232B744F4A13604FF0FF345DE037
:1059500016232B744B4A13604FF0FF3456E0079B1D
:10596000002B57D001210798FFF7ACFE0446B0F199
:10597000FF3F57D003285DD8079B9A6A424B9A4253
:1059800006D0424B4FF4FF724149424807F035FEC2
:10599000A30023449A00404B03EB020806F0BAFF31
:1059A000079A118BB8F80A305B1A013BA8F80A3045
:1059B000946106F0BBFF3FB300230DF1160206A968
:1059C0000798FEF74DFC814600283BD1002E4AD0B7
:1059D00010238DF8043002238DF80530BDF8160031
:1059E00000F058FBADF80600069B029300230393DA
:1059F000049332689DF804309A4200D933603268CB
:105A000001A9384607F065FF00232B74204609B032
:105A1000BDE8F0831D4B40F2F51220491D4807F008
:105A2000ECFD9FE70798FEF701FC17232B74154A3E
:105A30001360EBE7154B40F2FD121949154807F0CA
:105A4000DCFD99E70798FEF7F1FB01214046FFF7DF
:105A50002BFF4846FFF7B4FD287408B1094B1860C6
:105A60004FF0FF34D2E7094B40F219220D490948A3
:105A700007F0C3FDACE74FF0FF34C7E74FF0FF344A
:105A8000C4E700BFA07900204157000844E50008A2
:105A9000D0E4000834DE0008E83D0020A8E4000857
:105AA000B8E40008F4E4000870B582B00E4615466C
:105AB000FFF7EAFD002834D00446102D12D01D4B0C
:105AC00040F242221C491D4807F097FD6FF00F007D
:105AD000FFF776FD207438B3194B18604FF0FF3094
