:020000040800F2
:1000000000000320394B0008914800089F48000871
:10001000A5480008AB480008B148000800000000EF
:10002000000000000000000000000000B1300008E7
:10003000B748000800000000F132000859330008FA
:10004000894B0008894B0008894B0008894B000840
:10005000894B0008894B0008894B0008894B000830
:10006000894B0008894B0008894B0008894B000820
:10007000894B0008894B0008894B0008894B000810
:10008000894B0008894B0008894B0008894B000800
:10009000894B0008894B0008894B0008894B0008F0
:1000A000894B0008894B0008894B0008894B0008E0
:1000B000894B0008894B0008894B0008894B0008D0
:1000C000894B0008894B0008894B0008894B0008C0
:1000D000894B0008894B0008894B0008894B0008B0
:1000E000894B0008894B0008894B0008894B0008A0
:1000F000C5480008894B0008894B0008894B000857
:10010000894B0008894B0008894B0008894B00087F
:10011000894B0008894B0008894B0008894B00086F
:10012000894B0008894B0008894B0008894B00085F
:10013000894B0008894B0008894B0008894B00084F
:10014000894B0008894B0008894B0008894B00083F
:10015000894B0008894B0008894B0008894B00082F
:10016000894B0008894B0008894B0008894B00081F
:10017000894B0008894B0008894B000800000000EB
:10018000894B0008894B0008894B0008894B0008FF
:10019000894B0008894B0008894B0008894B0008EF
:0C01A000894B0008894B0008894B0008BF
:1001B00010B5054C237833B9044B13B10448AFF3A1
:1001C00000800123237010BD0C00002000000000FF
:1001D000E44B000808B5034B1BB103490348AFF3D8
:1001E000008008BD0000000010000020E44B000863
:1001F00053B94AB9002908BF00281CBF4FF0FF318E
:100200004FF0FF3000F07AB9ADF1080C6DE904CE83
:1002100000F006F8DDF804E0DDE9022304B07047E1
:100220002DE9F0478C460D460446089E002B51D11F
:100230008A4217466DD9B2FA82FEBEF1000F0BD08A
:10024000CEF1200C01FA0EF520FA0CFC02FA0EF7A2
:100250004CEA050C00FA0EF44FEA174A250CBCFBD9
:10026000FAF81FFA87F90AFB18CC45EA0C4508FB97
:1002700009F3AB420AD9ED1908F1FF3280F023816E
:10028000AB4240F22081A8F102083D44ED1AA4B22D
:10029000B5FBFAF00AFB105544EA054400FB09F9E6
:1002A000A14509D9E41900F1FF3380F00A81A14585
:1002B00040F2078102383C44A4EB090440EA0840BC
:1002C0000021002E61D024FA0EF400233460736004
:1002D000BDE8F0878B4207D9002E54D0002186E874
:1002E00021000846BDE8F087B3FA83F1002940F009
:1002F0008E80AB4202D3824200F2FA80841A65EB10
:1003000003050120AC46002E3FD086E81010BDE862
:10031000F08712B90127B7FBF2F7B7FA87FEBEF1F3
:10032000000F34D1EB1B3A0C1FFA87FC0121B3FB01
:10033000F2F8250C02FB183345EA03450CFB08F3E1
:10034000AB4207D9ED1908F1FF3002D2AB4200F2FF
:10035000D1808046ED1AA3B2B5FBF2F002FB105536
:1003600043EA05440CFB00FCA44507D9E41900F15D
:10037000FF3302D2A44500F2B8801846A4EB0C0467
:1003800040EA08409DE731463046BDE8F087CEF1AF
:10039000200405FA0EF307FA0EF720FA04F83A0CD7
:1003A00025FA04F448EA0308B4FBF2F14FEA1845D1
:1003B00002FB11441FFA87FC45EA044501FB0CF3DC
:1003C000AB4200FA0EF409D9ED1901F1FF3080F0CB
:1003D0008A80AB4240F2878002393D44EB1A1FFA13
:1003E00088F5B3FBF2F002FB103345EA034500FB4E
:1003F0000CF3AB4207D9ED1900F1FF386FD2AB42D5
:100400006DD902383D44EB1A40EA01418FE7C1F152
:10041000200722FA07F88B4005FA01F448EA0303A3
:1004200020FA07FE4FEA134CFD404EEA040EB5FBDE
:10043000FCF94FEA1E440CFB19551FFA83F844EAF5
:10044000054509FB08F4AC4202FA01F200FA01FA90
:1004500008D9ED1809F1FF3043D2AC4241D9A9F1D6
:1004600002091D442D1B1FFA8EFEB5FBFCF00CFB90
:1004700010554EEA054400FB08F8A04507D9E418DA
:1004800000F1FF3529D2A04527D902381C4440EAA3
:100490000940A4EB0804A0FB02894C45C6464D4622
:1004A00015D312D056B1BAEB0E0364EB050404FA6F
:1004B00007F7CB401F43CC40376074600021BDE894
:1004C000F0871846F8E69046E0E6C245EAD2B8EB77
:1004D000020E69EB03050138E4E72846D7E74046FA
:1004E00091E78146BEE7014678E702383C4445E79C
:1004F000084608E7A8F102083D442BE7704700BF13
:1005000080B500AF0E4A0E4B1B6843F400731360B6
:100510000B4A0B4B1B6843F480631360084A084B7B
:100520001B6843F480731360032000F0F8F8002088
:1005300004F054F904F026F90023184680BD00BFEA
:10054000003C024080B400AF064B1B781A46064BB5
:100550001B681344044A136000BFBD465DF8047B6A
:10056000704700BF00000020C83F002080B400AFEB
:10057000034B1B681846BD465DF8047B704700BFFF
:10058000C83F002080B584B000AF7860FFF7EEFF71
:10059000B8607B68FB60FB68B3F1FF3F05D0094B97
:1005A0001B781A46FB681344FB6000BFFFF7DEFFB1
:1005B0000246BB68D21AFB689A42F7D300BF1037D5
:1005C000BD4680BD0000002080B485B000AF7860DB
:1005D0007B6803F00703FB600C4BDB68BB60BA6809
:1005E0004FF6FF031340BB60FB681A02BB6813435E
:1005F00043F0BF6343F40033BB60044ABB68D3607D
:1006000000BF1437BD465DF8047B704700ED00E085
:1006100080B400AF044BDB681B0A03F007031846E5
:10062000BD465DF8047B704700ED00E080B483B008
:1006300000AF0346FB7197F90730002B0BDB09492C
:1006400097F907305B09FA7902F01F02012000FADE
:1006500002F241F8232000BF0C37BD465DF8047B51
:10066000704700BF00E100E080B483B000AF0346F4
:100670003960FB7197F90730002B0ADB0D4997F9B8
:1006800007303A68D2B21201D2B20B4483F8002389
:100690000AE00949FB7903F00F03043B3A68D2B240
:1006A0001201D2B20B441A7600BF0C37BD465DF87A
:1006B000047B704700E100E000ED00E080B489B009
:1006C00000AFF860B9607A60FB6803F00703FB6174
:1006D000FB69C3F10703042B28BF0423BB61FB693B
:1006E0000433062B02D9FB69033B00E000237B6146
:1006F0000122BB6902FA03F35A1EBB681A407B69E8
:100700009A4001217B6901FA03F3591E7B680B4073
:10071000134318462437BD465DF8047B704780B507
:1007200082B000AF78607868FFF74EFF00BF0837EF
:10073000BD4680BD80B586B000AF0346B9607A6023
:10074000FB7300237B61FFF763FF78617A68B96808
:100750007869FFF7B3FF024697F90F301146184644
:10076000FFF782FF00BF1837BD4680BD80B582B05D
:1007700000AF0346FB7197F907301846FFF756FFA5
:1007800000BF0837BD4680BD80B588B000AF786037
:100790000023FB610023FB60AA4BBB6100237B614C
:1007A00000233B617B68002B01D1012385E17B683D
:1007B00093F84430DBB2002B06D17B68002283F82B
:1007C0004520786803F038FD0023BB609E4A9E4BAD
:1007D0005B6C43F4804353649B4B5B6C03F480433A
:1007E000BB60BB68994A994B5B6823F40003536074
:1007F0009649964B5A687B681B6A13434B607B682B
:100800001B687A68126802F58052126842F0010291
:1008100003F580531A60FFF7A9FE786111E0FFF736
:10082000A5FE02467B69D31AB3F5FA7F09D97B6826
:10083000032283F844207B68002283F845200323A9
:100840003BE17B681B6803F580531B6803F00103E1
:10085000002BE4D17B681B681B69FB61FB6923F0FB
:100860001C03FB6101F0D8FAB861BB69784A934276
:1008700008D9BB69774A934204D8FB6943F008035F
:10088000FB6127E0BB69734A934208D9BB69724A8E
:10089000934204D8FB6943F00C03FB611AE0BB6987
:1008A0006D4A934203D9BB696C4A934211D9BB6923
:1008B0006A4A934208D9BB69694A934204D8FB69E2
:1008C00043F00403FB6105E0FB6943F01003FB61A7
:1008D00000E000BF7B681B68FA691A614FF40042B0
:1008E0000021786800F056F90346002B0BD0012355
:1008F0003B613969786800F0B3F97B68012283F8BD
:1009000044200123D9E0FF20FFF73CFE7B685B68B1
:10091000002B00F0A780FFF729FE786107F10C0398
:100920001A460121786800F0CDF8FFF71FFE024655
:100930007B69D31A41F2883293420FD901233B617C
:100940003969786800F08CF97B68012283F84420CB
:100950007B68002283F845200323AEE0FB6803F0A8
:100960000403002BDAD04FF480520021786800F0A5
:1009700011F90346002B0BD001233B6139697868DC
:1009800000F06EF97B68012283F84420012394E093
:10099000FFF7ECFD786107F10C031A460121786836
:1009A00000F090F8FFF7E2FD02467B69D31A41F2AE
:1009B000883293420FD901233B613969786800F08E
:1009C0004FF97B68012283F844207B68002283F87A
:1009D0004520032371E0FB6803F02003002BDAD0ED
:1009E00007F10C031A461F21786800F06BF80346E4
:1009F000002B0BD001233B613969786800F030F996
:100A00007B68012283F84420012356E0FB6803F051
:100A10001003002B04D07B684FF40062DA6002E020
:100A20007B680022DA60FB6803F00403002B03D02C
:100A30007B6800229A6037E07B684FF480429A60BE
:100A400032E000BF008793030038024000380140C5
:100A5000FF2C3101BF0E1602FF869303FFE0F50560
:100A60007FD1F0087B68DB68DB089AB27B689B6803
:100A70005B089BB213439BB21A460021786800F0D2
:100A800089F80346002B0BD001233B613969786854
:100A900000F0E6F87B68012283F8442001230CE093
:100AA00040F6FF70FFF76EFD3969786800F0D8F8FE
:100AB0007B68012283F84420002318462037BD4676
:100AC00080BD00BF80B586B000AFF8600B467A608D
:100AD0007B8100237B6100233B61FB6893F84430FA
:100AE000DBB2822B01D1022350E0FB68822283F823
:100AF0004420FB681B681B697B617B6903F01C0356
:100B00007B61FB681B8ADB029BB27A6913437B61C2
:100B10007B899B0103F4F8637A6913437B617B69EA
:100B200023F002037B617B6943F001037B61FB6877
:100B30001B687A691A61FFF719FD386115E0FFF744
:100B400015FD02463B69D31AB3F5803F09D3FB6814
:100B5000012283F84420FB68002283F84520032308
:100B600014E0FB681B681B697B617B6903F0010370
:100B7000002BE4D1FB681B685B699BB21A467B685B
:100B80001A60FB68012283F84420002318461837B6
:100B9000BD4680BD80B586B000AFF8600B467A6078
:100BA0007B8100237B6100233B61FB6893F8443029
:100BB000DBB2422B01D102234EE0FB68422283F8D4
:100BC0004420FB681B681B697B617B6903F01C0385
:100BD0007B61FB681B8ADB029BB27A6913437B61F2
:100BE0007B899B0103F4F8637A6913437B617B691A
:100BF00043F002037B617B6943F001037B61FB6887
:100C00001B687A6892B25A61FB681B687A691A613C
:100C1000FFF7ACFC386115E0FFF7A8FC02463B6922
:100C2000D31AB3F5803F09D3FB68012283F844202F
:100C3000FB68002283F8452003230DE0FB681B6856
:100C40001B697B617B6903F00103002BE4D1FB6826
:100C5000012283F84420002318461837BD4680BD82
:100C600080B5B0B000AF786039600023C7F8BC3001
:100C70003B68002B07D07B684FF40062DA607B682A
:100C80004FF480429A600023BB640023FB6400237E
:100C90003B6500237B650023BB650023FB657B6808
:100CA000DB69002B03D14FF480633B6601E0002336
:100CB0003B664FF400737B660023BB660023FB6634
:100CC00000233B6700237B670023BB674023FB6750
:100CD0000023C7F880300023C7F884300023C7F80A
:100CE00088300023C7F88C300023C7F890300023E9
:100CF000C7F894300023C7F898300023C7F89C3019
:100D00008023C7F8A0300023C7F8A4300023C7F819
:100D1000A8300023C7F8AC300023C7F8B030002358
:100D2000C7F8B4300023C7F8B8307B681B681B686D
:100D3000C7F8BC30D7F8BC20AB4B1340C7F8BC3069
:100D4000BA6CFB6C1A433B6D1A437B6D1A437B688C
:100D50009B681A43BB6D1A43FB6D1A437B68DB68C3
:100D60001A433B6E1A437B6E1A43BB6E1A43FB6EEB
:100D70001A433B6F1343D7F8BC201343C7F8BC306A
:100D80007B681B68D7F8BC201A607B681B681B68EF
:100D9000C7F8BC300120FFF7F5FB7B681B68D7F86C
:100DA000BC201A607B681B68796FBA6F1143FA6FB9
:100DB0001143D7F880201143D7F884201143D7F886
:100DC00088201143D7F88C201143D7F890200A438C
:100DD0005A607B681B685B68C7F8BC300120FFF76E
:100DE000D1FB7B681B68D7F8BC205A607B681B6806
:100DF000D7F894209A607B681B68D7F89820DA604F
:100E00007B681B689B69C7F8BC30D7F8BC204FF6DD
:100E100041731340C7F8BC30D7F89C301A04D7F898
:100E2000A0301A43D7F8A4301A43D7F8A8301A4391
:100E3000D7F8AC301A43D7F8B0301343D7F8BC20FA
:100E40001343C7F8BC307B681B68D7F8BC209A6195
:100E50007B681B689B69C7F8BC300120FFF792FBD9
:100E60007B681B68D7F8BC209A617B681B68D7F841
:100E7000B410D7F8B8200A43DA617B681B68DB69D5
:100E8000C7F8BC300120FFF77DFB7B681B68D7F8F3
:100E9000BC20DA610023BB604FF00073FB600023CD
:100EA0003B614FF400137B610023BB610023FB61B6
:100EB00000233B6200237B620423BB624FF000737C
:100EC000FB624FF480333B634FF480037B634FF44A
:100ED0000053BB638023FB6300233B6400237B64DC
:100EE0007B681B6803F5805318331B68C7F8BC3058
:100EF000D7F8BC203D4B1340C7F8BC30BA68FB683C
:100F00001A433B691A437B691A43BB691A43FB695D
:100F10001A433B6A1A437B6A1A43BB6A1343D7F8E6
:100F2000BC201343C7F8BC307B681B6803F58053B3
:100F30001833D7F8BC201A607B681B6803F5805310
:100F400018331B68C7F8BC300120FFF71BFB7B6818
:100F50001B6803F580531833D7F8BC201A607B68F0
:100F60001B68F96A3A6B11437A6B1143BA6B1143F0
:100F7000FA6B11433A6C920011437A6C0A4342F4C3
:100F8000000203F580531A607B681B6803F58053E9
:100F90001B68C7F8BC300120FFF7F4FA7B681B68B8
:100FA00003F58053D7F8BC201A607B689B69012B3E
:100FB0000FD17B6819687B681B6803F580531C336D
:100FC0001B6843F4803242F0400201F580531C3329
:100FD0001A607B685B691A460021786800F008F89F
:100FE00000BFC037BD4680BD0F8120FF233FDEF824
:100FF00080B487B000AFF860B9607A607B68053371
:101000001B781B027A680432127813437B61BA683A
:10101000114B13441A467B6913607B6803331B78BA
:101020001A067B6802331B781B041A437B68013362
:101030001B781B0213437A68127813437B61BA68EA
:10104000064B13441A467B69136000BF1C37BD462C
:101050005DF8047B704700BF40800240448002403E
:1010600080B489B000AF7860396000237B610023D1
:101070003B610023BB610023FB6177E10122FB6937
:1010800002FA03F37B613B681A687B6913403B619A
:101090003A697B699A4240F066813B685B68022B43
:1010A00003D03B685B68122B23D1FB69DA087B68AD
:1010B000083253F82230BB61FB6903F007039B0041
:1010C0000F2202FA03F3DB43BA691340BB613B68AA
:1010D0001A69FB6903F007039B0002FA03F3BA697C
:1010E0001343BB61FB69DA087B680832B96943F8CE
:1010F00022107B681B68BB61FB695B00032202FA5C
:1011000003F3DB43BA691340BB613B685B6803F0E0
:101110000302FB695B0002FA03F3BA691343BB6184
:101120007B68BA691A603B685B68012B0BD03B682F
:101130005B68022B07D03B685B68112B03D03B68D0
:101140005B68122B30D17B689B68BB61FB695B00DD
:10115000032202FA03F3DB43BA691340BB613B6825
:10116000DA68FB695B0002FA03F3BA691343BB61F7
:101170007B68BA699A607B685B68BB610122FB6926
:1011800002FA03F3DB43BA691340BB613B685B6857
:101190001B0903F00102FB6902FA03F3BA69134366
:1011A000BB617B68BA695A607B68DB68BB61FB69BD
:1011B0005B00032202FA03F3DB43BA691340BB610D
:1011C0003B689A68FB695B0002FA03F3BA69134350
:1011D000BB617B68BA69DA603B685B6803F0805387
:1011E000002B00F0C0800023FB60654A644B5B6C01
:1011F00043F480435364624B5B6C03F48043FB60B5
:10120000FB68604AFB699B08023352F82330BB61DC
:10121000FB6903F003039B000F2202FA03F3DB4395
:10122000BA691340BB617B68574A934237D07B68E9
:10123000564A934231D07B68554A93422BD07B6803
:10124000544A934225D07B68534A93421FD07B680F
:10125000524A934219D07B68514A934213D07B681B
:10126000504A93420DD07B684F4A934207D07B6827
:101270004E4A934201D1092312E00A2310E00823C9
:101280000EE007230CE006230AE0052308E0042310
:1012900006E0032304E0022302E0012300E0002330
:1012A000FA6902F0030292009340BA691343BB61EA
:1012B0003449FB699B080233BA6941F823203C4B4F
:1012C0001B68BB613B69DB43BA691340BB613B6888
:1012D0005B6803F48033002B03D0BA693B69134386
:1012E000BB61334ABB691360314B5B68BB613B69CF
:1012F000DB43BA691340BB613B685B6803F40033AE
:10130000002B03D0BA693B691343BB61284ABB6910
:101310005360274B9B68BB613B69DB43BA69134051
:10132000BB613B685B6803F48013002B03D0BA6990
:101330003B691343BB611E4ABB6993601C4BDB686E
:10134000BB613B69DB43BA691340BB613B685B68C7
:1013500003F40013002B03D0BA693B691343BB614C
:10136000134ABB69D360FB690133FB61FB690F2B37
:101370007FF684AE00BF2437BD465DF8047B70471E
:1013800000380240003801400000024000040240E2
:1013900000080240000C024000100240001402400D
:1013A00000180240001C02400020024000240240BD
:1013B000003C014080B483B000AF78600B467B8076
:1013C00013467B707B78002B03D07A887B689A6108
:1013D00003E07B881A047B689A6100BF0C37BD4626
:1013E0005DF8047B7047F0B58FB00AAF78607B681A
:1013F000002B01D101230FE17B681B68BB607B6878
:1014000093F8BD33DBB2002B06D17B68002283F852
:10141000BC23786803F036FB7B68032283F8BD2386
:10142000BB68DB6B03F48073002B02D17B68002266
:101430001A617B681B68184601F04BFA7B681B68D1
:101440003B607E686D4606F110040FCC0FC50FCCD3
:101450000FC594E8030085E80300331D0ECB386800
:1014600001F0D6F90346002B05D07B68022283F8F1
:10147000BD230123D0E07B681B680021184601F0E2
:1014800039FA0023FB734AE0FA7B79681346DB00E4
:101490009B1A9B000B443D3301221A70FA7B79683A
:1014A0001346DB009B1A9B000B443C33FA7B1A70FB
:1014B000FA7BFB7B98B279681346DB009B1A9B0092
:1014C0000B44423302461A80FA7B79681346DB00EC
:1014D0009B1A9B000B443F3300221A70FA7B7968F9
:1014E0001346DB009B1A9B000B44443300221A6016
:1014F000FA7B79681346DB009B1A9B000B44483348
:1015000000221A60FA7B79681346DB009B1A9B0065
:101510000B44503300221A60FB7B0133FB73FA7BD0
:101520007B685B689A42AFD30023FB7344E0FA7B8D
:1015300079681346DB009B1A9B000B4403F2FD13F2
:1015400000221A70FA7B79681346DB009B1A9B0015
:101550000B4403F5FE73FA7B1A70FA7B7968134625
:10156000DB009B1A9B000B4403F2FF1300221A704E
:10157000FA7B79681346DB009B1A9B000B4403F54A
:10158000017300221A60FA7B79681346DB009B1A0C
:101590009B000B4403F5027300221A60FA7B796802
:1015A0001346DB009B1A9B000B4403F504730022D7
:1015B0001A60FB7B0133FB73FA7B7B685B689A42A2
:1015C000B5D37B681B683B607E686D4606F11004EE
:1015D0000FCC0FC50FCC0FC594E8030085E80300BE
:1015E000331D0ECB386801F0AFF90346002B05D050
:1015F0007B68022283F8BD2301230DE07B68002273
:1016000083F838207B68012283F8BD237B681B6840
:10161000184601F06DFB002318461437BD46F0BD97
:1016200080B586B000AF78607B68002B01D10123C4
:101630002DE27B681B6803F00103002B75D0A34BE0
:101640009B6803F00C03042B0CD0A04B9B6803F0A9
:101650000C03082B12D19D4B5B6803F48003B3F598
:10166000800F0BD1994B1B6803F40033002B5BD028
:101670007B685B68002B57D1012308E27B685B68BD
:10168000B3F5803F06D1914A904B1B6843F48033F9
:1016900013601DE07B685B68B3F5A02F0CD18B4A0B
:1016A0008A4B1B6843F480231360884A874B1B686E
:1016B00043F4803313600BE0844A844B1B6823F4AB
:1016C00080331360814A814B1B6823F480231360AD
:1016D0007B685B68002B13D0FEF748FF386108E099
:1016E000FEF744FF02463B69D31A642B01D903235A
:1016F000CDE1764B1B6803F40033002BF0D014E0EF
:10170000FEF734FF386108E0FEF730FF02463B6920
:10171000D31A642B01D90323B9E16C4B1B6803F482
:101720000033002BF0D100E000BF7B681B6803F0A2
:101730000203002B63D0654B9B6803F00C03002B66
:101740000BD0624B9B6803F00C03082B1CD15F4B42
:101750005B6803F48003002B16D15C4B1B6803F01D
:101760000203002B05D07B68DB68012B01D001232D
:101770008DE15649554B1B6823F0F8027B681B69C5
:10178000DB0013430B603AE07B68DB68002B20D062
:101790004F4B01221A60FEF7E9FE386108E0FEF7C0
:1017A000E5FE02463B69D31A022B01D903236EE101
:1017B000464B1B6803F00203002BF0D04349434B18
:1017C0001B6823F0F8027B681B69DB0013430B6086
:1017D00015E03F4B00221A60FEF7C8FE386108E0B2
:1017E000FEF7C4FE02463B69D31A022B01D903233C
:1017F0004DE1364B1B6803F00203002BF0D17B68F0
:101800001B6803F00803002B30D07B685B69002B5A
:1018100016D0304B01221A60FEF7A8FE386108E0AE
:10182000FEF7A4FE02463B69D31A022B01D903231B
:101830002DE1264B5B6F03F00203002BF0D015E087
:10184000244B00221A60FEF791FE386108E0FEF793
:101850008DFE02463B69D31A022B01D9032316E100
:101860001A4B5B6F03F00203002BF0D17B681B68FF
:1018700003F00403002B00F0A0800023FB75134B42
:101880001B6C03F08053002B0FD10023FB600F4A29
:101890000E4B1B6C43F0805313640C4B1B6C03F01A
:1018A0008053FB60FB680123FB750B4B1B6803F443
:1018B0008073002B21D1084A074B1B6843F48073C7
:1018C0001360FEF753FE386111E000BF003802409C
:1018D00000004742800E474200700040FEF746FE7F
:1018E00002463B69D31A022B01D90323CFE06A4B8E
:1018F0001B6803F48073002BF0D07B689B68012B7E
:1019000006D1664A654B1B6F43F0010313671CE069
:101910007B689B68052B0CD1604A604B1B6F43F0C2
:10192000040313675D4A5D4B1B6F43F001031367AC
:101930000BE05A4A594B1B6F23F001031367574AB8
:10194000564B1B6F23F0040313677B689B68002BC7
:1019500015D0FEF70BFE38610AE0FEF707FE0246DF
:101960003B69D31A41F28832934201D903238EE0B6
:101970004A4B1B6F03F00203002BEED014E0FEF77E
:10198000F5FD38610AE0FEF7F1FD02463B69D31A26
:1019900041F28832934201D9032378E03F4B1B6F19
:1019A00003F00203002BEED1FB7D012B05D13B4A56
:1019B0003A4B1B6C23F0805313647B689B69002BAC
:1019C00064D0364B9B6803F00C03082B5CD07B681B
:1019D0009B69022B41D1324B00221A60FEF7C6FDF3
:1019E000386108E0FEF7C2FD02463B69D31A022BBC
:1019F00001D903234BE0294B1B6803F00073002B34
:101A0000F0D126497B68DA697B681B6A1A437B68D8
:101A10005B6A9B011A437B689B6A5B08013B1B0462
:101A20001A437B68DB6A1B0613434B601C4B012285
:101A30001A60FEF79BFD386108E0FEF797FD02464D
:101A40003B69D31A022B01D9032320E0134B1B68F7
:101A500003F00073002BF0D018E0114B00221A6045
:101A6000FEF784FD386108E0FEF780FD02463B6921
:101A7000D31A022B01D9032309E0084B1B6803F09A
:101A80000073002BF0D101E0012300E00023184691
:101A90001837BD4680BD00BF0070004000380240CE
:101AA0006000474280B584B000AF786039607B68E1
:101AB000002B01D10123CAE0674B1B6803F00F0222
:101AC0003B689A420CD2644B3A68D2B21A70624BAD
:101AD0001B6803F00F023B689A4201D00123B6E075
:101AE0007B681B6803F00203002B20D07B681B6817
:101AF00003F00403002B05D0584A584B9B6843F46D
:101B0000E05393607B681B6803F00803002B05D04B
:101B1000524A524B9B6843F4604393604F494F4B8A
:101B20009B6823F0F0027B689B6813438B607B68A3
:101B30001B6803F00103002B44D07B685B68012B1A
:101B400007D1464B1B6803F40033002B19D1012346
:101B50007DE07B685B68022B03D07B685B68032BAE
:101B600007D13E4B1B6803F00073002B09D1012302
:101B70006DE03A4B1B6803F00203002B01D10123F7
:101B800065E03649354B9B6823F003027B685B6850
:101B900013438B60FEF7EAFCF8600AE0FEF7E6FC10
:101BA0000246FB68D31A41F28832934201D90323DB
:101BB0004DE02A4B9B6803F00C027B685B689B003E
:101BC0009A42EBD1244B1B6803F00F023B689A4208
:101BD0000CD9214B3A68D2B21A701F4B1B6803F024
:101BE0000F023B689A4201D0012330E07B681B68FA
:101BF00003F00403002B08D01849184B9B6823F40A
:101C0000E0527B68DB6813438B607B681B6803F0E2
:101C10000803002B09D01149104B9B6823F4604244
:101C20007B681B69DB0013438B6000F01DF80146E5
:101C30000A4B9B681B0903F00F03094AD35C21FA86
:101C400003F3084A1360002002F0C8FD0023184681
:101C50001037BD4680BD00BF003C02400038024046
:101C60005C4C0008080000202DE9F04F8FB000AF59
:101C70000023FB6200237B630023BB6200233B63E2
:101C8000624B9B6803F00C03042B07D0082B08D091
:101C9000002B40F0B2805E4B3B63B1E05D4B3B6399
:101CA000AEE05A4B5B6803F03F03FB62574B5B6847
:101CB00003F48003002B4ED0544B5B689B094FF01C
:101CC000000440F2FF114FF0000201EA030102EAB2
:101CD00004020B46144660017862786A40EAD360D9
:101CE00078625B013B62D7E908345B1A64EB02045B
:101CF0004FEA841949EA93694FEA8318B8EB03085D
:101D000069EB04094FEAC903FB61FB6943EA5873B5
:101D1000FB614FEAC803BB61D7E9068918EB0108EC
:101D200049EB02094FEA49237B617B6943EAD853B7
:101D30007B614FEA48233B61D7E904894046494625
:101D4000FB6A4FF000041A462346FEF751FA034699
:101D50000C467B6343E02D4B5B689B094FF000040E
:101D600040F2FF114FF0000201EA030102EA04020F
:101D70000B4614466001F860F86840EAD360F860EA
:101D80005B01BB60D7E902345B1A64EB0204A60175
:101D900046EA93669D01ED1A66EB0406F3007B604C
:101DA0007B6843EA55737B60EB003B6097E860001B
:101DB0006D1846EB02064FEA862B4BEA955B4FEA1D
:101DC000852A55465E4628463146FB6A4FF0000498
:101DD0001A462346FEF70CFA03460C467B630B4B70
:101DE0005B681B0C03F0030301335B00BB627A6B7F
:101DF000BB6AB2FBF3F33B6302E0054B3B6300BFFE
:101E00003B6B18463C37BD46BDE8F08F00380240BA
:101E10000024F40000127A0080B400AF034B1B686A
:101E20001846BD465DF8047B704700BF08000020DF
:101E300080B500AFFFF7F0FF0146054B9B689B0A9A
:101E400003F00703034AD35C21FA03F3184680BD6D
:101E5000003802406C4C000880B500AFFFF7DCFF93
:101E60000146054B9B685B0B03F00703034AD35CF9
:101E700021FA03F3184680BD003802406C4C00087C
:101E800080B483B000AF786039607B680F221A603D
:101E9000124B9B6803F003027B685A600F4B9B68F0
:101EA00003F0F0027B689A600C4B9B6803F4E052ED
:101EB0007B68DA60094B9B68DB0803F4E0527B68BF
:101EC0001A61074B1B6803F00F023B681A6000BFE2
:101ED0000C37BD465DF8047B704700BF00380240F8
:101EE000003C024080B582B000AF78607B68002B78
:101EF00001D101231DE07B6893F83D30DBB2002B5C
:101F000006D17B68002283F83C20786800F015F841
:101F10007B68022283F83D207B681A687B68043363
:101F20001946104600F068F97B68012283F83D20CD
:101F3000002318460837BD4680BD80B483B000AF8B
:101F4000786000BF0C37BD465DF8047B704780B4F5
:101F500085B000AF78607B681B687A681268D268C9
:101F600042F00102DA607B681B689B6803F007039C
:101F7000FB60FB68062B07D07B681B687A681268D9
:101F8000126842F001021A60002318461437BD4659
:101F90005DF8047B704780B582B000AF78607B68E5
:101FA0001B681B6903F00203022B22D17B681B68AC
:101FB000DB6803F00203022B1BD17B681B686FF008
:101FC00002021A617B6801221A777B681B689B6991
:101FD00003F00303002B03D0786800F0EEF805E06F
:101FE000786800F0E0F8786800F0F1F87B6800228B
:101FF0001A777B681B681B6903F00403042B22D14A
:102000007B681B68DB6803F00403042B1BD17B682F
:102010001B686FF004021A617B6802221A777B68E2
:102020001B689B6903F44073002B03D0786800F0B1
:10203000C4F805E0786800F0B6F8786800F0C7F8F2
:102040007B6800221A777B681B681B6903F0080312
:10205000082B22D17B681B68DB6803F00803082B80
:102060001BD17B681B686FF008021A617B68042231
:102070001A777B681B68DB6903F00303002B03D02E
:10208000786800F09AF805E0786800F08CF87868D5
:1020900000F09DF87B6800221A777B681B681B693B
:1020A00003F01003102B22D17B681B68DB6803F060
:1020B0001003102B1BD17B681B686FF010021A6194
:1020C0007B6808221A777B681B68DB6903F440731E
:1020D000002B03D0786800F070F805E0786800F015
:1020E00062F8786800F073F87B6800221A777B68E2
:1020F0001B681B6903F00103012B0ED17B681B6871
:10210000DB6803F00103012B07D17B681B686FF0CC
:1021100001021A61786802F01BFB7B681B681B696F
:1021200003F08003802B0ED17B681B68DB6803F013
:102130008003802B07D17B681B686FF080021A61D7
:10214000786800F003F97B681B681B6903F04003A3
:10215000402B0ED17B681B68DB6803F04003402BEB
:1021600007D17B681B686FF040021A61786800F045
:1021700038F87B681B681B6903F02003202B0ED105
:102180007B681B68DB6803F02003202B07D17B688A
:102190001B686FF020021A61786800F0CDF800BF6C
:1021A0000837BD4680BD80B483B000AF786000BF03
:1021B0000C37BD465DF8047B704780B483B000AF38
:1021C000786000BF0C37BD465DF8047B704780B473
:1021D00083B000AF786000BF0C37BD465DF8047B6C
:1021E000704780B483B000AF786000BF0C37BD4645
:1021F0005DF8047B7047000080B485B000AF786064
:1022000039607B681B68FB607B68404A934213D04F
:102210007B68B3F1804F0FD07B683D4A93420BD06F
:102220007B683C4A934207D07B683B4A934203D089
:102230007B683A4A934208D1FB6823F07003FB6045
:102240003B685B68FA681343FB607B682F4A9342E4
:102250002BD07B68B3F1804F27D07B682C4A934208
:1022600023D07B682B4A93421FD07B682A4A934233
:102270001BD07B68294A934217D07B68284A934237
:1022800013D07B68274A93420FD07B68264A93423B
:102290000BD07B68254A934207D07B68244A93423F
:1022A00003D07B68234A934208D1FB6823F4407330
:1022B000FB603B68DB68FA681343FB60FB6823F054
:1022C00080023B685B691343FB607B68FA681A60B5
:1022D0003B689A687B68DA623B681A687B689A6236
:1022E0007B680A4A934203D07B680C4A934203D12D
:1022F0003B681A697B681A637B6801225A6100BFD8
:102300001437BD465DF8047B704700BF00000140F4
:102310000004004000080040000C004000040140A0
:1023200000400140004401400048014000180040C6
:10233000001C00400020004080B483B000AF7860F3
:1023400000BF0C37BD465DF8047B704780B483B096
:1023500000AF786000BF0C37BD465DF8047B704766
:1023600080B582B000AF78607B68002B01D101237B
:102370003FE07B6893F83930DBB2002B06D17B68F5
:10238000002283F83820786802F006FB7B6824225C
:1023900083F839207B681B687A681268D26822F457
:1023A0000052DA60786800F029F87B681B687A6868
:1023B0001268126922F490421A617B681B687A687D
:1023C0001268526922F02A025A617B681B687A6897
:1023D0001268D26842F40052DA607B680022DA6345
:1023E0007B68202283F839207B68202283F83A20FA
:1023F000002318460837BD4680BD0000F0B585B003
:1024000000AF78607B681B687A681268126922F4F2
:1024100040517A68D2680A431A617B689A687B687F
:102420001B691A437B685B691A437B68DB6913434A
:10243000FB607B681A687B681B68DB6823F41643C3
:1024400023F00C03F9680B43D3607B681B687A6840
:102450001268526922F440717A6892690A435A619B
:102460007B68DB69B3F5004F40F0E4807B681B6854
:10247000AB4A934204D07B681B68AA4A93426CD152
:102480007B681C68FFF7E8FC024613469B00134478
:102490009A001A447B685B685B00B2FBF3F3A24AC4
:1024A000A2FB03235B091D01FFF7D6FC024613467E
:1024B0009B0013449A001A447B685B685B00B2FB84
:1024C000F3F6FFF7C9FC024613469B0013449A003B
:1024D0001A447B685B685B00B2FBF3F3924AA2FB91
:1024E00003235B09642202FB03F3F31ADB0032339C
:1024F0008D4AA2FB03235B095B0003F4F8731D44C0
:10250000FFF7AAFC024613469B0013449A001A44A4
:102510007B685B685B00B2FBF3F6FFF79DFC02464D
:1025200013469B0013449A001A447B685B685B0067
:10253000B2FBF3F37C4AA2FB03235B09642202FB98
:1025400003F3F31ADB003233774AA2FB03235B0960
:1025500003F007032B44A36054E17B681C68FFF77A
:1025600067FC024613469B0013449A001A447B689A
:102570005B685B00B2FBF3F36B4AA2FB03235B09CE
:102580001D01FFF755FC024613469B0013449A00B9
:102590001A447B685B685B00B2FBF3F6FFF748FC0C
:1025A000024613469B0013449A001A447B685B68FA
:1025B0005B00B2FBF3F35C4AA2FB03235B096422DA
:1025C00002FB03F3F31ADB003233574AA2FB032367
:1025D0005B095B0003F4F8731D44FFF729FC024616
:1025E00013469B0013449A001A447B685B685B00A7
:1025F000B2FBF3F6FFF71CFC024613469B001344A4
:102600009A001A447B685B685B00B2FBF3F3464AAE
:10261000A2FB03235B09642202FB03F3F31ADB0032
:102620003233414AA2FB03235B0903F007032B4427
:10263000A360E7E07B681B68394A934204D07B685B
:102640001B68384A934271D17B681C68FFF704FC11
:10265000024613469B0013449A001A447B685B6849
:102660009B00B2FBF3F3304AA2FB03235B091D017D
:10267000FFF7F2FB024613469B0013449A001A44EC
:102680007B685B689B00B2FBF3F6FFF7E5FB024655
:1026900013469B0013449A001A447B685B689B00B6
:1026A000B2FBF3F3204AA2FB03235B09642202FB83
:1026B00003F3F31A1B0132331B4AA2FB03235B090A
:1026C00003F0F0031D44FFF7C7FB024613469B00CF
:1026D00013449A001A447B685B689B00B2FBF3F6D4
:1026E000FFF7BAFB024613469B0013449A001A44B4
:1026F0007B685B689B00B2FBF3F30B4AA2FB0323EE
:102700005B09642202FB03F3F31A1B013233064A0E
:10271000A2FB03235B0903F00F032B44A36071E0CA
:1027200000100140001401401F85EB517B681C68BC
:10273000FFF77EFB024613469B0013449A001A449F
:102740007B685B689B00B2FBF3F3304AA2FB032378
:102750005B091D01FFF76CFB024613469B00134407
:102760009A001A447B685B689B00B2FBF3F6FFF7A4
:102770005FFB024613469B0013449A001A447B6891
:102780005B689B00B2FBF3F3204AA2FB03235B09C7
:10279000642202FB03F3F31A1B0132331B4AA2FB30
:1027A00003235B0903F0F0031D44FFF741FB0246DE
:1027B00013469B0013449A001A447B685B689B0095
:1027C000B2FBF3F6FFF734FB024613469B001344BB
:1027D0009A001A447B685B689B00B2FBF3F30B4AD8
:1027E000A2FB03235B09642202FB03F3F31A1B0120
:1027F0003233064AA2FB03235B0903F00F032B4489
:10280000A360FFE700BF1437BD46F0BD1F85EB5145
:1028100084B080B584B000AF786007F11C0080E818
:102820000E003B6B012B22D17B689B6B23F4803223
:102830007B689A637B68DB6823F4840323F040039E
:102840007A68D3607B68DB6823F440127B68DA60C7
:10285000FB6C012B05D17B68DB6843F480127B683D
:10286000DA60786800F05EFA0346FB731AE07B6872
:10287000DB6843F040027B68DA60786800F052FA67
:102880000346FB733B6C002B06D17B689B6B43F4C8
:1028900080327B689A6305E07B689B6B23F480320F
:1028A0007B689A63BB6A012B0BD17B689B6843F002
:1028B00006027B689A607B689B6843F020027B6815
:1028C0009A60FB7B18461037BD46BDE8804004B0D7
:1028D000704780B483B000AF78607B689B6823F05A
:1028E00001027B689A60002318460C37BD465DF8EC
:1028F000047B704780B582B000AF78600B46FB70F8
:102900007B68DB6823F0C0427B68DA60FB78012BD0
:1029100006D17B68DB6843F000527B68DA600BE02D
:10292000FB78002B06D17B68DB6843F080427B6834
:10293000DA6001E0012303E03220FDF723FE0023EB
:1029400018460837BD4680BD84B080B586B000AF5C
:10295000786007F1240080E80E000023FB757B6897
:10296000FB6000233B6109E07A683B6940339B00D0
:10297000134400225A603B6901333B613B690E2BD3
:10298000F2D9FB6C002B12D17B689B6B43F40012D5
:102990007B689A637B689B6B23F400227B689A6355
:1029A0007B689B6B23F480227B689A630BE07B68D7
:1029B0001B6823F400127B681A607B689B6B43F4EE
:1029C00000227B689A63FB6803F560631A46002364
:1029D0001360FB6803F500631A46FB6803F50063A8
:1029E0001B681360BB6B012B0CD1FB6A002B04D15D
:1029F0000021786800F062F908E00121786800F0B1
:102A00005DF903E00321786800F058F91021786837
:102A100000F00CF90346002B01D00123FB75786808
:102A200000F02AF90346002B01D00123FB75FB6857
:102A300003F500631A4600231361FB6803F5006386
:102A40001A4600235361FB6803F500631A4600230E
:102A5000D36100233B6143E03B695A01FB681344A7
:102A600003F510631B6803F00043B3F1004F18D166
:102A70003B69002B0AD13B695A01FB68134403F5FB
:102A800010631A464FF00063136013E03B695A016C
:102A9000FB68134403F510631A464FF0904313602C
:102AA00008E03B695A01FB68134403F510631A46BA
:102AB000002313603B695A01FB68134403F510635C
:102AC0001A46002313613B695A01FB68134403F55E
:102AD00010631A464FF67F3393603B6901333B61C5
:102AE0007A6A3B699A42B7D800233B6143E03B696D
:102AF0005A01FB68134403F530631B6803F000437D
:102B0000B3F1004F18D13B69002B0AD13B695A0140
:102B1000FB68134403F530631A464FF000631360FB
:102B200013E03B695A01FB68134403F530631A460E
:102B30004FF09043136008E03B695A01FB6813446F
:102B400003F530631A46002313603B695A01FB68A2
:102B5000134403F530631A46002313613B695A019D
:102B6000FB68134403F530631A464FF67F339360D6
:102B70003B6901333B617A6A3B699A42B7D8FB688B
:102B800003F500631A46FB6803F500631B6923F431
:102B9000807313613B6B012B12D1FB6803F500635B
:102BA0001A46204B1363FB6803F500631A46FB6863
:102BB00003F500631B6B43F4803343F0030313639B
:102BC0007B6800229A617B686FF080425A613B6BA0
:102BD000002B05D17B689B6943F010027B689A61EA
:102BE0007B689A69104B13437A689361FB6B002BE7
:102BF00005D07B689B6943F008027B689A61FB6C97
:102C0000012B07D17B689B6943F0804343F00403A9
:102C10007A689361FB7D18461837BD46BDE8804051
:102C200004B070470001800000383C8080B485B05B
:102C300000AF786039600023FB603B689B0143F084
:102C400020027B681A61FB680133FB60FB68094A5C
:102C5000934201D9032306E07B681B6903F020033C
:102C6000202BF0D0002318461437BD465DF8047BB6
:102C7000704700BF400D030080B485B000AF78609E
:102C80000023FB607B6810221A61FB680133FB6044
:102C9000FB68094A934201D9032306E07B681B695C
:102CA00003F01003102BF0D0002318461437BD4654
:102CB0005DF8047B704700BF400D030080B485B011
:102CC00000AF78600B46FB707B68FB60FB6803F528
:102CD00000631946FB6803F500631A68FB78134329
:102CE0000B60002318461437BD465DF8047B70471F
:102CF00080B584B000AF78607B68FB60FB6803F54B
:102D000000631A46FB6803F500635B6843F0020347
:102D100053600320FDF736FC002318461037BD46EC
:102D200080BD000080B485B000AF78600023FB60F8
:102D3000FB680133FB60FB68134A934201D903230C
:102D40001BE07B681B69002BF2DA0023FB607B68C9
:102D50001B6943F001027B681A61FB680133FB6069
:102D6000FB68094A934201D9032306E07B681B698B
:102D700003F00103012BF0D0002318461437BD46A1
:102D80005DF8047B704700BF400D030080B485B040
:102D900000AF0346FB800023FB60B7F90630842BAD
:102DA00005D0B7F90620FB6813440333FB60FB68CA
:102DB00018461437BD465DF8047B704780B500AFF8
:102DC00000F0A8FE0023184680BDF0B589B004AF1E
:102DD000786039607B685B69002B20D07B689B69D9
:102DE000002B1CD07B685C687B681D687B681E6953
:102DF0007B68B3F908301846FFF7C8FF01467B68C7
:102E00005B697A6892690292019300913B6832464D
:102E10002946204600F0C4FC0346FB601CE07B68AA
:102E20005C687B681D687B681B699EB27B68B3F930
:102E300008301846FFF7AAFF024607F10C0301937A
:102E400000923B6832462946204600F002FD0346C8
:102E5000012B01D0002300E0FB6818461437BD4663
:102E6000F0BD80B584B000AF78607B68FB60FB6824
:102E7000002B01D0FB6800E00123184600F016FE8D
:102E8000002318461037BD4680BD80B483B000AF24
:102E900078607B6803F108027B685A607B684FF0BA
:102EA000FF329A607B6803F108027B68DA607B6816
:102EB00003F108027B681A617B6800221A6000BF78
:102EC0000C37BD465DF8047B704780B483B000AF1B
:102ED00078607B6800221A6100BF0C37BD465DF840
:102EE000047B704780B485B000AF786039607B6840
:102EF0005B68FB603B68FA685A60FB689A683B68ED
:102F00009A60FB689B683A685A60FB683A689A6006
:102F10003B687A681A617B681B685A1C7B681A6078
:102F200000BF1437BD465DF8047B704780B485B0A0
:102F300000AF786039603B681B68BB60BB68B3F169
:102F4000FF3F03D17B681B69FB600CE07B680833A3
:102F5000FB6002E0FB685B68FB60FB685B681A680B
:102F6000BB689A42F6D9FB685A683B685A603B686E
:102F70005B683A689A603B68FA689A60FB683A68EE
:102F80005A603B687A681A617B681B685A1C7B68C8
:102F90001A6000BF1437BD465DF8047B704780B4EB
:102FA00085B000AF78607B681B69FB607B685B68FD
:102FB0007A6892689A607B689B687A6852685A60FF
:102FC000FB685A687B689A4203D17B689A68FB6801
:102FD0005A607B6800221A61FB681B685A1EFB68F6
:102FE0001A60FB681B6818461437BD465DF8047B01
:102FF0007047000080B485B000AFF860B9607A60B7
:10300000FB68043BFB60FB684FF080721A60FB6852
:10301000043BFB60BB6823F00102FB681A60FB689D
:10302000043BFB600C4AFB681A60FB68143BFB60C6
:103030007A68FB681A60FB68043BFB60FB686FF012
:1030400002021A60FB68203BFB60FB6818461437DD
:10305000BD465DF8047B70475D30000880B485B0E4
:1030600000AF00237B60114B1B68B3F1FF3F09D019
:103070004FF0500383F31188BFF36F8FBFF34F8F6F
:10308000FB60FEE74FF0500383F31188BFF36F8FAF
:10309000BFF34F8FBB6000BF7B68002BFCD000BF2D
:1030A0001437BD465DF8047B704700BF0400002064
:1030B000074B19680868B0E8F04F80F30988BFF340
:1030C0006F8F4FF0000080F311887047AFF30080DE
:1030D000483C002000BF00BF08480068006880F33B
:1030E00008884FF0000080F3148862B661B6BFF321
:1030F0004F8FBFF36F8F00DF00BF00BF08ED00E010
:1031000080B586B000AF444B1B68444A934209D156
:103110004FF0500383F31188BFF36F8FBFF34F8FCE
:103120003B61FEE73C4B1B683D4A934209D14FF09F
:10313000500383F31188BFF36F8FBFF34F8FFB6092
:10314000FEE7384B7B617B691B78DBB27B607B6978
:10315000FF221A707B691B78DBB2FB70FB78DBB255
:1031600003F05003DAB2304B1A70304B07221A606A
:1031700009E02E4B1B68013B2C4A1360FB78DBB245
:103180005B00DBB2FB70FB78DBB203F08003802BCB
:10319000EFD0264B1B68C3F10703042B09D04FF077
:1031A000500383F31188BFF36F8FBFF34F8FBB6062
:1031B000FEE71E4B1B681B021C4A13601B4B1B685F
:1031C00003F4E063194A13607B68DAB27B691A7012
:1031D000174A174B1B6843F470031360144A144BCF
:1031E0001B6843F07043136000F0D6F8114B0022C7
:1031F0001A6000F0F5F8104A0F4B1B6843F040438B
:103200001360FFF769FF00F049FEFFF727FF002377
:1032100018461837BD4680BD00ED00E071C20F4171
:1032200070C20F4100E400E0280000202C000020C4
:1032300020ED00E00400002034EF00E080B483B013
:1032400000AF4FF0500383F31188BFF36F8FBFF3CC
:103250004F8F7B600E4B1B6801330D4A13600C4B84
:103260001B68012B0ED10B4B1B68DBB2002B09D066
:103270004FF0500383F31188BFF36F8FBFF34F8F6D
:103280003B60FEE700BF0C37BD465DF8047B70472E
:103290000400002004ED00E080B483B000AF114BC7
:1032A0001B68002B09D14FF0500383F31188BFF343
:1032B0006F8FBFF34F8F7B60FEE70A4B1B68013BAC
:1032C000084A1360074B1B68002B04D100233B60A6
:1032D0003B6883F3118800BF0C37BD465DF8047B63
:1032E000704700BF04000020000000000000000044
:1032F000EFF30980BFF36F8F154B1A681EF0100FA4
:1033000008BF20ED108A20E9F04F10602DE9090078
:103310004FF0500080F31188BFF34F8FBFF36F8FD2
:1033200000F0BCFD4FF0000080F3118809BC196863
:103330000868B0E8F04F1EF0100F08BFB0EC108A1C
:1033400080F30988BFF36F8F704700BFAFF3008031
:10335000483C002000BF00BF80B582B000AF4FF0F6
:10336000500383F31188BFF36F8FBFF34F8F7B60E0
:1033700000F0D8FC0346002B03D0064B4FF08052E0
:103380001A6000233B603B6883F3118800BF083755
:10339000BD4680BD04ED00E080B400AF0B4B0022C1
:1033A0001A600B4B00221A600A4A0B4B1B680B4930
:1033B000A1FB03139B09013B1360044B07221A6016
:1033C00000BFBD465DF8047B704700BF10E000E021
:1033D00018E000E014E000E008000020D34D621087
:1033E000DFF80C00016841F470010160704700BF14
:1033F00088ED00E080B58AB000AF78600023FB6103
:1034000000F0E6FB574B1B68002B01D100F00CF9D4
:10341000554B1A687B681340002B40F08C807B680A
:10342000002B1CD008227B6813447B607B6803F070
:103430000703002B13D07B6823F0070308337B605E
:103440007B6803F00703002B09D04FF0500383F390
:103450001188BFF36F8FBFF34F8F7B61FEE77B68EF
:10346000002B68D0414B1B687A689A4263D8404B66
:103470003B623F4B1B687B6204E07B6A3B627B6A7A
:103480001B687B627B6A5A687B689A4203D27B6ABC
:103490001B68002BF1D1334B1B687A6A9A424AD0E1
:1034A0003B6A1B6808221344FB617B6A1A683B6A0B
:1034B0001A607B6A5A687B68D21A08235B009A42BA
:1034C0001ED97A6A7B681344BB61BB6903F00703AA
:1034D000002B09D04FF0500383F31188BFF36F8F97
:1034E000BFF34F8F3B61FEE77B6A5A687B68D21A55
:1034F000BB695A607B6A7A685A60B86900F0F6F86E
:103500001A4B1A687B6A5B68D31A184A1360174B08
:103510001A68184B1B689A4203D2144B1B68154A51
:1035200013607B6A5A68104B1B681A437B6A5A60A7
:103530007B6A00221A6000F059FBFB6903F0070365
:10354000002B09D04FF0500383F31188BFF36F8F26
:10355000BFF34F8FFB60FEE7FB6918462837BD4677
:1035600080BD00BF383C0020443C00203C3C002093
:10357000303C0020403C002080B586B000AF786031
:103580007B687B617B68002B46D008235B427A69AD
:1035900013447B617B693B613B695A68204B1B6824
:1035A0001340002B09D14FF0500383F31188BFF370
:1035B0006F8FBFF34F8FFB60FEE73B691B68002BEB
:1035C00009D04FF0500383F31188BFF36F8FBFF31F
:1035D0004F8FBB60FEE73B695A68114B1B68134075
:1035E000002B19D03B691B68002B15D13B695A6829
:1035F0000B4B1B68DB431A403B695A6000F0E8FA4A
:103600003B695A68074B1B681344064A13603869C4
:1036100000F06CF800F0EAFA00BF1837BD4680BD34
:10362000443C00203C3C002080B485B000AF4FF407
:103630007053BB60274BFB60FB6803F00703002B54
:103640000CD0FB680733FB60FB6823F00703FB60CB
:10365000BA68FB68D31A1F4A1344BB60FB687B60DF
:103660001D4A7B6813601C4B00225A607A68BB6855
:103670001344FB600822FB689B1AFB60FB6823F085
:103680000703FB60FB68154A1360144B1B6800229C
:103690005A60124B1B6800221A607B683B603B68D3
:1036A000FA68D21A3B685A600C4B1A683B681A6079
:1036B0003B685B680A4A13603B685B68094A1360B1
:1036C000094B4FF000421A6000BF1437BD465DF849
:1036D000047B704730000020303C0020383C002044
:1036E000403C00203C3C0020443C002080B485B09D
:1036F00000AF7860284BFB6002E0FB681B68FB6052
:10370000FB681A687B689A42F7D3FB68BB60FB686A
:103710005B68BA681A447B689A4208D1FB685A68A9
:103720007B685B681A44FB685A60FB687B607B6857
:10373000BB607B685B68BA681A44FB681B689A4286
:1037400018D1FB681A68154B1B689A420DD07B682C
:103750005A68FB681B685B681A447B685A60FB68A0
:103760001B681A687B681A6008E00C4B1A687B6853
:103770001A6003E0FB681A687B681A60FA687B6865
:103780009A4202D0FB687A681A6000BF1437BD46BF
:103790005DF8047B704700BF303C0020383C0020BF
:1037A00080B58EB004AFF860B9607A603B607B6B27
:1037B000002B09D14FF0500383F31188BFF36F8FB3
:1037C000BFF34F8F3B62FEE7BB6B002B09D14FF07D
:1037D000500383F31188BFF36F8FBFF34F8FFB61EB
:1037E000FEE754233B613B69542B09D04FF0500353
:1037F00083F31188BFF36F8FBFF34F8FBB61FEE779
:10380000BB6B002B1ED07B6B002B1BD0BB6B7B627A
:103810007B6A7A6B1A637B6A022283F85120002349
:1038200003937B6A029307F1140301933B6B0093AC
:103830003B687A68B968F86800F050F8786A00F078
:10384000CBF801E000237B617B6918462837BD4631
:1038500080BD80B58CB004AFF860B9603B601346A2
:10386000FB80FB889B001846FFF7C4FD78617B69ED
:10387000002B0ED05420FFF7BDFDF861FB69002B33
:1038800003D0FB697A691A6305E07869FFF774FE73
:1038900001E00023FB61FB69002B17D0FB690022CC
:1038A00083F85120FA8800230393FB690293FB6A93
:1038B0000193BB6A00933B68B968F86800F00EF8A2
:1038C000F86900F089F80123BB6102E04FF0FF3393
:1038D000BB61BB6918462037BD4680BD80B588B046
:1038E00000AFF860B9607A603B603B6B1A6B7B6835
:1038F00003F18043013B9B001344BB61BB6923F090
:103900000703BB61BB6903F00703002B09D04FF02D
:10391000500383F31188BFF36F8FBFF34F8F7B6129
:10392000FEE70023FB6112E0BA68FB6913441978D3
:103930003A6BFB69134434330A461A70BA68FB6960
:1039400013441B78002B06D0FB690133FB61FB6934
:103950000F2BE9D900E000BF3B6B002283F8432026
:10396000BB6A062B01D90623BB623B6BBA6ADA62DB
:103970003B6BBA6A5A643B6B00229A643B6B04331C
:103980001846FFF7A2FA3B6B18331846FFF79DFA6B
:103990003B6B3A6B1A61BB6AC3F107023B6B9A61DE
:1039A0003B6B3A6B5A623B6B0022DA643B6B002242
:1039B00083F850203A68F968B869FFF71BFB0246A4
:1039C0003B6B1A60FB6A002B02D0FB6A3A6B1A60F1
:1039D00000BF2037BD4680BD80B582B000AF7860A3
:1039E000FFF72CFC2A4B1B680133294A1360294B33
:1039F0001B68002B09D1274A7B681360244B1B6886
:103A0000012B10D100F0BCFA0DE0234B1B68002BFA
:103A100009D1204B1B68DA6A7B68DB6A9A4202D8BC
:103A20001C4A7B6813601D4B1B6801331B4A1360E3
:103A30007B68DB6A01229A40194B1B681343184AC2
:103A400013607B68DA6A13469B0013449B00154A97
:103A50001A447B68043319461046FFF743FAFFF710
:103A60001BFC0D4B1B68002B0ED00A4B1B68DA6A3F
:103A70007B68DB6A9A4207D20B4B4FF080521A6088
:103A8000BFF34F8FBFF36F8F00BF0837BD4680BDB8
:103A9000483D0020483C0020543D0020643D00206B
:103AA000503D00204C3C002004ED00E080B584B087
:103AB00000AF78600023FB607B68002B16D0134BAF
:103AC0001B68002B09D04FF0500383F31188BFF31C
:103AD0006F8FBFF34F8FBB60FEE700F079F80021D6
:103AE000786800F00DFB00F081F8F860FB68002BAF
:103AF00007D1074B4FF080521A60BFF34F8FBFF3CF
:103B00006F8F00BF1037BD4680BD00BF703D0020E5
:103B100004ED00E080B58AB004AF0023BB60002351
:103B20007B603A46391D07F10803184600F04AFC4D
:103B300039687B68BA6802920193002300930023DE
:103B40000A461D491D48FFF72BFE02461C4B1A6012
:103B50001B4B1B68002B02D001237B6101E000237B
:103B60007B617B69012B15D14FF0500383F31188E2
:103B7000BFF36F8FBFF34F8F3B61124B4FF0FF329C
:103B80001A60114B01221A60104B00221A60FFF7D5
:103B9000B7FA0DE07B69B3F1FF3F09D14FF0500355
:103BA00083F31188BFF36F8FBFF34F8FFB60FEE786
:103BB00000BF1837BD4680BDFC4B0008513F0008D0
:103BC0006C3D0020683D0020543D00204C3D00200D
:103BD00080B400AF044B1B680133034A136000BF7D
:103BE000BD465DF8047B7047703D002080B584B011
:103BF00000AF0023FB600023BB60414B1B68002B20
:103C000009D14FF0500383F31188BFF36F8FBFF3D7
:103C10004F8F3B60FEE7FFF711FB394B1B68013B01
:103C2000374A1360364B1B68002B61D1354B1B683C
:103C3000002B5DD02EE0344BDB68DB68FB60FB685B
:103C400018331846FFF7ABF9FB6804331846FFF743
:103C5000A6F9FB68DB6A01229A402C4B1B681343D0
:103C60002A4A1360FB68DA6A13469B0013449B00E0
:103C7000274A1A44FB68043319461046FFF732F905
:103C8000FB68DA6A234B1B68DB6A9A4202D3224B39
:103C900001221A601C4B1B68002BCCD1FB68002B47
:103CA00001D000F007FA1D4B1B687B607B68002B7E
:103CB00010D000F037F80346002B02D0164B01223B
:103CC0001A607B68013B7B607B68002BF1D1134B52
:103CD00000221A60104B1B68002B09D00123BB6027
:103CE0000F4B4FF080521A60BFF34F8FBFF36F8FAF
:103CF000FFF7D2FABB6818461037BD4680BD00BF3B
:103D0000703D0020483D0020083D0020503D00202F
:103D10004C3C0020483C00205C3D0020583D0020E9
:103D200004ED00E080B586B000AF00237B61504B0E
:103D30001B68002B40F08C804E4B1B6801333B61AD
:103D40004C4A3B6913603B69002B1FD14A4B1B68EF
:103D50001B68002B09D04FF0500383F31188BFF389
:103D60006F8FBFF34F8F3B60FEE7434B1B68FB60D9
:103D7000424B1B68404A1360404AFB681360404B4B
:103D80001B6801333E4A136000F094F93D4B1B68F9
:103D90003A699A424DD3384B1B681B68002B01D1FE
:103DA000012300E00023002B04D0364B4FF0FF32FC
:103DB0001A603EE0304B1B68DB68DB68BB60BB68A9
:103DC0005B687B603A697B689A4203D22D4A7B68C4
:103DD00013602EE0BB6804331846FFF7E0F8BB68B9
:103DE0009B6A002B04D0BB6818331846FFF7D7F83E
:103DF000BB68DB6A01229A40234B1B681343224AAB
:103E00001360BB68DA6A13469B0013449B001F4A89
:103E10001A44BB68043319461046FFF763F8BB68C1
:103E2000DA6A1B4B1B68DB6A9A42B4D301237B61BD
:103E3000B1E7174B1B68DA6A144913469B00134419
:103E40009B000B441B68012B07D901237B6104E015
:103E5000104B1B6801330F4A13600F4B1B68002B7C
:103E600001D001237B617B6918461837BD4680BDB0
:103E7000703D00204C3D0020003D0020043D00200E
:103E8000603D0020683D0020503D00204C3C00205B
:103E9000483C0020583D00205C3D002080B487B0A5
:103EA00000AF264B1B68002B03D0254B01221A6064
:103EB0003EE0234B00221A60224B1B68FB60FB682C
:103EC000B3FA83F3FB72FB7AC3F11F037B611E49D4
:103ED0007A6913469B0013449B000B441B68002B1C
:103EE00009D14FF0500383F31188BFF36F8FBFF3F5
:103EF0004F8F7B60FEE77A6913469B0013449B005B
:103F0000114A13443B613B695B685A683B695A60DC
:103F10003B695A683B6908339A4204D13B695B6844
:103F20005A683B695A603B695B68DB68074A136003
:103F300000BF1C37BD465DF8047B7047703D002014
:103F40005C3D0020503D00204C3C0020483C0020BF
:103F500080B582B000AF786000F052F8064B1B6865
:103F6000012BF9D9054B4FF080521A60BFF34F8FE8
:103F7000BFF36F8FF0E700BF4C3C002004ED00E082
:103F800080B582B000AF00237B600CE07A681346F6
:103F90009B0013449B00124A13441846FEF775FF1A
:103FA0007B6801337B607B68062BEFD90D48FEF7F9
:103FB0006CFF0D48FEF769FF0C48FEF766FF0C48E2
:103FC000FEF763FF0B48FEF760FF0B4B054A1A60D4
:103FD0000A4B054A1A6000BF0837BD4680BD00BFC6
:103FE0004C3C0020D83C0020EC3C0020083D002048
:103FF0001C3D0020343D0020003D0020043D0020F9
:1040000080B582B000AF19E0FFF718F90F4BDB68FD
:10401000DB687B607B6804331846FEF7C0FF0C4BFF
:104020001B68013B0A4A13600A4B1B68013B094AA3
:104030001360FFF731F9786800F00EF8054B1B6844
:10404000002BE1D100BF0837BD4680BD1C3D0020DC
:10405000483D0020303D002080B584B000AF78603E
:104060007B6893F85130002B08D17B681B6B184696
:10407000FFF782FA7868FFF77FFA17E07B6893F81A
:104080005130012B03D17868FFF776FA0EE07B6898
:1040900093F85130022B09D04FF0500383F311886D
:1040A000BFF36F8FBFF34F8FFB60FEE700BF10378A
:1040B000BD4680BD80B483B000AF0F4B1B681B684A
:1040C000002B01D1012300E00023002B04D00B4B77
:1040D0004FF0FF321A6008E0074B1B68DB68DB68B3
:1040E0007B607B685B68054A136000BF0C37BD4688
:1040F0005DF8047B704700BF003D0020683D002054
:1041000080B584B000AF78603960294B1B68FB60D4
:10411000284B1B6804331846FEF741FF0346002B6B
:104120000BD1244B1B68DB6A012202FA03F3DA434A
:10413000214B1B681340204A13607B68B3F1FF3F9B
:104140000AD13B68002B07D01A4B1B680433194671
:104150001A48FEF7C7FE26E0FA687B681344BB6086
:10416000144B1B68BA685A60BA68FB689A4209D255
:10417000134B1A680F4B1B68043319461046FEF7A1
:10418000D5FE10E00F4B1A680A4B1B680433194622
:104190001046FEF7CBFE0C4B1B68BA689A4202D25F
:1041A000094ABB68136000BF1037BD4680BD00BF21
:1041B0004C3D0020483C0020503D0020343D002074
:1041C000043D0020003D0020683D002080B582B005
:1041D00000AF174B174A1A60154B01225A60144B57
:1041E00000221A8200233B7080237B70E123BB7086
:1041F0000023FB7000233B7100237B710C4A3B467C
:1042000053610B4B00229A61094B0022DA61084B83
:104210004FF400021A620648FCF7B6FA0346002B78
:1042200001D000F0A7FA00BF0837BD4680BD00BF2F
:10423000CC3F00200080024080B58EB000AF786097
:1042400007F1240300221A605A609A60DA601A614A
:104250007B681B68554A934240F0A48000233B6270
:10426000534A534B1B6B43F000731363504B1B6B50
:1042700003F000733B623B6A0023FB614C4A4C4BEA
:104280001B6B43F080631363494B1B6B03F080632C
:10429000FB61FB690023BB61454A454B1B6B43F047
:1042A00000631363424B1B6B03F00063BB61BB698C
:1042B00000237B613E4A3E4B1B6B43F004031363B8
:1042C0003B4B1B6B03F004037B617B6900233B6169
:1042D000374A374B1B6B43F001031363344B1B6BA3
:1042E00003F001033B613B690023FB60304A304B24
:1042F0001B6B43F0020313632D4B1B6B03F0020394
:10430000FB60FB680023BB60294A294B1B6B43F011
:1043100040031363264B1B6B03F04003BB60BB6879
:1043200032237B620223BB620023FB6203233B63D5
:104330000B237B6307F1240319461E48FCF790FE0C
:1043400086237B620223BB620023FB6203233B6361
:104350000B237B6307F1240319461748FCF780FE03
:104360004FF400537B620223BB620023FB620323F2
:104370003B630B237B6307F1240319460F48FCF7CB
:104380006FFE4FF420537B620223BB620023FB626B
:1043900003233B630B237B6307F12403194608487F
:1043A000FCF75EFE00BF3837BD4680BD008002408E
:1043B00000380240000802400000024000040240B1
:1043C0000018024080B485B000AFF860B9607A6030
:1043D000FB68074A1A60BB68064A1A607B6880223D
:1043E0001A6000BF1437BD465DF8047B704700BFFC
:1043F000743D0020C83D0020B0B58EB000AF002253
:1044000001211B48FCF7D6FF012280211848FCF748
:10441000D1FF00224FF480411548FCF7CBFF154B2C
:1044200007F11C041D460FCD0FC495E8070084E872
:10443000070007F11C0300211846FEF7C6FC0246E0
:104440000D4B1A600D4B3C461D460FCD0FC495E831
:10445000070084E807003B4600211846FEF7B5FC3C
:104460000246074B1A6000BF3837BD46B0BD00BFDB
:1044700000040240144C000818400020404C000882
:104480001C40002080B584B000AF78600023FB6042
:10449000012280210948FCF78DFF40F6C410FEF789
:1044A000E0FC002280210548FCF784FF00BFFB6888
:1044B0005A1CFA60024A9342F9DDE7E70004024021
:1044C000FF59620280B582B000AF786001224FF4DC
:1044D00080410848FCF76EFF3220FEF7C2FC002244
:1044E0004FF480410348FCF765FF3220FEF7B9FC2A
:1044F000ECE700BF0004024080B58CB000AF07F1CC
:104500001C0300221A605A609A60DA601A61002364
:10451000BB614B4A4A4B1B6B43F004031363484B8C
:104520001B6B03F00403BB61BB6900237B61444A3E
:10453000434B1B6B43F080031363414B1B6B03F036
:1045400080037B617B6900233B613D4A3C4B1B6BD5
:1045500043F0010313633A4B1B6B03F001033B6110
:104560003B690023FB60364A354B1B6B43F002036B
:104570001363334B1B6B03F00203FB60FB680023E8
:10458000BB602F4A2E4B1B6B43F0080313632C4B6D
:104590001B6B03F00803BB60BB6800237B60284AE9
:1045A000274B1B6B43F040031363254B1B6B03F03E
:1045B00040037B607B68002244F281012148FCF7C4
:1045C000F9FE002240212048FCF7F4FE4FF400538E
:1045D000FB611E4B3B6200237B6207F11C03194603
:1045E0001B48FCF73DFD44F28103FB6101233B6264
:1045F00000237B620023BB6207F11C0319461148AC
:10460000FCF72EFD4023FB6101233B6200237B620C
:104610000023BB6207F11C0319460B48FCF720FD81
:104620008023FB6100233B6200237B6207F11C03B4
:1046300019460548FCF714FD00BF3037BD4680BD64
:10464000003802400004024000180240000031100F
:104650000008024080B500AFFBF752FF00F00EF8F3
:10466000FFF74AFFFFF7B2FD00F06CF900F0DCF94C
:10467000FFF7C2FEFEF7A2FBFEE7000080B594B094
:1046800000AF07F1200330220021184600F0A2FA03
:1046900007F10C0300221A605A609A60DA601A610E
:1046A0000023BB60284A284B1B6C43F080531364E3
:1046B000254B1B6C03F08053BB60BB6800237B6001
:1046C000224A224B1B6843F4404313601F4B1B6874
:1046D00003F440437B607B6801233B624FF4A023DB
:1046E0007B620223BB634FF48003FB6304233B64C0
:1046F000A8237B640223BB640723FB6407F1200328
:104700001846FCF78DFF0346002B01D000F032F86D
:104710000F23FB6002233B6100237B614FF4A05316
:10472000BB614FF48053FB6107F10C030521184670
:10473000FDF7B8F90346002B01D000F01BF800BFCD
:104740005037BD4680BD00BF0038024000700040B9
:1047500080B582B000AF78607B681B68044A9342E2
:1047600001D1FBF7EFFE00BF0837BD4680BD00BF9B
:104770000004014080B400AF00BFBD465DF8047B7B
:104780007047000080B582B000AF00237B60124A02
:10479000114B5B6C43F4804353640F4B5B6C03F42D
:1047A00080437B607B6800233B600B4A0A4B1B6C99
:1047B00043F080531364084B1B6C03F080533B6041
:1047C0003B6800220F216FF00100FBF7B3FF00BF31
:1047D0000837BD4680BD00BF0038024080B58CB0B0
:1047E00000AF78600023FB620023BB62002279687F
:1047F0002C20FBF79FFF2C20FBF7B8FF0023FB606A
:104800001F4A1F4B5B6C43F0020353641C4B5B6CF1
:1048100003F00203FB60FB6807F1100207F11403C9
:1048200011461846FDF72CFBFDF716FB03465B000F
:10483000FB62FB6A134AA2FB03239B0C013BBB6296
:10484000114B124A1A60104B40F2E732DA600E4AFE
:10485000BB6A53600C4B00221A610B4B00229A601A
:104860000948FDF73FFB0346002B04D10648FDF73E
:104870006EFB034600E0012318463037BD4680BD7D
:104880000038024083DE1B4320400020000401402A
:1048900080B400AF00BFBD465DF8047B704780B4B4
:1048A00000AFFEE780B400AFFEE780B400AFFEE7E4
:1048B00080B400AFFEE780B400AF00BFBD465DF836
:1048C000047B704780B500AF0248FDF764FB00BF72
:1048D00080BD00BF2040002080B400AF164A164BB8
:1048E000D3F8883043F47003C2F88830134A134B6E
:1048F0001B6843F001031360104B00229A600F4ABB
:104900000E4B1B6823F0847323F4803313600B4B2E
:104910000B4A5A60094A094B1B6823F48023136031
:10492000064B0022DA60044B4FF000629A6000BF31
:10493000BD465DF8047B704700ED00E000380240A2
:104940001030002480B500AF114B124A1A60104B92
:104950004FF4E1325A600E4B00229A600C4B002259
:10496000DA600B4B00221A61094B0C225A61084B8A
:1049700000229A61064B0022DA610548FDF7F0FC3F
:104980000346002B01D0FFF7F5FE00BF80BD00BF3E
:10499000604000200048004080B58AB000AF7860D9
:1049A00007F1140300221A605A609A60DA601A61F3
:1049B0007B681B68194A93422CD100233B61184A3B
:1049C000174B1B6C43F480231364154B1B6C03F4CF
:1049D00080233B613B690023FB60114A104B1B6B3A
:1049E00043F0080313630E4B1B6B03F00803FB60DB
:1049F000FB684FF440737B610223BB610123FB61C1
:104A000003233B6207237B6207F114031946054821
:104A1000FCF726FB00BF2837BD4680BD004800409C
:104A200000380240000C024080B500AF144B4FF03C
:104A3000A0421A60124B04225A60114B0222DA6023
:104A40000F4B00221A610E4B02229A610C4B01227D
:104A5000DA610B4B00221A62094B00225A62084BA2
:104A60000122DA62064B00221A630548FCF7BBFC00
:104A70000346002B01D0FFF77DFE00BF80BD00BFC5
:104A8000A040002080B58AB000AF786007F1140321
:104A900000221A605A609A60DA601A617B681B68AB
:104AA000B3F1A04F3FD100233B61214A204B1B6B48
:104AB00043F0010313631E4B1B6B03F001033B61C7
:104AC0003B694FF4E8537B610223BB610023FB6128
:104AD00003233B620A237B6207F11403194615483E
:104AE000FCF7BEFA4FF400737B610023BB61002327
:104AF000FB6107F1140319460E48FCF7B1FA0C4AA2
:104B00000B4B5B6B43F0800353630023FB60084A4D
:104B1000074B5B6C43F480435364054B5B6C03F4BD
:104B20008043FB60FB6800BF2837BD4680BD00BFE7
:104B30000038024000000240DFF834D0002103E0DA
:104B40000C4B5B58435004310B480C4B42189A42B3
:104B5000F6D30B4A02E0002342F8043B094B9A4289
:104B6000F9D3FFF7B9FE00F011F8FFF773FD7047B6
:104B700000000320844C0008000000200C000020EE
:104B80000C000020A8440020FEE7000070B50D4E88
:104B90000D4CA41BA4100025A54209D10B4E0C4CB2
:104BA00000F020F8A41BA4100025A54205D170BD7B
:104BB00056F8253098470135EEE756F825309847E6
:104BC0000135F2E77C4C00087C4C00087C4C000866
:104BD000804C000802440346934200D1704703F81A
:104BE000011BF9E7F8B500BFF8BC08BC9E4670474A
:0C4BF000F8B500BFF8BC08BC9E4670473A
:104BFC0049444C4500000000466C617368426C757A
:104C0C00655461736B000000044C00088544000877
:104C1C000200000000000000800000000000000006
:104C2C0000000000466C6173685265645461736BDC
:104C3C0000000000304C0008C544000800000000D3
:104C4C0000000000800000000000000000000000D8
:104C5C000000000000000000010203040607080920
:084C6C00000000000102030436
:084C7400ACB5FF7F0100000058
:044C7C00D501000856
:044C8000B101000876
:0C4C840001000000AAAAAAAA0024F40063
:0400000508004B396B
:00000001FF
