:020000040800F2
:1000000000000320B11C0008491C00084B1C00081C
:100010004D1C00084F1C0008511C00080000000087
:10002000000000000000000000000000531C000859
:10003000551C000800000000571C0008591C00084F
:10004000011D0008011D0008011D0008011D000818
:10005000011D0008011D0008011D0008011D000808
:10006000011D0008011D0008011D0008011D0008F8
:10007000011D0008011D0008011D0008011D0008E8
:10008000011D0008011D0008011D0008011D0008D8
:10009000011D0008011D0008011D0008011D0008C8
:1000A000011D0008011D0008011D0008011D0008B8
:1000B000011D0008011D0008011D0008011D0008A8
:1000C000011D0008011D0008011D0008011D000898
:1000D000011D0008011D0008011D0008011D000888
:1000E0005D1C0008011D0008011D0008011D00081D
:1000F000011D0008011D0008011D0008011D000868
:10010000011D0008011D0008011D0008011D000857
:10011000011D0008011D0008011D0008011D000847
:10012000011D0008011D0008011D0008011D000837
:10013000011D0008011D0008011D0008011D000827
:10014000011D0008011D0008011D0008011D000817
:10015000011D0008011D0008011D0008011D000807
:10016000011D0008011D0008011D0008011D0008F7
:10017000011D0008011D0008011D0008000000000D
:10018000011D0008011D0008011D0008011D0008D7
:10019000011D0008011D0008011D0008011D0008C7
:0C01A000011D0008011D0008011D0008E1
:1001AC0010B5054C237833B9044B13B10448AFF3A5
:1001BC0000800123237010BD0C0000200000000003
:1001CC005C1D000808B5034B1BB103490348AFF392
:1001DC00008008BD00000000100000205C1D00081D
:1001EC0053B94AB9002908BF00281CBF4FF0FF3192
:1001FC004FF0FF3000F07AB9ADF1080C6DE904CE88
:10020C0000F006F8DDF804E0DDE9022304B07047E5
:10021C002DE9F0478C460D460446089E002B51D123
:10022C008A4217466DD9B2FA82FEBEF1000F0BD08E
:10023C00CEF1200C01FA0EF520FA0CFC02FA0EF7A6
:10024C004CEA050C00FA0EF44FEA174A250CBCFBDD
:10025C00FAF81FFA87F90AFB18CC45EA0C4508FB9B
:10026C0009F3AB420AD9ED1908F1FF3280F0238172
:10027C00AB4240F22081A8F102083D44ED1AA4B231
:10028C00B5FBFAF00AFB105544EA054400FB09F9EA
:10029C00A14509D9E41900F1FF3380F00A81A14589
:1002AC0040F2078102383C44A4EB090440EA0840C0
:1002BC000021002E61D024FA0EF400233460736008
:1002CC00BDE8F0878B4207D9002E54D0002186E878
:1002DC0021000846BDE8F087B3FA83F1002940F00D
:1002EC008E80AB4202D3824200F2FA80841A65EB14
:1002FC0003050120AC46002E3FD086E81010BDE867
:10030C00F08712B90127B7FBF2F7B7FA87FEBEF1F7
:10031C00000F34D1EB1B3A0C1FFA87FC0121B3FB05
:10032C00F2F8250C02FB183345EA03450CFB08F3E5
:10033C00AB4207D9ED1908F1FF3002D2AB4200F203
:10034C00D1808046ED1AA3B2B5FBF2F002FB10553A
:10035C0043EA05440CFB00FCA44507D9E41900F161
:10036C00FF3302D2A44500F2B8801846A4EB0C046B
:10037C0040EA08409DE731463046BDE8F087CEF1B3
:10038C00200405FA0EF307FA0EF720FA04F83A0CDB
:10039C0025FA04F448EA0308B4FBF2F14FEA1845D5
:1003AC0002FB11441FFA87FC45EA044501FB0CF3E0
:1003BC00AB4200FA0EF409D9ED1901F1FF3080F0CF
:1003CC008A80AB4240F2878002393D44EB1A1FFA17
:1003DC0088F5B3FBF2F002FB103345EA034500FB52
:1003EC000CF3AB4207D9ED1900F1FF386FD2AB42D9
:1003FC006DD902383D44EB1A40EA01418FE7C1F157
:10040C00200722FA07F88B4005FA01F448EA0303A7
:10041C0020FA07FE4FEA134CFD404EEA040EB5FBE2
:10042C00FCF94FEA1E440CFB19551FFA83F844EAF9
:10043C00054509FB08F4AC4202FA01F200FA01FA94
:10044C0008D9ED1809F1FF3043D2AC4241D9A9F1DA
:10045C0002091D442D1B1FFA8EFEB5FBFCF00CFB94
:10046C0010554EEA054400FB08F8A04507D9E418DE
:10047C0000F1FF3529D2A04527D902381C4440EAA7
:10048C000940A4EB0804A0FB02894C45C6464D4626
:10049C0015D312D056B1BAEB0E0364EB050404FA73
:1004AC0007F7CB401F43CC40376074600021BDE898
:1004BC00F0871846F8E69046E0E6C245EAD2B8EB7B
:1004CC00020E69EB03050138E4E72846D7E74046FE
:1004DC0091E78146BEE7014678E702383C4445E7A0
:1004EC00084608E7A8F102083D442BE7704700BF17
:1004FC0038B50E4A0E4B054618784FF47A73B3FB99
:10050C00F0F31068B0FBF3F000F0A8F8044658B90B
:10051C000F2D09D8024629464FF0FF3000F05EF847
:10052C00044B20461D6038BD012038BD080000205A
:10053C00000000200400002008B50B4B1A6842F4A0
:10054C0000721A601A6842F480621A601A6842F4E7
:10055C0080721A60032000F02FF80020FFF7C8FF0C
:10056C0001F048FA002008BD003C0240034A044B4D
:10057C0011681B780B441360704700BF2C000020DF
:10058C0000000020014B1868704700BF2C000020B1
:10059C0038B50446FFF7F6FF631C1CBF054B1B78F0
:1005AC00054618BFE418FFF7EDFF401B8442FAD84C
:1005BC0038BD00BF00000020074AD36823F4E06375
:1005CC001B041B0C43F0BF63000243F4003300F424
:1005DC00E0600343D360704700ED00E0174B30B58B
:1005EC00DC68C4F30224C4F10703251D042B28BFC7
:1005FC000423062D4FF0010505FA03F303F1FF3335
:10060C008CBF033C00241940A14005FA04F4013CC2
:10061C002240002842EA01024FEA0212AFBF00F169
:10062C00604000F00F00064BD2B2A5BF00F5614050
:10063C00D2B21A5480F8002330BD00BF00ED00E0A8
:10064C0014ED00E04209012300F01F0003FA00F052
:10065C00014B43F82200704700E100E00138B0F193
:10066C00807F0AD2064B074A5860F02182F823108B
:10067C000020072298601A6070470120704700BF65
:10068C0010E000E000ED00E070B5044629B14FF435
:10069C000063C3604FF480438360E3692268E068C1
:1006AC001568002BA36843EA0003304843F4007339
:1006BC0000EA05000CBF4FF48061002103430B439B
:1006CC00136001201568FFF763FF236840221D604B
:1006DC0001205A605D68FFF75BFF23685D600025B1
:1006EC009D60DD609A6922F0BE021204120C42F089
:1006FC0080029A6101209E69FFF74AFF236801205E
:10070C009E61DD61DD69FFF743FF2268184BD561FF
:10071C0041F21805012051590B4043F0087343F086
:10072C00040353515659FFF733FF2368114A5E51A6
:10073C0003F5805301201A601D68FFF729FF22681A
:10074C0002F580531D60A369012B07D141F21C01F6
:10075C00535843F4803343F0400353506369064AC3
:10076C00998811601A68054B1A6070BD0F8120FFC3
:10077C00233FDEF88020C1024080024044800240CA
:10078C00F8B590F84430822B0546164630D00268F6
:10079C00822380F844301369890101F4F86403F072
:1007AC001C012143048AE402A4B20C4344F001046A
:1007BC001461FFF7E7FE074614F0010007D12B6820
:1007CC005B699BB23360012385F84430F8BDFFF7B9
:1007DC00D9FEC01BB0F5803F07D3012385F8443008
:1007EC00002385F845300320F8BD2B681C69E3E72E
:1007FC000220F8BD90F84430422B70B505462ED03F
:10080C00422380F8443003688C01186904F4F864BE
:10081C0044F0030400F01C0020432C8AE402A4B230
:10082C00044392B25A611C61FFF7ACFE064614F009
:10083C00010003D1012385F8443070BDFFF7A2FEFF
:10084C00801BB0F5803F07D3012385F8443000238B
:10085C0085F84530032070BD2B681C69E7E7022042
:10086C0070BD0000F7B5002300930446002800F08B
:10087C00DE8090F8443003F0FF021BB980F845206D
:10088C0001F0D4F8002301936A4B5A6C42F4804275
:10089C005A645B6C03F480430193019B664B5A686A
:1008AC0022F400025A605A68216A0A435A6023688B
:1008BC0003F580531A6842F001021A60FFF762FEDA
:1008CC000546236803F580521268D0071DD41D69B4
:1008DC0000F07CFC594B5A4A0344934225F01C050A
:1008EC0022D845F0080523684FF400421D61002111
:1008FC002046FFF77FFF054668B3012120460125FE
:10090C00FFF7C2FE84F844500BE0FFF73BFE401BA0
:10091C00B0F5FA7FD5D90325002384F8445084F828
:10092C004530284603B0F0BD464B474A034493423A
:10093C0002D845F00C05D6E7444B454A0344934294
:10094C00D1D9444B444A0344934294BF45F0040527
:10095C0045F01005C7E7FF20FFF71AFE6368002B70
:10096C0053D0FFF70FFE41F2883706466A46012145
:10097C002046FFF705FFFFF705FE801BB8420BD999
:10098C0001212046FFF780FE012384F84430002328
:10099C0084F845300325C4E7009B5907E6D54FF48E
:1009AC00805200212046FFF725FF0028A5D1FFF734
:1009BC00E9FD41F2883706466A4601212046FFF7D9
:1009CC00DFFEFFF7DFFD801BB842D9D8009B9A06EB
:1009DC00F2D56A4610212046FFF7D2FE00288CD1B2
:1009EC00009B13F0040218BF4FF400629B074CBF2E
:1009FC0000234FF48043E260A36000212046FFF700
:100A0C0043FE012384F844308BE7A368E2685B085B
:100A1C0043EAD20292B229462046FFF7EBFE0028A9
:100A2C007FF46BAF40F6FF70FFF7B2FDE5E70125F1
:100A3C0077E700BF003802400038014000D3CEFEFB
:100A4C00BFE1E40040F1E9FD3F787D0100796CFCE9
:100A5C00FF596202001F0AFA7FF0FA022DE9F04FEB
:100A6C0085B00B68DFF8C4816E4ADFF8C49101933E
:100A7C0000234FF0010E019C0EFA03FE0EEA040651
:100A8C00B64540F0B6804C6824F01007022F16D102
:100A9C004FEAD30A00EB8A0A03F0070BDAF820506E
:100AAC004FEA8B0B4FF00F0C0CFA0BFC25EA0C0CDD
:100ABC000D6905FA0BF545EA0C05CAF820504FEA0A
:100ACC00430A0325D0F800B005FA0AF5ED4304F00B
:100ADC00030C0BEA050B0CFA0AFC013F4CEA0B0C5D
:100AEC00012FC0F800C011D8876807EA050BCF6842
:100AFC0007FA0AFC4CEA0B078760476827EA0E0ED8
:100B0C00C4F300179F4047EA0E074760C7683D4093
:100B1C008F6807FA0AF73D43C560E50069D54FF0C9
:100B2C00000BCDF80CB0D8F844703F4D47F480471B
:100B3C00C8F84470D8F8447007F480470397039FB3
:100B4C0023F0030707F1804707F59C3703F0030CEC
:100B5C00D7F808A04FEA8C0C4FF00F0E0EFA0CFED3
:100B6C00A8422AEA0E0E4BD005F58065A84249D062
:100B7C0005F58065A84247D005F58065A84245D0AB
:100B8C0005F58065A84243D0484543D005F500657E
:100B9C00A84241D005F58065A8423FD005F5806597
:100BAC00A8423DD005F58065A84214BF0A25092549
:100BBC0005FA0CF545EA0E05BD601568F74314F40B
:100BCC00803F0CBF3D4035431560556814F4003F21
:100BDC000CBF3D4035435560956814F4801F0CBF25
:100BEC003D4035439560D568A40254BF3D40354324
:100BFC00D5600133102B7FF43CAF05B0BDE8F08F0E
:100C0C005D46D5E70125D3E70225D1E70325CFE7DC
:100C1C000425CDE70525CBE70625C9E70725C7E75A
:100C2C000825C5E7003C01400000024000380240A6
:100C3C00001402400AB1816170470904FBE7436963
:100C4C00594041617047000008B5044B5969014295
:100C5C0002D0586100F06AFD08BD00BF003C0140A5
:100C6C00F0B506468BB0002864D00323344680F8D8
:100C7C00B93300F0A1FF54F8100B00F04FFC0FCC6F
:100C8C006D460FC50FCC0FC594E8030085E8030033
:100C9C00371D97E80E00306800F006FC0021306824
:100CAC0000F042FC00213346324606F110040125C7
:100CBC00084682F83810D18701310F2982F8395053
:100CCC0082F83B0010645064D06402F11C02F0D135
:100CDC000022D6F800E0114602F1400083F8F8211A
:100CEC00DA870EEB800001320F2A83F8F91183F8B2
:100CFC00FB11C3F80012C3F80412C3F80C124160C4
:100D0C0003F11C03E8D10FCC6D460FC50FCC0FC5FA
:100D1C0094E8030085E80300704697E80E0000F0A5
:100D2C001BFC012386F8B933306800F0DAFC002094
:100D3C000BB0F0BD0120FBE72DE9F341044618B9D7
:100D4C00012002B0BDE8F0810368DD0710D42368F0
:100D5C00980758D423681A0700F19A8023685B0718
:100D6C0000F1B880A269002A40F019810020E8E760
:100D7C00A64B9A6802F00C02042A07D09A6802F07B
:100D8C000C02082A0AD15B68590207D59F4B1B68D5
:100D9C009A03DCD56368002BD9D1D1E763689B4DEE
:100DAC00B3F5803F11D12B6843F480332B60FFF7F0
:100DBC00E9FB964D06462B689B03C8D4FFF7E2FB74
:100DCC00801B6428F7D90320BBE7B3F5A02F04D10F
:100DDC002B6843F480232B60E5E72A6822F48032E9
:100DEC002A602A6822F480222A60002BDFD1FFF7C8
:100DFC00C9FB06462B689F03A9D5FFF7C3FB801BD5
:100E0C006428F7D9DFE7814B9A6812F00C0F07D0F2
:100E1C009A6802F00C02082A11D15B685E020ED4AB
:100E2C007A4B1A68950702D5E268012A88D11A68AC
:100E3C00216922F0F80242EAC1021A608AE7E268EC
:100E4C00734BB2B101221A60FFF79CFB6F4D064643
:100E5C002B68980707D52B68226923F0F80343EA1F
:100E6C00C2032B6076E7FFF78DFB801B0228EFD9BE
:100E7C00A9E71A60FFF786FB644D06462B689907B5
:100E8C007FF568AFFFF77EFB801B0228F6D99AE747
:100E9C006269604B7AB101221A60FFF773FB5B4DFC
:100EAC0006466B6F9F073FF559AFFFF76BFB801B37
:100EBC000228F6D987E71A60FFF764FB534D064604
:100ECC006B6F98077FF54AAFFFF75CFB801B02281E
:100EDC00F6D978E74D4B1A6C12F0805228D101925A
:100EEC001A6C42F080521A641B6C03F0805301930D
:100EFC00019B0126484D2B68D9051BD5A368434D92
:100F0C00012B27D12B6F43F001032B67FFF73AFB23
:100F1C003E4D074641F288382B6F9B0739D5002E82
:100F2C003FF420AF394A136C23F08053136419E754
:100F3C000026DFE72B6843F480732B60FFF722FB5E
:100F4C0007462B68DA05D9D4FFF71CFBC01B022817
:100F5C00F7D938E7052B04D12B6F43F004032B672B
:100F6C00D0E72A6F22F001022A672A6F22F00402CE
:100F7C002A67002BCAD1FFF705FB41F288380746D8
:100F8C002B6F9807CBD5FFF7FDFAC01B4045F7D95F
:100F9C0019E7FFF7F7FAC01B4045BDD913E71B4D06
:100FAC00AB6803F00C03082B3FF4CAAE1B4E0023B6
:100FBC00022A336034D1FFF7E5FA07462B68990112
:100FCC001ED4226AE3691343626A43EA8213E26A1B
:100FDC0043EA0263A26A0D4C5208013A43EA024307
:100FEC006B6001233360FFF7CDFA054623689A0145
:100FFC003FF5BCAEFFF7C6FA401B0228F6D9E2E675
:10100C00FFF7C0FAC01B0228D8D9DCE60038024032
:10101C0000004742800E474200700040600047428B
:10102C00FFF7B0FA04462B689B017FF59FAEFFF7E4
:10103C00A9FA001B0228F6D9C5E600BF134908B56A
:10104C008B6803F00C03042B03D0082B03D010483F
:10105C0008BD104808BD4A684B68496813F4800302
:10106C0014BF0C480A48C1F3881118BF002302F0C2
:10107C003F02A1FB0001FFF7B3F8044B5B68C3F31D
:10108C00014301335B00B0FBF3F008BD00380240B4
:10109C000024F40000127A002DE9F0410D460446BC
:1010AC0010B90120BDE8F081444B1A6802F00F0220
:1010BC008A4228D321688F072DD4C80740D43F4BD0
:1010CC001A6802F00F02954266D3226851076CD45D
:1010DC00130707D53A4A2169936823F4604343EA1E
:1010EC00C1039360FFF7AAFF354B364A9B68C3F3E5
:1010FC000313D35CD840344B18600020FFF7F8F989
:10110C000020BDE8F081CAB21A701B6803F00F030F
:10111C009942C6D1CEE72A4B11F0040F1EBF9A6834
:10112C0042F4E0529A600E0742BF9A6842F4604261
:10113C009A609A68A06822F0F00202439A60BCE7B9
:10114C0062681F4B012A1DD11B6813F4003FA8D005
:10115C001B4EB36823F003031343B360FFF712FA7B
:10116C0041F288380746B368626803F00C03B3EBAE
:10117C00820FA4D0FFF706FAC01B4045F3D9032019
:10118C00BDE8F081911E01291B6802D813F0007F85
:10119C00DDE713F0020FDAE7EAB21A701B6803F00E
:1011AC000F039D427FF47DAF8FE70549E0688B68A4
:1011BC0023F4E05303438B608AE700BF003C0240FA
:1011CC0000380240741D000808000020014B18680C
:1011DC00704700BF08000020044B054A9B68C3F30E
:1011EC008223D35C034A1068D84070470038024011
:1011FC00841D000808000020044B054A9B68C3F3BB
:10120C004233D35C034A1068D84070470038024020
:10121C00841D0008080000202DE9F0470668C2680C
:10122C003369C16923F44053134333610446836823
:10123C000069F2680343606922F41642034322F00A
:10124C000C020B431343F3607369A26923F44073DC
:10125C001343B1F5004F73617A4B7CD19E4203D09E
:10126C0003F580639E4244D1FFF7C6FF192505FBA9
:10127C0000F360684FF064094000B3FBF0F3B3FB7C
:10128C00F9F34FEA0318FFF7B7FF636868435B0095
:10129C00B0FBF3F7FFF7B0FF636868435B00B0FB8C
:1012AC00F3F3B3FBF9F309FB1373DB003233B3FB3A
:1012BC00F9F35B0003F4F877FFF79EFF626868436D
:1012CC005200B0FBF2FAFFF797FF636868435B00CC
:1012DC00B0FBF3F3B3FBF9F309FB13A3DB003233DD
:1012EC00B3FBF9F303F0070343443B44B360BDE89D
:1012FC00F087FFF771FF192505FB00F360684FF0CD
:10130C0064094000B3FBF0F3B3FBF9F34FEA0318A5
:10131C00FFF762FF636868435B00B0FBF3F7FFF70E
:10132C005BFF636868435B00B0FBF3F3B3FBF9F35B
:10133C0009FB1373DB003233B3FBF9F35B0003F4EB
:10134C00F877FFF749FF626868435200B0FBF2FA86
:10135C00FFF742FFB9E79E4202D03B4B9E4240D181
:10136C00FFF74AFF676819254FF0640905FB00F386
:10137C00BF00B3FBF7F3B3FBF9F31F01FFF73CFF1F
:10138C00636868439B00B0FBF3F8FFF735FF6368B5
:10139C0068439B00B0FBF3F3B3FBF9F309FB138336
:1013AC001B013233B3FBF9F303F0F008FFF724FF12
:1013BC00626868439200B0FBF2FAFFF71DFF6368A6
:1013CC0068439B00B0FBF3F3B3FBF9F309FB13A3E6
:1013DC001B013233B3FBF9F303F00F0343EA0803A9
:1013EC0083E7FFF7F9FE676819254FF0640905FBE1
:1013FC0000F3BF00B3FBF7F3B3FBF9F31F01FFF7E7
:10140C00EBFE636868439B00B0FBF3F8FFF7E4FE68
:10141C00636868439B00B0FBF3F3B3FBF9F309FB80
:10142C0013831B013233B3FBF9F303F0F008FFF71E
:10143C00D3FE626868439200B0FBF2FAFFF7CCFE71
:10144C00BDE700BF001001400014014010B5044678
:10145C0040B390F8393003F0FF021BB980F8382004
:10146C0000F072FB2268242384F83930D36823F40B
:10147C000053D3602046FFF7CFFE23681A6922F48D
:10148C0090421A615A6922F02A025A61DA6842F4CF
:10149C000052DA6000202023E06384F8393084F8AD
:1014AC003A3010BD012010BD84B038B505AD85E8CB
:1014BC000E000A9B012B044626D1836B23F4803348
:1014CC008363C36823F4840323F04003C360C368BD
:1014DC0023F44013C360119B012B02BFC36843F478
:1014EC008013C36000F00AF9089B012B07D1A36895
:1014FC0043F00603A360A36843F02003A360BDE898
:10150C003840002004B07047C36843F04003C36008
:10151C0000F0F4F84FF48033A363E5E7836823F01D
:10152C00010383600020704708B5C368012923F0CC
:10153C00C043C36008D1C36843F00053C36032207A
:10154C00FFF726F8002008BD0029F8D1C36843F046
:10155C008043C360F3E7000084B02DE9F0410446FA
:10156C0007A880E80E00119E0A9FA36B8846A6B9B7
:10157C0043F40013A3630023C4F8003ED4F80038EE
:10158C00C4F800380C9B012B04F500655ED1099959
:10159C0039B9204600F09EF807E043F40023A3631A
:1015AC00E9E71946204600F095F81021204600F096
:1015BC006FF8204600F07EF800234FF0FF322B61CD
:1015CC0019466B614FF09040AA614FF0FF0EEB6132
:1015DC0004F5106243453BD1002104F53062084606
:1015EC004FF0904E4FF0FF0C8B423ED12B69012FE8
:1015FC0023F480732B6108D1234B2B632B6B43F4A7
:10160C00803343F003032B632B6B0023A3616FF038
:10161C00804363611FB9A36943F01003A361A269FE
:10162C001A4B1343A3610D9B1BB1A36943F0080331
:10163C00A361012E01BFA36943F0804343F004036F
:10164C00A361BDE8F041002004B070470321A0E77E
:10165C00D2F800C0BCF1000FB4BF106011600133B0
:10166C001161C2F808E02032B4E7D2F80080B8F17A
:10167C00000FB4BFC2F800E0106001311061C2F875
:10168C0008C02032B0E700BF0001800000383C8069
:10169C00890141F02001064A0161013A05D0036934
:1016AC0013F02003F9D1184670470320704700BF90
:1016BC00410D03001023064A0361013A05D003696A
:1016CC0013F01003F9D1184670470320704700BF80
:1016DC00410D0300D0F800381943C0F80018002061
:1016EC00704708B5D0F8043843F00203C0F804384A
:1016FC000320FEF74DFF002008BD00000A4B013B04
:10170C0001D1032070470269002AF8DA0369064AFE
:10171C0043F001030361013AF3D0036913F00103B1
:10172C00F9D11846704700BF410D0300044B1A68ED
:10173C0012B901221A607047012AFCD10022F9E784
:10174C002800002030B595B03022002108A800F008
:10175C00F7FA0021142203A800F0F2FA00241D4B22
:10176C0001941A6C42F080521A641B6C03F0805383
:10177C000193019B184B02941A6842F440421A6080
:10178C001B6803F440430293029B012308934FF41C
:10179C00A02309934FF480030F9304231093A823E1
:1017AC000225119308A8072313930E951295FFF7A2
:1017BC00C3FA0F2303934FF4A053069305214FF460
:1017CC00805303A8049505940793FFF765FC15B0A7
:1017DC0030BD00BF003802400070004080B58CB0B6
:1017EC0007ADFEF7A9FEFFF7ADFF14220021284636
:1017FC0000F0A6FA0024744B01941A6B734842F063
:10180C0004021A631A6B02F004020192019A029408
:10181C001A6B42F080021A631A6B02F08002029279
:10182C00029A03941A6B42F001021A631A6B02F0CB
:10183C0001020392039A04941A6B42F002021A6397
:10184C001A6B02F002020492049A05941A6B42F08D
:10185C0008021A631A6B02F008020592059A0694A4
:10186C001A6B42F040021A631B6B03F040032246D2
:10187C00069344F28101069BFFF7DCF922464021D6
:10188C005348FFF7D7F94FF4005307932946514BB0
:10189C005148089301260994FFF7E0F844F28103BC
:1018AC0029464A480793089609940A94FFF7D6F8F4
:1018BC004023294646480793089609940A948027A2
:1018CC00FFF7CCF829464248089409940797FFF78C
:1018DC00C5F8214622462820FEF780FE2820FEF778
:1018EC00B1FE3E483E4B048280E84800E1238DF86F
:1018FC001E304FF400038DF81C408DF81F408DF8FE
:10190C0020408DF821408461C46103628DF81D7004
:10191C004561FEF7A7FF3348334A84604FF4E13347
:10192C0080E80C000C23C460046143618461C461D1
:10193C00FFF78CFD2D484FF0A041042380E80A00EE
:10194C00022304614461C66104624462C66204639A
:10195C00C3608361FFF784F904F18044244E04F5DD
:10196C0001343568012D19D1204600228021FFF762
:10197C0061F9002220464FF48041FFF75BF92946BC
:10198C002046FFF75CF96420FEF702FE204629464C
:10199C00FFF755F96420FEF7FBFDE2E74FF47A7090
:1019AC00FEF7F6FD204600220121FFF743F9204601
:1019BC0001228021FFF73EF900224FF4804120469E
:1019CC00FFF738F9CDE700BF0038024000040240B1
:1019DC000018024000003110000802406004002092
:1019EC0000800240300000200048004070000020C1
:1019FC002800002082B00C4B002100915A6C42F45C
:101A0C0080425A645A6C02F480420092009A01910E
:101A1C001A6C42F080521A641B6C03F080530193D1
:101A2C00019B02B0704700BF00380240F0B504467D
:101A3C008DB01422002107A800F082F922683D4BDA
:101A4C009A4274D1A3F59043002400941A6B3A483F
:101A5C0042F000721A631A6B02F000720092009A44
:101A6C0001941A6B42F080621A631A6B02F0806266
:101A7C000192019A02941A6B42F000621A631A6B7B
:101A8C0002F000620292029A03941A6B42F0040272
:101A9C001A631A6B02F004020392039A04941A6BF1
:101AAC0042F001021A631A6B02F001020492049ACA
:101ABC0005941A6B42F002021A631A6B02F00202CE
:101ACC000592059A06941A6B42F040021A631B6B3E
:101ADC0003F040030693022703260B25069B089769
:101AEC00322307A907930A960B95FEF7B7FF8623B7
:101AFC0007A912480793089709940A960B95FEF7C5
:101B0C00ADFF4FF4005307A90D48079308970994AC
:101B1C000A960B95FEF7A2FF4FF4205307A909482C
:101B2C000793089709940A960B95FEF797FF0DB04B
:101B3C00F0BD00BF008002400008024000000240DF
:101B4C00000402400018024010B5044688B014226C
:101B5C00002103A800F0F4F82268154B9A4225D115
:101B6C0003F5F833002101911A6C124842F48022DB
:101B7C001A641A6C02F480220192019A02911A6B77
:101B8C0042F008021A631B6B03F008030293029BDA
:101B9C004FF440730393022304930123059303230F
:101BAC00069303A907230793FEF758FF08B010BD4F
:101BBC0000480040000C024030B5044689B01422A5
:101BCC00002103A800F0BCF82368B3F1A04F2FD17B
:101BDC00184C194800250195236B43F0010323632E
:101BEC00236B03F001030193019B4FF4E853039320
:101BFC00022304930323069303A90A230793FEF7F6
:101C0C002DFF4FF4007303A90B480393049505951E
:101C1C00FEF724FF636B43F0800363630295636CF0
:101C2C0043F480436364636C03F480430293029B2C
:101C3C0009B030BD00380240000002407047FEE79A
:101C4C00FEE7FEE7FEE7704770477047FEF78EBC75
:101C5C004FF40050FEF7F8BF0F49D1F8883043F429
:101C6C007003C1F888300D4B1A68002042F0010255
:101C7C001A6098601A6822F0847222F480321A601A
:101C8C00074A5A601A6822F480221A60D8604FF012
:101C9C0000638B60704700BF00ED00E0003802402D
:101CAC0010300024DFF834D0002103E00C4B5B58DB
:101CBC00435004310B480C4B42189A42F6D30B4A52
:101CCC0002E0002342F8043B094B9A42F9D3FFF798
:101CDC00C3FF00F011F8FFF781FD704700000320EF
:101CEC009C1D0008000000200C0000200C000020AF
:101CFC00A8040020FEE7000070B50D4E0D4CA41B8F
:101D0C00A4100025A54209D10B4E0C4C00F020F874
:101D1C00A41BA4100025A54205D170BD56F8253092
:101D2C0098470135EEE756F8253098470135F2E72C
:101D3C00941D0008941D0008941D0008981D0008AF
:101D4C0002440346934200D1704703F8011BF9E7A4
:101D5C00F8B500BFF8BC08BC9E467047F8B500BF8C
:081D6C00F8BC08BC9E4670475C
:101D74000000000000000000010203040607080937
:081D840000000000010203044D
:081D8C0090E4FF7F010000005C
:041D9400D101000871
:041D9800AD01000891
:0C1D9C0001000000100000000024F40012
:0400000508001CB122
:00000001FF
